:100000000C9436000C945E000C945E000C945E0020
:100010000C945E000C945E000C945E000C945E00E8
:100020000C945E000C945E000C945E000C945E00D8
:100030000C945E000C945E000C945E000C945E00C8
:100040000C9412010C945E000C94A3010C94D50145
:100050000C945E000C945E000C945E000C945E00A8
:100060000C945E000C945E000501050211241FBE75
:10007000CFEFD8E0DEBFCDBF11E0A0E0B1E0E0E01F
:10008000F2E102C005900D92A83EB107D9F723E036
:10009000A8EEB1E001C01D92AA32B207E1F710E06C
:1000A000CCE6D0E004C02297FE010E94FA08C836D0
:1000B000D107C9F70E948E030C94FE080C9400002F
:1000C00066E071E08DE892E00E94E10340ED57E0C8
:1000D00060E070E08EEE91E00E94DB07811103C0CA
:1000E0006FE171E0EFCF66E371E08DE892E00C9490
:1000F000E103CF93DF931F92CDB7DEB7DC011496F7
:10010000ED91FC9115972281338121303105F1F475
:1001100041E050E0BE016F5F7F4F0E945808898127
:10012000853039F468E471E08DE892E00E94E103E3
:100130000DC067E571E08DE892E00E94DB034AE0C4
:1001400050E069818DE892E00E9460040F90DF9199
:10015000CF91089526E040E052EC61E070E08DE838
:1001600092E00E942B0369E770E080EF91E00E942B
:100170009D0880E690E09093F7018093F6010C943F
:100180006000CF92DF92EF92FF928EEE91E00E949C
:10019000D6060E945C01C090E801D090E901E09091
:1001A000EA01F090EB016C197D098E099F09613A13
:1001B0007F408105910520F168E671E08DE892E0CD
:1001C0000E94E1038CEE91E00E94A9046B017C0186
:1001D00068E771E08DE892E00E94DB032AE030E0FE
:1001E000B701A6018DE892E00E9493040E945C0191
:1001F0006093E8017093E9018093EA019093EB0129
:10020000FF90EF90DF90CF9008954DE852E0BA0153
:100210008EEE91E00E943B056EEE71E08CEE91E077
:100220000C94A5041F920F920FB60F9211242F93D6
:100230003F938F939F93AF93BF938091850290914B
:100240008602A0918702B09188023091840223E057
:10025000230F2D3720F40196A11DB11D05C026E8FE
:10026000230F0296A11DB11D209384028093850265
:1002700090938602A0938702B093880280918902AE
:1002800090918A02A0918B02B0918C020196A11DDF
:10029000B11D8093890290938A02A0938B02B09340
:1002A0008C02BF91AF919F918F913F912F910F90B1
:1002B0000FBE0F901F9018952FB7F894609185028C
:1002C0007091860280918702909188022FBF0895D5
:1002D000789484B5826084BD84B5816084BD85B521
:1002E000826085BD85B5816085BDEEE6F0E08081E8
:1002F00081608083E1E8F0E0108280818260808309
:10030000808181608083E0E8F0E08081816080838B
:10031000E1EBF0E0808184608083E0EBF0E08081BD
:1003200081608083EAE7F0E080818460808380815F
:100330008260808380818160808380818068808307
:100340001092C10008951F920F920FB60F921124C0
:100350002F938F939F93EF93FF93E0919D02F091E2
:100360009E028081E091A302F091A40282FD12C05E
:1003700090818091A6028F5F8F732091A7028217D0
:1003800051F0E091A602F0E0E357FD4F958F809386
:10039000A60201C08081FF91EF919F918F912F91D3
:1003A0000F900FBE0F901F9018951F920F920FB6CF
:1003B0000F9211242F933F934F935F936F937F93EB
:1003C0008F939F93AF93BF93EF93FF938DE892E04A
:1003D0000E948302FF91EF91BF91AF919F918F9106
:1003E0007F916F915F914F913F912F910F900FBE31
:1003F0000F901F9018958DE892E00E94480221E02E
:10040000892B09F420E0822F089510929002109217
:100410008F0288EE93E0A0E0B0E080939102909389
:100420009202A0939302B093940283E891E0909398
:100430008E0280938D0285EC90E090939A028093D7
:10044000990284EC90E090939C0280939B0280EC54
:1004500090E090939E0280939D0281EC90E09093B7
:10046000A00280939F0282EC90E09093A20280937E
:10047000A10286EC90E09093A4028093A3021092D4
:10048000A6021092A7021092A8021092A902089543
:10049000FC01818D228D90E0805C9F4F821B910931
:1004A0008F7399270895FC01918D828D981731F0F3
:1004B000828DE80FF11D858D90E008958FEF9FEFFD
:1004C0000895FC01918D828D981761F0828DDF0176
:1004D000A80FB11D5D968C91928D9F5F9F73928F37
:1004E00090E008958FEF9FEF08958BEF91E0892BB7
:1004F00049F080E090E0892B29F00E94FB018111F6
:100500000C9400000895FC01848DDF01A80FB11D3B
:10051000A35ABF4F2C91848D90E001968F73992739
:10052000848FA689B7892C93A089B1898C91806426
:100530008C93938D848D981306C00288F389E02DE7
:1005400080818F7D80830895CF93DF93EC01888D28
:100550008823C9F0EA89FB89808185FD05C0A889C7
:10056000B9898C9186FD0FC00FB607FCF5CF80814D
:1005700085FFF2CFA889B9898C9185FFEDCFCE0197
:100580000E948302E7CFDF91CF910895CF92DF924F
:10059000FF920F931F93CF93DF931F92CDB7DEB7D8
:1005A0006C0181E0D60158968C9358975B969C918C
:1005B0005B975C968C915C97981307C05096ED9171
:1005C000FC915197808185FD2EC0F601038D10E0CE
:1005D0000F5F1F4F0F731127F02EF601848DF81255
:1005E00011C00FB607FCF9CFD6015096ED91FC91E2
:1005F0005197808185FFF1CFC60169830E948302F4
:100600006981EBCF838DE80FF11DE35AFF4F6083C3
:10061000D6015B960C935B975296ED91FC915397A4
:10062000808180620CC0D6015696ED91FC9157975F
:1006300060835096ED91FC91519780818064808316
:1006400081E090E00F90DF91CF911F910F91FF908B
:10065000DF90CF900895BF92CF92DF92EF92FF92FA
:10066000CF93DF93EC016A017B01B22EE889F9890F
:1006700082E08083411581EE580761057105A1F084
:1006800060E079E08DE390E0A70196010E94D60832
:1006900021503109410951095695479537952795BC
:1006A000211580E1380798F0E889F989108260E81F
:1006B00074E88EE190E0A70196010E94D6082150CF
:1006C0003109410951095695479537952795EC858C
:1006D000FD853083EE85FF852083188EEC89FD89AA
:1006E000B082EA89FB89808180618083EA89FB8905
:1006F000808188608083EA89FB898081806880832B
:10070000EA89FB8980818F7D8083DF91CF91FF9083
:10071000EF90DF90CF90BF90089508950E946801F8
:100720000E948D030E94AA00C5E7D2E00E94C1008A
:100730002097E1F30E947502F9CFCF92DF92EF92FA
:10074000FF920F931F93CF93DF936C017A01EB011C
:10075000E60EF71E00E010E0CE15DF0561F06991AE
:10076000D601ED91FC910190F081E02DC601099533
:10077000080F191FF1CFC801DF91CF911F910F9181
:10078000FF90EF90DF90CF9008956115710581F093
:10079000DB010D900020E9F7AD0141505109461BE6
:1007A000570BDC01ED91FC910280F381E02D09945F
:1007B00080E090E008950C94C5036FE871E00C941C
:1007C000C5030F931F93CF93DF93EC010E94C503E2
:1007D0008C01CE010E94DD03800F911FDF91CF912C
:1007E0001F910F9108958F929F92AF92BF92CF92D7
:1007F000DF92EF92FF920F931F93CF93DF93CDB7CA
:10080000DEB7A1970FB6F894DEBF0FBECDBF7C0157
:10081000C42EE52FCB01D22E19A221E02D1510F008
:100820002AE0D22E8E010F5D1F4F8D2C912CA12C12
:10083000B12C6C2D7E2FA50194010E94D6088C2D21
:10084000D29E80191124015011098A3010F4805D64
:1008500001C0895CF80180832115310541055105EE
:1008600021F0C22EE32FCA01E4CFB801C7010E94D4
:10087000C503A1960FB6F894DEBF0FBECDBFDF91C2
:10088000CF911F910F91FF90EF90DF90CF90BF908D
:10089000AF909F908F9008952115310541F4DC01B0
:1008A000ED91FC910190F081E02D642F09940C945E
:1008B000F3039A01462F50E060E070E00C944C0482
:1008C0000F931F93CF93DF93EC019A01462F50E0D3
:1008D00060E070E00E944C048C01CE010E94DD03B8
:1008E000800F911FDF91CF911F910F9108959A0171
:1008F000AB0160E070E00C944C040F931F93CF9316
:10090000DF93EC019A01AB0160E070E00E944C04BF
:100910008C01CE010E94DD03800F911FDF91CF91EA
:100920001F910F9108950F931F93CF93DF93EC01C5
:100930000E944C048C01CE010E94DD03800F911FA8
:10094000DF91CF911F910F910895FC017183608316
:1009500008950F931F93CF93DF93EC0100E010E015
:1009600020E030E0A90167E070E0888199810E9471
:100970005E07888199810E94250540ED57E060E07F
:1009800070E0888199810E942F07009731F0FC0167
:10099000648175818681978103C060E070E0CB013E
:1009A000DF91CF911F910F910895CF93DF93EC01C9
:1009B0008A859B85603CA1F06B3D21F5DC01ED91C2
:1009C000FC910190F081E02D6BED09958A859B8566
:1009D000DC01ED91FC910190F081E02D6DED18C0EE
:1009E000DC01ED91FC910190F081E02D6BED09951A
:1009F0008A859B85DC01ED91FC910190F081E02DD1
:100A00006CED06C0DC01ED91FC910190F081E02DD0
:100A1000DF91CF910994EF92FF920F931F93CF93A1
:100A2000DF937C018A01EB01060F171FC017D10766
:100A300029F06991C7010E94D504F8CFDF91CF91C9
:100A40001F910F91FF90EF900895CF93DF93EC01EA
:100A5000BC01635F7F4F42E050E00E940B058A8536
:100A60009B85DC01ED91FC910190F081E02D60EC23
:100A7000DF91CF9109940F931F93CF93DF93EC01F4
:100A80008B01FC0141935193CF010E9497081B8772
:100A90000A8781E08C87CE014696988B8F8780E805
:100AA00090E09A8B898B1C8A1B8A1D8ADF91CF91DB
:100AB0001F910F910895FC012485222321F080814C
:100AC00091810C94E1030895462754274527542724
:100AD0009A01222784E0220F331F8A95E1F7242709
:100AE0003527C901892F992782958F7082279327EF
:100AF0009C01222755E0369527955A95E1F78227E4
:100B000093270895EF92FF920F931F93CF93DF9354
:100B10007C018A01C901EB01060F171FC017D1071D
:100B200031F06991AC01C7010E946405F7CFDF91F4
:100B3000CF911F910F91FF90EF900895AF92BF92C8
:100B4000CF92DF92EF92FF920F931F93CF93DF9399
:100B500000D000D000D0CDB7DEB78C01DC011F96ED
:100B6000ED90FC9050971C968C911C97882309F46B
:100B70007DC060EA71E08D919C910E94DB03F801D9
:100B8000638974894AE050E0808191810E947704F2
:100B90006AEA71E0D8018D919C910E94DB03F80113
:100BA00047855089662757FD6095762F20E130E014
:100BB000808191810E944C046EEC71E0D8018D918E
:100BC0009C910E94DB03F7016081718140E150E05C
:100BD000D8018D919C910E9477046FEC71E0F8012F
:100BE000808191810E94DB03D70114964D915D9124
:100BF0006D917C91179720E130E0F801808191811F
:100C00000E944C046FEC71E0D8018D919C910E9480
:100C1000DB03F7016281738140E150E0D8018D91DF
:100C20009C910E94770468E0C62ED12CF80123899C
:100C3000348980819181C216D306B0F46FEC71E0E3
:100C40000E94DB03D8011F96ED91FC915097EC0DAB
:100C5000FD1D40E150E060818D919C910E945904FE
:100C6000BFEFCB1ADB0AE2CF0E94DD03D801539617
:100C7000CD90DC905497B2E0CB1AD108F801A7844C
:100C8000B08820E030E0A601B501C8010E948205CD
:100C9000F501EC0DFD1D208131818217930731F0A4
:100CA0006DEA71E0C8010E945B056DC0D7012D910E
:100CB0003C91F801808191812230310541F023304F
:100CC0003105C9F02130310509F059C04BC06EEB38
:100CD00071E00E94DB03D70114964D915D916D91F7
:100CE0007C9117972AE030E0F801808191810E9481
:100CF0009304C7014AC067EC71E00E94DB03D7018F
:100D000014964D915D916D917C9117972AE030E09A
:100D1000F801808191810E944C046FEC71E0D80150
:100D20008D919C910E94DB03F701628173814AE0FF
:100D300050E0D8018D919C910E947D04F7010481BF
:100D40001581C8010E94C8088823E9F0B701CE01C7
:100D500001960E944E08BE016F5F7F4FC8010E943E
:100D6000A10811C061ED71E00E94E103D80118965D
:100D7000ED91FC911997309731F0099504C06CED15
:100D800071E00E94E10380E090E026960FB6F894AF
:100D9000DEBF0FBECDBFDF91CF911F910F91FF90AE
:100DA000EF90DF90CF90BF90AF9008951F93CF93B7
:100DB000DF93EC0111E08A859B85DC01ED91FC91CC
:100DC0000480F581E02D0995892B09F442C08A85BC
:100DD0009B85DC01ED91FC910680F781E02D099562
:100DE0008B3D910511F41D8BE6CF2B893C89803C0E
:100DF000910579F42830310520F0CE010E949E053E
:100E000002C080E090E01C8A1B8A1D8A009799F23C
:100E100022C04D89442361F08C3D910531F08D3D18
:100E2000910529F48BED90E002C080EC90E01D8AE2
:100E300049895A892417350708F0BDCFEF85F8890D
:100E4000A9014F5F5F4F5C8B4B8BE20FF31F8083D9
:100E5000B2CF80E090E0DF91CF911F9108958F9203
:100E60009F92AF92BF92CF92DF92EF92FF92CF9379
:100E7000DF93EC016A017B010E945C014B015C0184
:100E80000E945C01681979098A099B096C157D0526
:100E90008E059F0530F4CE010E94D606009781F39F
:100EA00002C080E090E0DF91CF91FF90EF90DF9063
:100EB000CF90BF90AF909F908F900895EF92FF9248
:100EC0000F931F93CF93DF93CDB7DEB728970FB65D
:100ED000F894DEBF0FBECDBF7C017A8369832B837C
:100EE0003C834D835E8318870F83DC011E961C9222
:100EF0001E921D971A968D919C911B97DC01ED9186
:100F0000FC910190F081E02D60EC099542E050E009
:100F1000BE016F5F7F4FC7010E940B05F70125855A
:100F2000368542E050E0BE016F5F7F4FC7010E94EF
:100F30008205D7011E969C938E931D9742E050E048
:100F4000BE01695F7F4FC7010E940B05F701258530
:100F5000368542E050E0BE01695F7F4FC7010E94C5
:100F60008205D7011E969C938E931D9744E050E016
:100F7000BE016D5F7F4FC7010E940B05F7012585FC
:100F8000368544E050E0BE016D5F7F4FC7010E948F
:100F90008205D7011E969C938E931D9728960FB6B7
:100FA000F894DEBF0FBECDBFDF91CF911F910F919F
:100FB000FF90EF9008956F927F928F929F92AF92E1
:100FC000BF92CF92DF92EF92FF920F931F93CF9336
:100FD000DF93EC014A015B018A859B85DC01ED9181
:100FE000FC910190F081E02D60EC09956E01B2E07A
:100FF000CB0ED11CEE24D7FCE094FE2C00E010E0D8
:10100000A701960161E070E0CE010E945E07CE016B
:101010000E9425050885198519861886B501A40141
:10102000CE010E942F073C01009731F1F30144816A
:10103000558166817781888199814C155D056E05A2
:101040007F0541F466ED71E00E94E103198708878E
:1010500081E015C062EE71E00E94DB03D3011496BB
:101060004D915D916D917C9117972AE030E08881D8
:1010700099810E949304D2CF1987088780E0DF917D
:10108000CF911F910F91FF90EF90DF90CF90BF9085
:10109000AF909F908F907F906F900895FC01758323
:1010A0006483685F7F4F7383628311821082089527
:1010B0000F931F93CF93DF93FC01A081B181C48173
:1010C000D5818A819B81A817B90750F5C281D38148
:1010D000299139918EEF9FEF821B930B8370992793
:1010E000D383C2831196B183A0838E01EB01DA0111
:1010F0002417350708F4D9016A0F7B1FC617D707D5
:1011000029F0D8014D918D014993F8CF820F931F9B
:1011100042815381480F591F53834283C90102C042
:101120008FEF9FEFDF91CF911F910F910895FC01F9
:1011300011821082138212820895FC0173836283EC
:101140000895DC011296ED91FC9113973097F9F018
:101150002D913C91119721153105B9F014968D917F
:101160009C911597AC015595479580FF0AC0D90110
:10117000A40FB51F0D90BC91A02DAE0FBF1FED9118
:10118000FC91C901840F951F0994CB01099408951E
:10119000FC0180819181892B39F481E022813381A6
:1011A000232B19F480E0089581E00895A1E21A2E1E
:1011B000AA1BBB1BFD010DC0AA1FBB1FEE1FFF1FFB
:1011C000A217B307E407F50720F0A21BB30BE40B4B
:1011D000F50B661F771F881F991F1A9469F7609592
:1011E0007095809590959B01AC01BD01CF0108954C
:1011F000EE0FFF1F0590F491E02D0994F894FFCFB6
:1012000000002A038000454C2D436C69656E7420F4
:101210002872652D297374617274696E67210045A7
:101220004C2D436C69656E742073796E6320666122
:10123000696C65642100454C2D436C69656E7420B2
:1012400073796E63656421005749464920434F4EC8
:101250004E45435445440057494649204E4F54207B
:1012600052454144593A200072657175657374693D
:101270006E672074696D650054696D653A200000E1
:10128000000000C6029D03480261025302A4020D41
:101290000A006E616E00696E66006F7666002E0051
:1012A000454C433A20676F742000204000454C4372
:1012B0003A20496E76616C6964204352430052457E
:1012C00053505F563A2000524553505F43423A20F4
:1012D000004E4545445F53594E432100434D443F22
:0812E0003F004241443A2000A6
:00000001FF
