:100000000C9463000C948B000C948B000C948B006C
:100010000C948B000C948B000C948B000C948B0034
:100020000C948B000C948B000C948B000C948B0024
:100030000C948B000C948B000C948B000C948B0014
:100040000C94EE060C948B000C94D9070C942708A2
:100050000C948B000C948B000C948B000C948B00F4
:100060000C948B000C948B000000000024002700EF
:100070002A0000000000250028002B0000000000DE
:1000800023002600290004040404040404040202DA
:100090000202020203030303030301020408102007
:1000A0004080010204081020010204081020000012
:1000B0000007000201000003040600000000000029
:1000C00000001505930911241FBECFEFD8E0DEBF55
:1000D000CDBF12E0A0E0B1E0E2E3F7E202C005909C
:1000E0000D92A83AB107D9F715E0A8EAB2E001C02D
:1000F0001D92A339B107E1F710E0C6ECD0E004C0CF
:100100002297FE010E945C13C23CD107C9F70E94EE
:10011000E9090C9497130C940000CF93DF93BC0172
:100120008230910510F462E070E0A0919105B091E9
:100130009205ED0140E050E0E0E0F0E021C0888170
:1001400099818617970769F48A819B81309719F006
:100150009383828304C09093920580939105FE015E
:1001600034C06817790738F44115510519F0841720
:10017000950708F4AC01FE018A819B819C01E9018D
:100180002097E9F641155105A9F1CA01861B970B85
:10019000049708F4BA01E0E0F0E02AC08D919C9148
:1001A000119784179507F9F46417750781F412966F
:1001B0008D919C911397309719F09383828304C09B
:1001C0009093920580939105FD0132964CC0CA012F
:1001D000861B970BFD01E80FF91F6193719302973E
:1001E0008D939C9340C0FD01828193819C01D90134
:1001F0001097A1F680918F0590919005892B41F47D
:1002000080919302909194029093900580938F0532
:1002100040919502509196024115510541F44DB718
:100220005EB78091910290919202481B590B2091E8
:100230008F0530919005CA01821B930B8617970793
:1002400080F0AB014E5F5F4F8417950750F0420F6F
:10025000531F5093900540938F05F901619371935B
:1002600002C0E0E0F0E0CF01DF91CF910895CF939D
:10027000DF93009709F450C0EC0122971B821A8289
:10028000A0919105B0919205109709F140E050E0DE
:10029000AC17BD0708F1BB83AA83FE012191319100
:1002A000E20FF31FAE17BF0779F48D919C91119760
:1002B000280F391F2E5F3F4F3983288312968D9167
:1002C0009C9113979B838A834115510571F4D093B8
:1002D0009205C093910520C012968D919C91139721
:1002E000AD01009711F0DC01D3CFFA01D383C283B3
:1002F00021913191E20FF31FCE17DF0769F4888156
:100300009981280F391F2E5F3F4FFA0131832083D7
:100310008A819B8193838283DF91CF910895A0E0AE
:10032000B0E0E5E9F1E00C9462136C01009729F468
:10033000CB010E948D006C01C1C08EEF882E8FEF23
:10034000982E8C0C9D1C8601060F171F0815190589
:1003500008F4B2C0F401A081B181A617B707B8F0C4
:10036000A530B10508F4AAC0CD01049786179707F8
:1003700008F4A4C01297A61BB70BF801A193B19380
:10038000D4016D937C93CF010E94370197C07B010C
:10039000EA1AFB0AEEEFFFEFEE0EFF1E36016A0EC1
:1003A0007B1EC0919105D0919205AA24BB244424C0
:1003B00055244AC0C615D705E1F5488159814E1527
:1003C0005F05B8F1CA0104978E159F05B0F4129627
:1003D000A40FB51FF401B183A0832A813B8141148E
:1003E000510431F0D20113963C932E93129766C0BC
:1003F000309392052093910561C08A819B81F80119
:1004000093838283425050404E195F095183408349
:100410004114510431F0D20113961C930E9312979C
:1004200004C01093920500939105F40171836083D9
:1004300045C088819981A816B90608F45C012E018F
:100440008A819B819C01E901209709F0B3CF8091BB
:100450008F059091900586159705E9F4A616B706C5
:10046000D0F420919502309196022115310541F486
:100470002DB73EB78091910290919202281B390BC3
:1004800002171307C8F41093900500938F05D40149
:100490006D937C9313C0CB010E948D00EC010097FB
:1004A00059F0F40140815181B6010E946402C601F5
:1004B0000E9437016E0102C0CC24DD24C601CDB7F5
:1004C000DEB7E0E10C947E13FB01DC0102C0019079
:1004D0000D9241505040D8F70895FB01DC01019086
:1004E0000D920020E1F70895AEE0B0E0EAE7F2E017
:1004F0000C946E130D891E8986E08C831A83098300
:100500008FEF9FE79E838D839E01275E3F4FCE0135
:1005100001966F89788DA9010E9498022F813885F4
:10052000020F131FF80110822E96E4E00C948A1338
:10053000ABE0B0E0EEE9F2E00C9460133C012B017B
:100540005A01FC0117821682838181FD03C06FEF7F
:100550007FEFC6C19AE0892E1E010894211C311C30
:10056000F3012381F20123FD859123FF81912F0166
:10057000882309F4B2C1853239F423FD859123FF24
:1005800081912F01853229F490E0B3010E948B0400
:10059000E7CF982FFF24EE249924FFE1FF15D0F038
:1005A0009B3269F09C3228F4903259F0933291F4E6
:1005B0000EC09D3249F0903369F441E024C052E00E
:1005C000F52A84E0F82A28C098E0F92A25C0E0E15D
:1005D000FE2A22C0F7FC29C0892F80538A3070F48C
:1005E000F6FE05C0989C902C1124980E15C0E89C2E
:1005F000E02C1124E80EF0E2FF2A0EC09E3229F40E
:10060000F6FC6BC140E4F42A07C09C3619F450E8AC
:10061000F52A02C0983649F4F20123FD959123FF93
:1006200091912F01992309F0B8CF892F85548330F8
:1006300018F08052833038F444E050E0A40EB51E28
:100640005FE359830FC0933631F0933779F09335D8
:1006500009F056C020C0F5018081898342E050E056
:10066000A40EB51E610101E010E012C0F501C080CA
:10067000D180F6FC03C06FEF7FEF02C0692D70E000
:1006800042E050E0A40EB51EC6010E9480048C0119
:100690005FE7F52214C0F501C080D180F6FC03C0ED
:1006A0006FEF7FEF02C0692D70E042E050E0A40ED2
:1006B000B51EC6010E9475048C0150E8F52AF3FEB0
:1006C00007C01AC080E290E0B3010E948B04EA9454
:1006D0008E2D90E008171907A8F30EC0F601F7FC5D
:1006E0008591F7FE81916F0190E0B3010E948B0428
:1006F000E110EA94015010400115110579F7EAC0A4
:10070000943611F0993669F5F7FE08C0F50120819D
:1007100031814281538184E090E00AC0F5018081FB
:1007200091819C01442737FD4095542F82E090E051
:10073000A80EB91E9FE6F92257FF09C050954095B3
:10074000309521953F4F4F4F5F4FE0E8FE2ACA0199
:10075000B901A1012AE030E00E94B704D82ED218D6
:1007600040C0953729F41F2D1F7E2AE030E01DC0C0
:100770001F2D197F9F3661F0903720F4983509F0CE
:10078000ACC00FC0903739F0983709F0A6C004C04C
:1007900028E030E00AC0106114FD146020E130E070
:1007A00004C014FD166020E132E017FF08C0F50117
:1007B000608171818281938144E050E008C0F5013D
:1007C00080819181BC0180E090E042E050E0A40E85
:1007D000B51EA1010E94B704D82ED2188FE7F82EBB
:1007E000F122F6FE0BC05EEFF522D91438F4F4FEC8
:1007F00007C0F2FC05C08FEEF82202C01D2D01C01B
:10080000192DF4FE0DC0FE01ED0DF11D8081803328
:1008100019F499EEF92208C01F5FF2FE05C003C06B
:100820008F2D867809F01F5F0F2DF3FC14C0F0FEAA
:100830000FC01E1510F09D2C0BC09D2C9E0C911A04
:100840001E2D06C080E290E0B3010E948B041F5F62
:100850001E15C0F304C01E1510F4E11A01C0EE24E9
:1008600004FF0FC080E390E0B3010E948B0402FFFD
:100870001DC001FD03C088E790E00EC088E590E050
:100880000BC0802F867891F001FF02C08BE201C07F
:1008900080E2F7FC8DE290E0B3010E948B0406C079
:1008A00080E390E0B3010E948B049A94D914C0F3C2
:1008B000DA94F101ED0DF11D808190E0B3010E9409
:1008C0008B04DD20A9F706C080E290E0B3010E940E
:1008D0008B04EA94EE20C1F743CEF3016681778161
:1008E000CB012B96E2E10C947C13FC010590615046
:1008F00070400110D8F7809590958E0F9F1F089536
:10090000FC016150704001900110D8F780959095DE
:100910008E0F9F1F08950F931F93CF93DF938C012A
:10092000EB018B8181FF1BC082FF0DC02E813F81B7
:100930008C819D812817390764F4E881F98101933E
:10094000F983E88306C0E885F985802F0995892B0E
:1009500031F48E819F8101969F838E8302C00FEFB9
:100960001FEFC801DF91CF911F910F910895FA01F8
:10097000AA27283051F1203181F1E8946F936E7FDE
:100980006E5F7F4F8F4F9F4FAF4FB1E03ED0B4E0CF
:100990003CD0670F781F891F9A1FA11D680F791F10
:1009A0008A1F911DA11D6A0F711D811D911DA11D21
:1009B00020D009F468943F912AE0269F1124301931
:1009C000305D3193DEF6CF010895462F4770405DCC
:1009D0004193B3E00FD0C9F7F6CF462F4F70405D7B
:1009E0004A3318F0495D31FD4052419302D0A9F7D6
:1009F000EACFB4E0A6959795879577956795BA95D0
:100A0000C9F700976105710508959B01AC010A2E95
:100A100006945795479537952795BA95C9F7620F6C
:100A2000731F841F951FA01D08950F931F9308EA3D
:100A300012E0C8016DE675E044E050E00E94E00C71
:100A400084EC94E0B8010E943C121F910F9108952C
:100A50001F93182F80528E35E0F08DE695E060E010
:100A600071E00E94F60A612F62956F706A3010F093
:100A7000695C01C0605D8DE695E00E94220A612FED
:100A80006F706A3010F0695C01C0605D8DE695E0C2
:100A900003C08DE695E0612F0E94220A1F91089500
:100AA0008F929F92AF92BF92CF92DF92EF92FF927E
:100AB0000F931F93DF93CF93CDB7DEB7CA54D140C6
:100AC0000FB6F894DEBF0FBECDBF88EA92E00E9459
:100AD0002B0F8091D704882309F4BFC00E943607EA
:100AE0004B015C018DB79EB708970FB6F8949EBF77
:100AF0000FBE8DBFEDB7FEB731968E010F5F1F4F52
:100B0000ADB7BEB712961C930E93119783E091E098
:100B1000938382838091D8049091D904A091DA04C0
:100B2000B091DB0484839583A683B7830E9474020B
:100B3000EDB7FEB738960FB6F894FEBF0FBEEDBF07
:100B40008DE695E06FE271E00E94F60A8DE695E091
:100B5000B8010E94F90A84EC94E0B8010E94841163
:100B600081E4C82ED12CCC0EDD1E84EC94E0B601BD
:100B70004AE051E00E945E108C01883C910549F5E5
:100B80008DE695E062E471E00E94F90A8DE695E059
:100B90006AE571E00E94F60AD6010D900020E9F79F
:100BA0007D010894E108F108EC18FD0800E010E070
:100BB00008C0F601E00FF11F80810E9428050F5F39
:100BC0001F4F0E151F05ACF38DE695E06AE671E048
:100BD00006C0009739F48DE695E06DE671E00E945D
:100BE000F90A0DC08DE695E064E871E00E94F60A0E
:100BF0008DE695E0B8014AE050E00E94D90A0E94D3
:100C00003607681979098A099B096093D80470939B
:100C1000D9048093DA049093DB048DE695E06AE9C9
:100C200071E00E94F60A4091D8045091D904609175
:100C3000DA047091DB048DE695E02AE030E00E9452
:100C4000CA0A8DE695E069EA71E00E94F90A68EB4C
:100C50007BE080E090E00E94440764E670E080E082
:100C600090E00E944407C65BDE4F0FB6F894DEBFEB
:100C70000FBECDBFCF91DF911F910F91FF90EF90ED
:100C8000DF90CF90BF90AF909F908F9008958DE6AA
:100C900095E040E052EC61E070E00E9462086AE09A
:100CA00070E080E090E00E9444078DE695E06CEAF9
:100CB00071E00E94F90A88EA92E00E94C60C6AE09C
:100CC00070E080E090E00E94440788EA92E00E9491
:100CD000F60D6AE070E080E090E00AC08DE695E0F5
:100CE0006EEB71E00E94F90A68EE73E080E090E03C
:100CF0000E94440788EA92E00E94BF0F882371F3A4
:100D00008DE695E068ED71E00E94F90A84EC94E0CC
:100D100063EF71E00E943612882339F48DE695E086
:100D200066E072E00E94F90AFFCF8DE695E06BE283
:100D300072E00E94F90A8AEA92E06FEA76E00E9485
:100D40001F1088EA92E06FE372E0AB010E94190E77
:100D50008DE695E060E472E00E94F90A08950F9331
:100D60001F93DF93CF93CDB7DEB72A970FB6F894D2
:100D7000DEBF0FBECDBFBC018E010B5F1F4FC80190
:100D80000E94ED0BC8010E94F70B0197E1F4C80126
:100D9000BE016F5F7F4F44E050E00E94FF0B8981EE
:100DA0009A81AB81BC810597A105B10551F48DE60F
:100DB00095E068E572E00E94F90A81E08093D7042B
:100DC00002C01092D7042A960FB6F894DEBF0FBE69
:100DD000CDBFCF91DF911F910F9108951F920F9278
:100DE0000FB60F9211242F933F938F939F93AF933E
:100DF000BF938091E0049091E104A091E204B0914E
:100E0000E3043091E4040196A11DB11D232F2D5F51
:100E10002D3720F02D570196A11DB11D2093E4041C
:100E20008093E0049093E104A093E204B093E30480
:100E30008091DC049091DD04A091DE04B091DF0488
:100E40000196A11DB11D8093DC049093DD04A09355
:100E5000DE04B093DF04BF91AF919F918F913F91DA
:100E60002F910F900FBE0F901F9018958FB7F89489
:100E70002091E0043091E1044091E2045091E304B8
:100E80008FBFB901CA0108959B01AC017FB7F894E7
:100E90008091DC049091DD04A091DE04B091DF0428
:100EA00066B5A89B05C06F3F19F00196A11DB11D45
:100EB0007FBFBA2FA92F982F8827860F911DA11DBC
:100EC000B11D62E0880F991FAA1FBB1F6A95D1F759
:100ED000BC012DC0FFB7F8948091DC049091DD0433
:100EE000A091DE04B091DF04E6B5A89B05C0EF3FFA
:100EF00019F00196A11DB11DFFBFBA2FA92F982F80
:100F000088278E0F911DA11DB11DE2E0880F991F4A
:100F1000AA1FBB1FEA95D1F7861B970B885E9340EB
:100F2000C8F2215030404040504068517C4F21155C
:100F300031054105510571F60895789484B58260B4
:100F400084BD84B5816084BD85B5826085BD85B56D
:100F5000816085BDEEE6F0E0808181608083E1E81C
:100F6000F0E0108280818260808380818160808354
:100F7000E0E8F0E0808181608083E1EBF0E0808157
:100F800084608083E0EBF0E0808181608083EAE729
:100F9000F0E08081846080838081826080838081B2
:100FA000816080838081806880831092C100089571
:100FB00008951F920F920FB60F9211242F933F9313
:100FC0004F938F939F93EF93FF938091C00082FD87
:100FD0001DC04091C60020912505309126052F5F48
:100FE0003F4F2F7330708091270590912805281767
:100FF000390771F0E0912505F0912605EB51FB4F83
:101000004083309326052093250502C08091C600B9
:10101000FF91EF919F918F914F913F912F910F9061
:101020000FBE0F901F901895E0917905F0917A0509
:10103000E05CFF4F8191919120813181821B930B64
:101040008F739070892B11F00E94D80708951F921A
:101050000F920FB60F9211242F933F938F939F936C
:10106000EF93FF932091690530916A0580916B059C
:1010700090916C052817390731F48091C1008F7D5C
:101080008093C10014C0E0916B05F0916C05E75DA1
:10109000FA4F208180916B0590916C0501968F73BA
:1010A000907090936C0580936B052093C600FF9120
:1010B000EF919F918F913F912F910F900FBE0F90C5
:1010C0001F901895AF92BF92DF92EF92FF920F930D
:1010D0001F93CF93DF93EC017A018B01DD24403025
:1010E00081EE580780E0680780E0780711F0DD2482
:1010F000D39491E0A92EB12CEC89FD89DD2069F013
:10110000C50108A002C0880F991F0A94E2F78083E6
:1011100060E079E08DE390E005C0108260E874E85B
:101120008EE190E0A80197010E94381321503040D1
:1011300040405040569547953795279580E120309F
:10114000380720F0DD2011F0DD24D6CFE889F989B9
:101150003083EA89FB89208319A2EE89FF894081C7
:1011600021E030E0C9010C8C02C0880F991F0A945D
:10117000E2F7482B4083EE89FF894081C9010D8C3D
:1011800002C0880F991F0A94E2F7482B4083EE892A
:10119000FF894081C9010E8C02C0880F991F0A94F3
:1011A000E2F7482B4083EE89FF8980810F8C02C0D3
:1011B000220F331F0A94E2F7209528232083DF9122
:1011C000CF911F910F91FF90EF90DF90BF90AF9064
:1011D0000895DC011C96ED91FC911D97E05CFF4F9A
:1011E0002191319180819181281B390B2F733070AF
:1011F000C9010895DC011C96ED91FC911D97E05CFE
:10120000FF4F20813181E054F040DF01AE5BBF4FE2
:101210008D919C9111972817390719F42FEF3FEF03
:1012200007C08D919C91E80FF91F8081282F30E035
:10123000C9010895DC011C96ED91FC911D97E05CBD
:10124000FF4F20813181E054F040DF01AE5BBF4FA2
:101250008D919C9111972817390719F42FEF3FEFC3
:1012600010C08D919C911197E80FF91F20818D91ED
:101270009C91119701968F73907011969C938E9309
:1012800030E0C9010895DC0191968C9191978823F3
:1012900039F05496ED91FC915597808186FFF9CFF6
:1012A00091961C920895CF93DF93EC01EE85FF8514
:1012B000E05CFF4F20813181E054F0402F5F3F4FD1
:1012C0002F733070DF01AE5BBF4F8D919C911197F2
:1012D00028173907D1F3E05CFF4F80819181E054FA
:1012E000F040E80FF91F6083EE85FF85E05CFF4F5B
:1012F00031832083EE89FF89208181E090E00F8C8B
:1013000002C0880F991F0A94E2F7282B208381E0FE
:1013100089A3EC89FD8980818064808381E090E0ED
:10132000DF91CF9108951092700510926F0588EEAD
:1013300093E0A0E0B0E08093710590937205A093D4
:101340007305B09374058BE992E090936E058093DA
:101350006D0585EE94E090937A058093790589E296
:1013600095E090937C0580937B0585EC90E09093CD
:101370007E0580937D0584EC90E0909380058093BA
:101380007F0580EC90E0909382058093810581EC4D
:1013900090E0909384058093830582EC90E0909395
:1013A00086058093850586EC90E090938805809370
:1013B000870584E08093890583E080938A0587E030
:1013C00080938B0585E080938C0581E080938D056B
:1013D0000895CF93DF930E949D070E944706C4E1C2
:1013E000D8E00E9450052097E1F30E941408F9CF3D
:1013F000CF92DF92EF92FF920F931F93CF93DF93E1
:101400007C016B018A01C0E0D0E00FC0D6016D9174
:101410006D01D701ED91FC910190F081E02DC701A4
:101420000995C80FD91F015010400115110571F71A
:10143000CE01DF91CF911F910F91FF90EF90DF9040
:10144000CF900895DC01ED91FC910190F081E02DA9
:1014500009950895EF92FF920F931F938C01DC0181
:10146000ED91FC910190F081E02D6DE009957C01FA
:10147000D801ED91FC910190F081E02DC8016AE066
:1014800009959C012E0D3F1DC9011F910F91FF90E1
:10149000EF900895CF93DF93EC016115710519F476
:1014A00020E030E00FC0DB010D900020E9F711973C
:1014B000A61BB70BE881F9810280F381E02DAD0115
:1014C00009959C01C901DF91CF9108954F925F92D8
:1014D0007F928F929F92AF92BF92CF92DF92EF92C4
:1014E000FF920F931F93DF93CF93CDB7DEB7A197F2
:1014F0000FB6F894DEBF0FBECDBF2C01742ECB010A
:10150000223008F42AE019A231E2C32ED12CCC0EED
:10151000DD1E822E9924AA24BB24672D752FA501D8
:1015200094010E94381379018A01C801B701A5010D
:1015300094010E941913472D461B0894C108D10835
:101540004A3010F4405D01C0495CF6014083E1146B
:10155000F1040105110521F07E2C5F2DC801DDCFBE
:10156000C201B6010E944A0AA1960FB6F894DEBFE6
:101570000FBECDBFCF91DF911F910F91FF90EF90E4
:10158000DF90CF90BF90AF909F908F907F905F90B3
:101590004F900895DC012115310541F4ED91FC9146
:1015A0000190F081E02D642F099508950E94660A4C
:1015B0000895CF92DF92EF92FF920F931F936C01E9
:1015C0007B019A0100E010E0B801A7010E94CA0A5D
:1015D0008C01C6010E942A0A080F191FC8011F9119
:1015E0000F91FF90EF90DF90CF9008950E944A0AEC
:1015F0000895EF92FF920F931F937C010E944A0A75
:101600008C01C7010E942A0A080F191FC8011F91E7
:101610000F91FF90EF900895AF92BF92CF92DF921B
:10162000EF92FF920F931F93CF93DF935C016B01B7
:10163000EE24FF24C0E0D0E010C0D501ED91FC9174
:1016400000811181C601BE010E94530B682FC501A4
:10165000F8010995E80EF91E2196F601848195811D
:10166000C817D90750F3C701DF91CF911F910F9190
:10167000FF90EF90DF90CF90BF90AF900895EF92E2
:10168000FF920F931F937C010E940C0B8C01C701EA
:101690000E942A0A9C01200F311FC9011F910F913E
:1016A000FF90EF900895FC01848195816817790778
:1016B00048F40190F081E02D309721F0E60FF71FFC
:1016C0008081089580E008950F931F93CF93DF9357
:1016D000EC018B016F5F7F4F888199810E948F01A0
:1016E000009711F480E005C0998388831B830A83E7
:1016F00081E0DF91CF911F910F910895CF93DF93F8
:10170000EC0188819981892B29F08A819B81861738
:10171000970760F4CE010E94640B882341F08C810E
:101720009D81892B19F4E881F981108281E0DF9194
:10173000CF910895CF93DF93EC0188819981009731
:1017400011F00E943701198218821D821C821B82AF
:101750001A82DF91CF910895EF92FF920F931F931A
:10176000CF93DF93EC017B018A01BA010E947E0BCB
:10177000882321F4CE010E949A0B07C01D830C839D
:1017800088819981B7010E946D02CE01DF91CF91CE
:101790001F910F91FF90EF900895CF93DF93EC018D
:1017A000198218821B821A821D821C821E82611578
:1017B000710551F0DB010D900020E9F71197A61B90
:1017C000B70BAD010E94AC0BDF91CF910895FC01E6
:1017D000808191810E9437010895FC01CB017583BE
:1017E00064830C9693838283118210820895DC01B6
:1017F0001496ED91FC9115978285938508950F932A
:101800001F93CF93DF93DC01EB018A011496ED91D6
:10181000FC9115972D913C911197828593852817FE
:10182000390728F02FEF3FEF4FEF5FEF34C01296EC
:10183000ED91FC911397619171911396FC93EE9346
:101840001297AB0120E030E01AC01296ED91FC91A6
:101850001397819188831396FC93EE9312972F5FD1
:101860003F4F415050400217130740F48D919C9117
:10187000119701968D939C9398010BC02196411569
:10188000510519F78D919C91119701968D939C9319
:101890009B0140E050E0B901CA01DF91CF911F9157
:1018A0000F9108951F93CF93DF93EC01162F862F8E
:1018B0008D57AF85B8898330A8F4ED91FC911197CD
:1018C0000190F081E02DCD016DE70995EF85F88954
:1018D000A081B18160E261272D913C91CF01F90196
:1018E000099508C0ED91FC9111970190F081E02DD0
:1018F000CD010995DF91CF911F910895EF92FF924D
:101900000F931F93CF93DF937C018B01EA0107C0F4
:10191000F80161918F01C7010E94520C2197209715
:10192000B9F7DF91CF911F910F91FF90EF9008953C
:101930000F931F93DF93CF9300D0CDB7DEB78C0109
:101940007A836983BE016F5F7F4F42E050E00E945F
:101950007E0CD8011F96ED91FC915097A081B1812A
:101960002D913C91CF016FE7F90109950F900F90F0
:10197000CF91DF911F910F910895FC0181898823F8
:1019800021F0808191810E943F0B0895FC01E65E69
:10199000FD4F808161E00E9498120895FC014A96F3
:1019A000938B828B80E092E0958B848B178A168ACA
:1019B000108EE65EFD4F808161E00E94591208950D
:1019C000CF92DF92EF92FF920F931F938C017B01D6
:1019D0006A0102960E941910F801F08AE786065EF5
:1019E0001D4FF801D182C0820A511240F801118ABC
:1019F000C8010E94CE0C1F910F91FF90EF90DF90D5
:101A0000CF9008958F929F92AF92BF92CF92DF9224
:101A1000EF92FF920F931F93DF93CF9300D00F921B
:101A2000CDB7DEB75C014B016A017901A9014F5FB7
:101A30005F4FC90183709070892B11F09A01F6CF26
:101A40003B832A8319828E010E5F1F4FC501B801A7
:101A500042E050E00E947E0CC80162E070E0A40108
:101A60000E94EC128C0119C0C501F60160810E9430
:101A7000520CC60161E070E0A8010E94EC128C01DA
:101A80008A819B81009719F001979B838A83089430
:101A9000C11CD11C0894E108F108E114F10421F7FC
:101AA0000FC0698101979B838A83C5010E94520CF4
:101AB000C70161E070E0A8010E94EC128C0104C033
:101AC0007E010894E11CF11C8A819B81009749F7F3
:101AD000C8010F900F900F90CF91DF911F910F9140
:101AE000FF90EF90DF90CF90BF90AF909F908F903E
:101AF0000895AF92BF92CF92DF92EF92FF920F9331
:101B00001F93DF93CF93CDB7DEB72C970FB6F89422
:101B1000DEBF0FBECDBF5C017A8369832B833C831C
:101B20004D835E83EF82F88609871A87DC86CB8631
:101B3000DC011F96ED91FC915097A081B1812D9110
:101B40003C91CF016EE7F9010995C5018E010F5F48
:101B50001F4FB80142E050E00E947E0CC80162E0D5
:101B600070E040E050E00E94EC127C018E010D5FBD
:101B70001F4FC501B80144E050E00E947E0CC8012F
:101B800064E070E0A7010E94EC127C018E01095F05
:101B90001F4FC501B80144E050E00E947E0CC8010F
:101BA00064E070E0A7010E94EC127C018E01055FE9
:101BB0001F4FC501B80142E050E00E947E0CC801F1
:101BC00062E070E0A7010E94EC122C960FB6F89428
:101BD000DEBF0FBECDBFCF91DF911F910F91FF9060
:101BE000EF90DF90CF90BF90AF900895AF92BF92EB
:101BF000CF92DF92EF92FF920F931F935C0161E00F
:101C000070E020E030E040E050E0EE24FF24870167
:101C1000CC24DD240E94790DBC01C5010E94980CE2
:101C20001F910F91FF90EF90DF90CF90BF90AF90FA
:101C300008956F927F928F929F92AF92BF92CF92B0
:101C4000DF92EF92FF920F931F935C01962E872EE7
:101C5000742E652E82E090E0A80EB91E95014427EF
:101C600037FD4095542F8EEF9FEFA80EB91EC5018A
:101C700063E070E0EE24FF248701E2E0CE2ED12C59
:101C80000E94790DBC01E92DF82DDF010D90002097
:101C9000E9F71197AE1BBF0BC501492D582D9D01CA
:101CA0000E94020DBC01E72DF62DDF010D900020F2
:101CB000E9F71197AE1BBF0BC501472D562D9D01AE
:101CC0000E94020DBC01C5010E94980C1F910F914A
:101CD000FF90EF90DF90CF90BF90AF909F908F904C
:101CE0007F906F9008954F925F926F927F928F9244
:101CF0009F92AF92BF92CF92DF92EF92FF920F939B
:101D00001F93DF93CF93CDB7DEB727970FB6F89425
:101D1000DEBF0FBECDBF5C01FC01C288D388F601D7
:101D2000628473848601045F1F4FC6016CE070E01B
:101D300040E050E00E94EC12AC0122C0C80162E019
:101D400070E00E94EC12AC01F2E04F2E512C400EDC
:101D5000511E720184010BC0C70161E070E00E9456
:101D6000EC12AC010894E11CF11C0150104001156B
:101D7000110591F78201080D191D08946108710879
:101D8000F8018080918061147104C1F648155905ED
:101D900081F08E010F5F1F4FC80167E672E00E945D
:101DA000CD0BC501B8010E94BD0CC8010E94E70B14
:101DB0003BC0F601E280F38004811581E114F10457
:101DC00001051105C9F080819181F501958784870E
:101DD000F60186819781A085B185F501808791877D
:101DE000A287B387C7010E944B108823E9F0C7017F
:101DF000B6010E94231018C0F60182859385892BB5
:101E000099F481E0F5018687F60180819181F501E1
:101E100095878487F60186819781A085B185F50134
:101E200080879187A287B38727960FB6F894DEBF85
:101E30000FBECDBFCF91DF911F910F91FF90EF901B
:101E4000DF90CF90BF90AF909F908F907F906F90DA
:101E50005F904F9008950F931F93CF93DF93EC0102
:101E600011E000E243C0EF85F889A081B1811696A8
:101E70002D913C911797CF01F9010995682F8E3765
:101E800031F08F3749F08D3761F4188F2FC01F8ADA
:101E90001E8A188E198F2AC0CE010E94730E198EC9
:101EA00025C0898D882369F489898823F9F0E88120
:101EB000F981A081B1812D913C91CF01F901099562
:101EC00015C0888D882311F06027188E2E893F89D0
:101ED0008C899D892817390748F4EA89FB89E20F24
:101EE000F31F60832F5F3F4F3F8B2E8BEF85F88969
:101EF000A081B18114962D913C911597CF01F901E4
:101F00000995892B09F0AFCFDF91CF911F910F91E8
:101F10000895AF92BF92CF92DF92EF92FF920F930C
:101F20001F93CF93DF93EC015A016B011E86188635
:101F300019861A861B861D861C860E9436077B0121
:101F40008C018E85882379F40E9436076E197F09EB
:101F5000800B910B6A157B058C059D0520F4CE0145
:101F60000E942B0FEECF8E85DF91CF911F910F91A5
:101F7000FF90EF90DF90CF90BF90AF900895BF9209
:101F8000CF92DF92EF92FF920F931F93CF93DF9345
:101F9000EC01B5E0BB2E39C01E86188619861A865C
:101FA0001B86CE0162E070E020E030E040E050E0CF
:101FB000A1E0EA2EF12C012D112DCC24DD240E946C
:101FC000790DBC01CE010E94980C0E9436077B015E
:101FD0008C018E85882349F50E9436076E197F098A
:101FE000800B910B685E734080409040F0F4CE010E
:101FF0000E942B0FEECF88859985AA85BB85009717
:10200000A105B10511F081E006C0BA948FEFB816B2
:1020100009F0C2CF80E0DF91CF911F910F91FF9027
:10202000EF90DF90CF90BF9008958E85882319F7A9
:10203000ECCFFC0111821082138212820895FC0100
:10204000738362830895FC01228133812115310558
:1020500009F14081518141155105C9F08481958173
:1020600080FF0EC0FC01F595E795E40FF51F019088
:10207000F081E02DE20FF31F0190F081E02D01C00F
:10208000F90195958795840F951F09950895CB01C2
:10209000F90109950895FC0180819181892B29F42A
:1020A00020E082819381892B09F021E0822F08951D
:1020B000FC0181E0808B728B618B08956F927F921F
:1020C0008F929F92AF92BF92CF92DF92EF92FF9248
:1020D0000F931F93DF93CF9300D000D000D0CDB7E4
:1020E000DEB77C013B014A01DC0150961C920E9444
:1020F00036075B016C01F7018089882309F056C01F
:102100000E9436076A197B098C099D09D70114962C
:102110002D913D914D915C9117976217730784073C
:10212000950708F043C018968D919C9119970E94CD
:102130002B0FE1CFF701618972898E010F5F1F4F6D
:10214000C8010E94ED0BC801B301A4010E94FF0B5E
:102150009B01AC01C401A0E0B0E0281739074A0791
:102160005B0710F4F90102C0F4013197E60DF71D89
:102170001082D7011896ED91FC9119972085318531
:10218000C90126960FB6F894DEBF0FBECDBFCF9122
:10219000DF911F910F91FF90EF90DF90CF90BF9054
:1021A000AF909F908F907F906F900895F7018089F6
:1021B000882309F0BFCF20E030E0E2CF4F925F925A
:1021C0006F927F928F929F92AF92BF92CF92DF9247
:1021D000EF92FF920F931F93DF93CF9300D0CDB771
:1021E000DEB75C01562E472E942E852E39011A83B8
:1021F0000983FC0180819181A281B3810097A105AF
:10220000B10509F46EC0208531851016110674F4ED
:10221000C9016CE070E020E030E040E050E0EE24E6
:10222000FF248701E5E0CE2ED12C0DC0C9016CE062
:1022300070E020E030E040E050E0EE24FF24870131
:10224000B3E0CB2ED12C0E94790DBC01F501808525
:102250009185A50124E030E00E94020DBC01E92D2A
:10226000F82DDF010D900020E9F71197AE1BBF0B91
:10227000F50180859185492D582D9D010E94020D03
:10228000BC01E52DF42DDF010D900020E9F7119739
:10229000AE1BBF0BF50180859185452D542D9D0109
:1022A0000E94020DBC0189819A8118161906A4F4B6
:1022B000F50180859185AE014F5F5F4F22E030E0F0
:1022C0000E94020DBC0129813A81F501808591852A
:1022D000A3010E94020DBC01F501808591850E9439
:1022E000980C0F900F90CF91DF911F910F91FF905D
:1022F000EF90DF90CF90BF90AF909F908F907F90A6
:102300006F905F904F9008950F931F934DE752E0A9
:1023100020E030E000E010E00E94DE101F910F91FD
:1023200008958F929F92AF92BF92CF92DF92EF92D9
:10233000FF920F931F93DF93CF9300D00F92CDB7EF
:10234000DEB75C01962E872E5B834A831982222397
:1023500011F081E0898380E090E0A0E0B0E088E5C2
:1023600090E1F501B386A28684879587A687B78713
:102370008AE090E0A80EB91E9501442737FD4095EC
:10238000542FA6EFBFEFAA0EBB1EF50180859185E5
:102390006BE070E0A1E0EA2EF12C012D112DF3E0AD
:1023A000CF2ED12C0E94790DBC01E92DF82DDF0133
:1023B0000D900020E9F71197AE1BBF0BF50180854A
:1023C0009185492D582D9D010E94020DBC01D5011A
:1023D00018968D919C911997AE014E5F5F4F22E048
:1023E00030E00E94020DBC01F50180859185AE01AF
:1023F0004F5F5F4F21E030E00E94020DBC01D5012C
:1024000018968D919C9119970E94980CF501448122
:10241000558166817781808591850E94890F882307
:10242000A1F0D5011896ED91FC91199780859185C1
:10243000A285B3850097A105B10539F0F501808328
:102440009183A283B38381E001C080E00F900F905D
:102450000F90CF91DF911F910F91FF90EF90DF9040
:10246000CF90BF90AF909F908F90089540E550E03F
:1024700020E00E9491110895EF92FF920F931F9315
:102480008C017B010A960E941910F801F186E08602
:10249000108211821282138288E893E1A0E0B0E0FA
:1024A00084839583A683B7831F910F91FF90EF904C
:1024B0000895CF93DF93482F50E0CA0186569F4F6F
:1024C000FC0134914A575F4FFA018491882369F1E6
:1024D00090E0880F991FFC01E859FF4FA591B49136
:1024E000FC01EE58FF4FC591D491662351F42FB7EC
:1024F000F8948C91932F909589238C9388818923CC
:102500000BC0623061F42FB7F8948C91932F9095A3
:1025100089238C938881832B88832FBF06C09FB724
:10252000F8948C91832B8C939FBFDF91CF9108956A
:10253000482F50E0CA0182559F4FFC012491CA01E7
:1025400086569F4FFC0194914A575F4FFA01349190
:10255000332309F440C0222351F1233071F0243099
:1025600028F42130A1F0223011F514C02630B1F04A
:102570002730C1F02430D9F404C0809180008F77D7
:1025800003C0809180008F7D8093800010C084B54F
:102590008F7702C084B58F7D84BD09C08091B00063
:1025A0008F7703C08091B0008F7D8093B000E32FC0
:1025B000F0E0EE0FFF1FEE58FF4FA591B4912FB73B
:1025C000F894662321F48C919095892302C08C9114
:1025D000892B8C932FBF0895CF93DF93EC01A0E05C
:1025E000B0E020C0899190E084279527F82FE92F4B
:1025F000CF01807024E0880F991F2A95E1F78E277C
:102600009F279C01232F332722952F7028273927B6
:10261000A9014070E5E056954795EA95E1F7422714
:1026200053271196A617B707ECF2CA01DF91CF9195
:102630000895629FD001739FF001829FE00DF11D0C
:10264000649FE00DF11D929FF00D839FF00D749F2C
:10265000F00D659FF00D9927729FB00DE11DF91FD8
:10266000639FB00DE11DF91FBD01CF011124089535
:10267000A1E21A2EAA1BBB1BFD010DC0AA1FBB1F86
:10268000EE1FFF1FA217B307E407F50720F0A21BF8
:10269000B30BE40BF50B661F771F881F991F1A9465
:1026A00069F760957095809590959B01AC01BD018F
:1026B000CF010895EE0FFF1F0590F491E02D0994CE
:1026C0002F923F924F925F926F927F928F929F9242
:1026D000AF92BF92CF92DF92EF92FF920F931F9330
:1026E000CF93DF93CDB7DEB7CA1BDB0B0FB6F894E1
:1026F000DEBF0FBECDBF09942A88398848885F8421
:102700006E847D848C849B84AA84B984C884DF8091
:10271000EE80FD800C811B81AA81B981CE0FD11D75
:102720000FB6F894DEBF0FBECDBFED010895F8944B
:02273000FFCFD9
:102732005C78002F7570646174653F6170695F6BCE
:1027420065793D4D41593033414B4A444D505034E7
:10275200593449266669656C64313D256C640041D3
:10276200524455494E4F3A2073656E642067657432
:10277200200041524455494E4F3A20474554207358
:1027820075636365737366756C0041524455494EB7
:102792004F3A20676F74203C3C003E3E0041524459
:1027A20055494E4F3A204745542074696D6564205F
:1027B2006F75740041524455494E4F3A2047455473
:1027C200206661696C65643A200041524455494E65
:1027D2004F3A20746F6F6B20006D73004152445565
:1027E200494E4F3A207374617274696E67004152A8
:1027F2004455494E4F3A20455350206E6F74207213
:10280200656164792E2E2E0041524455494E4F3A4D
:10281200207365747570207265737420636C6965CA
:102822006E74006170692E7468696E677370656199
:102832006B2E636F6D0041524455494E4F3A2066EC
:1028420061696C656420746F2073657475702072A1
:1028520065737420636C69656E7400415244554916
:102862004E4F3A207365747570207769666900006F
:1028720041524455494E4F3A2073797374656D2025
:1028820073746172746564005749464920434F4E20
:102892004E45435445440041524455494E4F3A2017
:1028A200496E76616C696420435243000047455487
:1028B2000044454C4554450050555400504F535424
:1028C20000200093050000000000005309F809E908
:0828D200081A09FA0843090085
:00000001FF
