:100000000C948D000C94B5000C94B5000C94B500C4
:100010000C94B5000C94B5000C94B5000C94B5008C
:100020000C94B5000C94B5000C94B5000C94B5007C
:100030000C94B5000C94B5000C94B5000C94B5006C
:100040000C94A00D0C94B5000C9420030C94520356
:100050000C94B5000C94B5000C94B5000C94B5004C
:100060000C94B5000C94B5002F53696D706C654C01
:1000700045442E68746D6C2E6A736F6E0062746EE8
:100080005F6F66660062746E5F6F6E007465787491
:10009000004C4544206973206F666600746578746F
:1000A000004C4544206973206F6E0000000008007A
:1000B000020100000304070000000000000000012E
:1000C00002040810204080010204081020010204EC
:1000D00008102004040404040404040202020202BE
:1000E000020303030303030000000023002600298A
:1000F0000000000000250028002B0048616E646CA1
:100100006572206E6F7420666F756E6420666F7204
:100110002055524C3A006301820311241FBECFEFD9
:10012000D8E0DEBFCDBF11E0A0E0B1E0E6E7F1E24C
:1001300002C005900D92A23BB107D9F723E0A2EBD4
:10014000B1E001C01D92A630B207E1F711E0CAE1AB
:10015000D1E004C02297FE010E94570EC631D1079C
:10016000C9F70E94E3040C94B9100C9400001F938B
:10017000CF93DF93CDB7DEB72C970FB6F894DEBFE1
:100180000FBECDBFBC01CE0107960E94650265E897
:1001900070E0CE0101960E94D402BE016F5F7F4FD6
:1001A000CE0107960E940D03182FCE0101960E94E2
:1001B000F701112311F061E015C06DE770E0CE0189
:1001C00001960E94D402BE016F5F7F4FCE01079659
:1001D0000E940D03182FCE0101960E94F7011123F2
:1001E00021F060E08DE00E949801CE0107960E9408
:1001F000F7012C960FB6F894DEBF0FBECDBFDF918E
:10020000CF911F91089566E071E08AE592E00E9427
:10021000350440ED57E060E070E084EC91E00E942E
:10022000AE0C811103C06FE171E0EFCF66E371E0C6
:100230008AE592E00E94350482EB91E00C94240759
:100240008DE00E94CE01892B29F041EA50E06CE953
:1002500070E004C041E950E06CE870E082EB91E0AE
:100260000C94CF08CF93DF9326E040E052EC61E09E
:1002700070E08AE592E00E94D50568E670E082EBC6
:1002800091E00E94FF06EC0160E271E006960E9498
:100290003D0660E271E0CE010C960E943D0667EBE0
:1002A00070E0CE0148960E943D0683E091E0909375
:1002B000CD018093CC01DF91CF910C94030184ECAC
:1002C00091E00C94440B6AE572E084EC91E00E94AA
:1002D000960964EC71E082EB91E00C94A706833000
:1002E00081F028F4813099F08230A1F008958730B0
:1002F000A9F08830B9F08430D1F4809180008F7DEE
:1003000003C0809180008F7780938000089584B52A
:100310008F7702C084B58F7D84BD08958091B00031
:100320008F7703C08091B0008F7D8093B0000895D7
:100330000F931F93CF93DF931F92CDB7DEB7282F74
:1003400030E0F901E555FF4F8491F901E154FF4F89
:100350001491F901ED52FF4F04910023C9F0882355
:1003600021F069830E946F016981E02FF0E0EE0FB8
:10037000FF1FEF50FF4FA591B4919FB7F8948C9158
:10038000611103C01095812301C0812B8C939FBF05
:100390000F90DF91CF911F910F910895CF93DF932D
:1003A000282F30E0F901E555FF4F8491F901E15420
:1003B000FF4FD491F901ED52FF4FC491CC2391F03E
:1003C00081110E946F01EC2FF0E0EE0FFF1FE95149
:1003D000FF4FA591B4912C912D2381E090E021F461
:1003E00080E002C080E090E0DF91CF910895FC01B1
:1003F000808191810C94F30ECF93DF93EC0188817F
:100400009981009711F00E94F30E198218821D82C3
:100410001C821B821A82DF91CF9108950F931F9344
:10042000CF93DF93EC018B016F5F7F4F88819981C0
:100430000E94820F009731F0998388831B830A837F
:1004400081E001C080E0DF91CF911F910F9108956D
:10045000CF93DF93EC0188819981892B29F08A81E0
:100460009B818617970760F4CE010E940E028823B5
:1004700041F08C819D81892B19F4E881F9811082EA
:1004800081E0DF91CF910895EF92FF920F931F9338
:10049000CF93DF93EC017B018A01BA010E9428020D
:1004A000811104C0CE010E94FC0107C01D830C8392
:1004B000B701888199810E947B10CE01DF91CF9195
:1004C0001F910F91FF90EF900895FC01118210820F
:1004D00013821282158214826115710559F0FB0195
:1004E00001900020E9F7AF0141505109461B570B1D
:1004F0000C9444020895EF92FF920F931F93CF93B1
:10050000DF93EC017B018A01BA010E94280281116C
:1005100004C0CE010E94FC0107C01D830C83B701FB
:10052000888199810E944C10CE01DF91CF911F915B
:100530000F91FF90EF900895CF93DF93EC01FB01B3
:100540008617970761F0608171816115710529F047
:10055000448155810E94440202C00E94FC01CE01E8
:10056000DF91CF9108950F931F93CF93DF9300D026
:10057000CDB7DEB78C016115710561F0CB016983E0
:100580007A830E945310AC0169817A81C8010E946C
:100590007B0202C00E94FC01C8010F900F90DF9106
:1005A000CF911F910F910895FC0111821082138247
:1005B0001282158214820C94B302CF93DF93DC0174
:1005C000ED91FC91EB01A881B981309711F0109762
:1005D000C9F4109759F0EB012C813D81232B31F0A8
:1005E0008C9190E091958195910914C0309781F09C
:1005F000DC0114968D919C911597892B49F080818F
:1006000090E008C0BD01CF01DF91CF910C94721032
:1006100080E090E0DF91CF910895FC014481558105
:10062000FB01248135814217530741F40E94DD020A
:1006300021E0892B09F020E0822F089580E00895C1
:100640001F920F920FB60F9211242F938F939F93A7
:10065000EF93FF93E0916A02F0916B028081E09149
:100660007002F091710282FD12C09081809173023C
:100670008F5F8F7320917402821751F0E0917302A3
:10068000F0E0E65AFD4F958F8093730201C08081A0
:10069000FF91EF919F918F912F910F900FBE0F902F
:1006A0001F9018951F920F920FB60F9211242F933F
:1006B0003F934F935F936F937F938F939F93AF93EA
:1006C000BF93EF93FF938AE592E00E942D05FF917F
:1006D000EF91BF91AF919F918F917F916F915F91BA
:1006E0004F913F912F910F900FBE0F901F90189533
:1006F0008AE592E00E94F20421E0892B09F420E0CF
:10070000822F089510925D0210925C0288EE93E0B1
:10071000A0E0B0E080935E0290935F02A09360023D
:10072000B09361028DE591E090935B0280935A0251
:1007300085EC90E0909367028093660284EC90E0F1
:10074000909369028093680280EC90E090936B0232
:1007500080936A0281EC90E090936D0280936C022A
:1007600082EC90E090936F0280936E0286EC90E0B2
:10077000909371028093700210927302109274022F
:1007800010927502109276020895CF92DF92EF9246
:10079000FF920F931F93CF93DF936C017A01EB01CC
:1007A000E60EF71E00E010E0CE15DF0561F069915E
:1007B000D601ED91FC910190F081E02DC6010995E3
:1007C000080F191FF1CFC801DF91CF911F910F9131
:1007D000FF90EF90DF90CF9008956115710581F043
:1007E000DB010D900020E9F7AD0141505109461B96
:1007F000570BDC01ED91FC910280F381E02D09940F
:1008000080E090E00895EF92FF920F931F93CF93B3
:10081000DF938C01FB01C0E0D0E064917F018FEF9A
:10082000E81AF80A662361F0D801ED91FC91019075
:10083000F081E02DC8010995C80FD91FF701EDCF50
:10084000CE01DF91CF911F910F91FF90EF9008950E
:100850000C94ED03DC01ED91FC910190F081E02D11
:10086000099468E471E00C94ED030F931F93CF9308
:10087000DF93EC010E94ED038C01CE010E94310454
:10088000800F911FDF91CF911F910F9108958F924B
:100890009F92AF92BF92CF92DF92EF92FF920F930F
:1008A0001F93CF93DF93CDB7DEB7A1970FB6F89420
:1008B000DEBF0FBECDBF7C01C42EE52FCB01D22EF3
:1008C00019A221E02D1510F02AE0D22E8E010F5D25
:1008D0001F4F8D2C912CA12CB12C6C2D7E2FA5019E
:1008E00094010E94330E8C2DD29E80191124015048
:1008F00011098A3010F4805D01C0895CF8018083A1
:10090000211531054105510521F0C22EE32FCA0101
:10091000E4CFB801C7010E94ED03A1960FB6F89489
:10092000DEBF0FBECDBFDF91CF911F910F91FF9022
:10093000EF90DF90CF90BF90AF909F908F900895F1
:100940002115310541F4DC01ED91FC910190F0811C
:10095000E02D642F09940C9447049A01462F50E02F
:1009600060E070E00C94A0049A01AB0160E070E0DC
:100970000C94A0040F931F93CF93DF93EC019A0183
:10098000AB0160E070E00E94A0048C01CE010E94E7
:100990003104800F911FDF91CF911F910F91089526
:1009A0000F931F93CF93DF93EC010E94A0048C015F
:1009B000CE010E943104800F911FDF91CF911F91D2
:1009C0000F91089508950E94F60D0E94E2040E947E
:1009D0003201CFE1D5E00E945F012097E1F30E9450
:1009E0001F05F9CFFC01818D228D90E0805C9F4F27
:1009F000821B91098F7399270895FC01918D828D37
:100A0000981731F0828DE80FF11D858D90E00895E3
:100A10008FEF9FEF0895FC01918D828D981761F003
:100A2000828DDF01A80FB11D5D968C91928D9F5F25
:100A30009F73928F90E008958FEF9FEF089588E75E
:100A400093E0892B49F080E090E0892B29F00E9407
:100A5000780381110C9400000895FC01848DDF015E
:100A6000A80FB11DA35ABF4F2C91848D90E0019621
:100A70008F739927848FA689B7892C93A089B18910
:100A80008C9180648C93938D848D981306C002881A
:100A9000F389E02D80818F7D80830895CF93DF934C
:100AA000EC01888D8823C9F0EA89FB89808185FD66
:100AB00005C0A889B9898C9186FD0FC00FB607FCC7
:100AC000F5CF808185FFF2CFA889B9898C9185FF08
:100AD000EDCFCE010E942D05E7CFDF91CF91089594
:100AE000CF92DF92FF920F931F93CF93DF931F92CA
:100AF000CDB7DEB76C0181E0D60158968C9358973C
:100B00005B969C915B975C968C915C97981307C061
:100B10005096ED91FC915197808185FD2EC0F60194
:100B2000038D10E00F5F1F4F0F731127F02EF6019A
:100B3000848DF81211C00FB607FCF9CFD60150967C
:100B4000ED91FC915197808185FFF1CFC6016983BA
:100B50000E942D056981EBCF838DE80FF11DE35ACB
:100B6000FF4F6083D6015B960C935B975296ED9195
:100B7000FC915397808180620CC0D6015696ED910E
:100B8000FC91579760835096ED91FC91519780812D
:100B90008064808381E090E00F90DF91CF911F917E
:100BA0000F91FF90DF90CF900895BF92CF92DF9288
:100BB000EF92FF92CF93DF93EC016A017B01B22E9B
:100BC000E889F98982E08083411581EE5807610543
:100BD0007105A1F060E079E08DE390E0A701960156
:100BE0000E94330E2150310941095109569547950C
:100BF00037952795211580E1380798F0E889F9891C
:100C0000108260E874E88EE190E0A70196010E94EE
:100C1000330E2150310941095109569547953795B1
:100C20002795EC85FD853083EE85FF852083188E22
:100C3000EC89FD89B082EA89FB89808180618083AB
:100C4000EA89FB89808188608083EA89FB898081C9
:100C500080688083EA89FB8980818F7D8083DF9132
:100C6000CF91FF90EF90DF90CF90BF900895FC015F
:100C700011821082138212820895FC0173836283B1
:100C80000895DC011296ED91FC9113973097F9F0DD
:100C90002D913C91119721153105B9F014968D9144
:100CA0009C911597AC015595479580FF0AC0D901D5
:100CB000A40FB51F0D90BC91A02DAE0FBF1FED91DD
:100CC000FC91C901840F951F0994CB0109940895E3
:100CD000FC0111821082138212820895FC01738339
:100CE00062830895DC011296ED91FC911397309781
:100CF000F9F02D913C91119721153105B9F0149619
:100D00008D919C911597AC015595479580FF0AC030
:100D1000D901A40FB51F0D90BC91A02DAE0FBF1F20
:100D2000ED91FC91C901840F951F0994CB010994A1
:100D30000895FC0180819181892B39F481E0228121
:100D40003381232B19F480E0089581E008950F93F7
:100D50001F93CF93DF93EC017983688319861886FC
:100D60008C01065F1F4FC8010E946806198A188A05
:100D7000D093F802C093F70268EC78E0C801DF91E5
:100D8000CF911F910F910C946E06EF92FF920F93EB
:100D90001F93CF93DF938C017B0180E290E00E9450
:100DA000310EEC0180E2FE0111928A95E9F76AE4C6
:100DB00071E0CE010E946502CE0106960E943706C0
:100DC000CE010C960E943706CE0142960E9437064D
:100DD000CE0148960E943706B701CE010E949C02C0
:100DE000F801808991899F8F8E8FD18BC08BCE0126
:100DF000DF91CF911F910F91FF90EF9008950F9386
:100E00001F93CF93DF9300D000D000D0CDB7DEB7D3
:100E10008C01CE0101960E94D402BE016F5F7F4F0C
:100E2000C8010E94C5068C01CE0101960E94F701FF
:100E3000C80126960FB6F894DEBF0FBECDBFDF9176
:100E4000CF911F910F910895EF92FF920F931F93EF
:100E5000CF93DF9300D000D0CDB7DEB77C0101E0A7
:100E600010E020E030E0A9016EE170E0FC0180813B
:100E700091810E94CC0BA701465F5F4F662757FD0B
:100E80006095762F49835A836B837C8344E050E0DE
:100E9000BE016F5F7F4FF701808191810E94490CF5
:100EA000F701808191810E9480090F900F900F902F
:100EB0000F90DF91CF911F910F91FF90EF900895C8
:100EC0002F923F924F925F926F927F928F929F925A
:100ED000AF92BF92CF92DF92EF92FF920F931F9348
:100EE000CF93DF93CDB7DEB728970FB6F894DEBF68
:100EF0000FBECDBF7C018B012DB73EB738872F8346
:100F000042E050E0BE016B5F7F4FC8010E94610D5F
:100F10004D805E80370132E0630E711C44E050E08A
:100F2000B301C8010E94610D470186E0880E911C43
:100F300042E050E0B401C8010E94610DBE016D5F46
:100F40007F4FC8010E94320D5C01D7015096CD90B1
:100F5000DC9051972B803C80C114D10409F4D4C09B
:100F6000F601848195818A159B0541F46081718128
:100F7000A501C1010E945C10892B21F0F601C68CED
:100F8000D78CEACFC20199278230910561F52DB641
:100F90003EB6BE016F5F7F4FC8010E94320D5C01FB
:100FA00001962DB73EB7281B390B0FB6F8943EBFFC
:100FB0000FBE2DBF0DB71EB70F5F1F4F69817A811E
:100FC000A501C8010E946910F801EA0DFB1D1082FD
:100FD000B801C60148960E9441060FB6F8943EBE7D
:100FE0000FBE2DBE03C083309105BCF50FEF10E09E
:100FF00024E630E040E050E06FE170E0F7018081EE
:1010000091810E94CC0B44E050E0B301D7018D9157
:101010009C910E94490C42E050E0B401F7018081AC
:1010200091810E94490CD6016D917C91C6014110BD
:1010300002C0069601C00C960E94410640E050E0B6
:1010400060E070E0F701808191810E94490CD70136
:101050008D919C910E9480097BC0039709F078C014
:1010600084E0882E912CF2E1CF0ED11CD801149689
:10107000ED91FC911597828193818816990608F06D
:1010800067C0BE016F5F7F4FC8010E94320D69804B
:101090007A80F3013196DF010D900020E9F79D0180
:1010A000215031095901AE1ABF0A2C014A185B08B8
:1010B000C20101970E945B0ED70119969C938E93F3
:1010C0001897A20142505109FC01E40FF51F10824C
:1010D000B5016E5F7F4F660D771D0E9469106981B3
:1010E0007A816F5F7F4FC6010E944106F7018085BC
:1010F00091850E94F30ED70119961C921E921897A3
:10110000BFEF8B1A9B0AB2CFD701ED91FC9184857A
:101110008823F1F06BEF70E0808191810E940304DD
:1011200000E010E0F701A081B1810A151B0564F40D
:10113000EB81FC81E00FF11F60818D919C910E94F9
:101140002A040F5F1F4FEECF8D919C910E943104B6
:10115000EF81F8850FB6F894FEBF0FBEEDBF28965D
:101160000FB6F894DEBF0FBECDBFDF91CF911F91B8
:101170000F91FF90EF90DF90CF90BF90AF909F9036
:101180008F907F906F905F904F903F902F90089539
:10119000BC018091F7029091F8020C9460076F9265
:1011A0007F928F929F92AF92BF92CF92DF92EF92F7
:1011B000FF920F931F93CF93DF9300D0CDB7DEB78D
:1011C0005C016A018DB69EB6CB0169837A830E9469
:1011D00053108C01C6010E94531011279801280F4B
:1011E000311DC901390132E0630E711C0396EDB760
:1011F000FEB7E81BF90B0FB6F894FEBF0FBEEDBFAC
:101200002DB73EB72F5F3F4F7901118269817A81F7
:10121000C90101960E944C10C8010296B6018E0DBC
:101220009F1D0E944C10A301B701F501808191819F
:101230000E94490C0FB6F8949EBE0FBE8DBE0F9053
:101240000F90DF91CF911F910F91FF90EF90DF9062
:10125000CF90BF90AF909F908F907F906F900895A8
:10126000CF93DF93EC018A859B85603CA1F06B3DB9
:1012700021F5DC01ED91FC910190F081E02D6BED09
:1012800009958A859B85DC01ED91FC910190F081A7
:10129000E02D6DED18C0DC01ED91FC910190F08125
:1012A000E02D6BED09958A859B85DC01ED91FC9124
:1012B0000190F081E02D6CED06C0DC01ED91FC9118
:1012C0000190F081E02DDF91CF910994EF92FF9290
:1012D0000F931F93CF93DF937C018A01EB01060FDD
:1012E000171FC017D10729F06991C7010E94300963
:1012F000F8CFDF91CF911F910F91FF90EF9008955C
:10130000CF93DF93EC01BC01635F7F4F42E050E07D
:101310000E9466098A859B85DC01ED91FC91019014
:10132000F081E02D60ECDF91CF9109940F931F9332
:10133000CF93DF93EC018B0102960E9468061B8716
:101340000A871C86CE014696988B8F8780E890E0AE
:101350009A8B898B1C8A1B8A1D8ADF91CF911F91E2
:101360000F910895FC012485222321F08081918131
:101370000C943504089546275427452754279A018D
:10138000222784E0220F331F8A95E1F7242735278F
:10139000C901892F992782958F70822793279C01F5
:1013A000222755E0369527955A95E1F7822793270E
:1013B0000895EF92FF920F931F93CF93DF937C01D9
:1013C0008A01C901EB01060F171FC017D10731F0C1
:1013D0006991AC01C7010E94BB09F7CFDF91CF91A2
:1013E0001F910F91FF90EF900895AF92BF92CF920F
:1013F000DF92EF92FF920F931F93CF93DF9300D072
:1014000000D000D0CDB7DEB78C01DC011F96ED9087
:10141000FC9050971C968C911C97882309F47DC0F2
:1014200069E671E08D919C910E942804F80163891E
:1014300074894AE050E0808191810E94B40463E79E
:1014400071E0D8018D919C910E942804F801478594
:101450005089662757FD6095762F20E130E0808126
:1014600091810E94A00467E971E0D8018D919C915F
:101470000E942804F7016081718140E150E0D801A9
:101480008D919C910E94B40468E971E0F80180811B
:1014900091810E942804D70114964D915D916D9120
:1014A0007C91179720E130E0F801808191810E94C2
:1014B000A00468E971E0D8018D919C910E942804F4
:1014C000F7016281738140E150E0D8018D919C91D8
:1014D0000E94B40468E0C62ED12CF8012389348917
:1014E00080819181C216D306B0F468E971E00E9450
:1014F0002804D8011F96ED91FC915097EC0DFD1D2D
:1015000040E150E060818D919C910E94AD04BFEF5D
:10151000CB1ADB0AE2CF0E943104D8015396CD905A
:10152000DC905497B2E0CB1AD108F801A784B088B8
:1015300020E030E0A601B501C8010E94D909F501FB
:10154000EC0DFD1D208131818217930731F066E794
:1015500071E0C8010E94B20982C0D7018D919C91AF
:101560008230910539F083309105F1F0019709F04F
:101570006CC05BC0F8018485882309F473C067E8F8
:1015800071E0808191810E942804D70114964D91C9
:101590005D916D917C9117972AE030E0F801808190
:1015A00091810E94D0045EC0D8011C968C911C973A
:1015B000882329F160E971E08D919C910E942804B3
:1015C000F70144815581668177812AE030E0D801B6
:1015D0008D919C910E94A00468E971E0F8018081DE
:1015E00091810E942804D70112966D917C911397E6
:1015F0004AE050E0F801808191810E94BA04D7014D
:1016000014960D911C911597C8010E949906882384
:1016100031F1B701CE0101960E94280DBE016F5F26
:101620007F4FC8010E9472061AC06AE971E0F80192
:10163000808191810E943504D8011896ED91FC912A
:101640001997309761F009950AC0F80184858823BD
:1016500031F065EA71E0808191810E94350480E07B
:1016600090E001C0C70126960FB6F894DEBF0FBE0A
:10167000CDBFDF91CF911F910F91FF90EF90DF9041
:10168000CF90BF90AF9008951F93CF93DF93EC015D
:1016900011E08A859B85DC01ED91FC910480F58148
:1016A000E02D0995892B09F442C08A859B85DC01D0
:1016B000ED91FC910680F781E02D09958B3D910518
:1016C00011F41D8BE6CF2B893C89803C910579F480
:1016D0002830310520F0CE010E94F50902C080E0DB
:1016E00090E01C8A1B8A1D8A009799F222C04D89BE
:1016F000442361F08C3D910531F08D3D910529F435
:101700008BED90E002C080EC90E01D8A49895A89F7
:101710002417350708F0BDCFEF85F889A9014F5F81
:101720005F4F5C8B4B8BE20FF31F8083B2CF80E067
:1017300090E0DF91CF911F9108958F929F92AF9289
:10174000BF92CF92DF92EF92FF92CF93DF93EC01A3
:101750006A017B010E94EA0D4B015C010E94EA0DC7
:10176000681979098A099B096C157D058E059F0505
:1017700030F4CE010E94440B009781F302C080E058
:1017800090E0DF91CF91FF90EF90DF90CF90BF90EE
:10179000AF909F908F900895EF92FF920F931F93B9
:1017A000CF93DF93CDB7DEB728970FB6F894DEBF9F
:1017B0000FBECDBF7C017A8369832B833C834D832D
:1017C0005E8318870F83DC011E961C921E921D9764
:1017D0001A968D919C911B97DC01ED91FC910190E3
:1017E000F081E02D60EC099542E050E0BE016F5FB2
:1017F0007F4FC7010E946609F7012585368542E0C3
:1018000050E0BE016F5F7F4FC7010E94D909D70129
:101810001E969C938E931D9742E050E0BE01695F37
:101820007F4FC7010E946609F7012585368542E092
:1018300050E0BE01695F7F4FC7010E94D909D701FF
:101840001E969C938E931D9744E050E0BE016D5F01
:101850007F4FC7010E946609F7012585368544E060
:1018600050E0BE016D5F7F4FC7010E94D909D701CB
:101870001E969C938E931D9728960FB6F894DEBF04
:101880000FBECDBFDF91CF911F910F91FF90EF90D1
:101890000895CF92DF92EF92FF920F931F93CF9311
:1018A000DF9300D0CDB7DEB78C017B015A8349832B
:1018B00042E050E0BE016F5F7F4F0E946609F80171
:1018C0002585368542E050E0BE016F5F7F4FC8013D
:1018D0000E94D909F80196878587C980DA80CE0CE5
:1018E000DF1CEC14FD0491F0F7016081C8010E9437
:1018F0003009F80145855685F70161917F01C801DE
:101900000E94BB09F80196878587EBCFE980FA80B2
:10191000F194E194F108F3E0EF22FF24E114F104E3
:1019200091F060E0C8010E943009F80145855685B4
:1019300060E0C8010E94BB09F80196878587F1E045
:10194000EF1AF108EBCF0F900F90DF91CF911F911D
:101950000F91FF90EF90DF90CF9008956F927F925C
:101960008F929F92AF92BF92CF92DF92EF92FF92AF
:101970000F931F93CF93DF93EC014A015B018A859C
:101980009B85DC01ED91FC910190F081E02D60ECF4
:1019900009956E01B2E0CB0ED11CEE24D7FCE09489
:1019A000FE2C00E010E0A701960161E070E0CE019E
:1019B0000E94CC0BCE010E948009088519851986EA
:1019C0001886B501A401CE010E949D0B3C01009731
:1019D00069F1F30184819581A681B7812C858C15ED
:1019E0009D05AE05BF0561F4222331F06FE971E07A
:1019F000888199810E9435041987088781E019C080
:101A00002223F9F26BEA71E0888199810E9428040F
:101A1000D30114964D915D916D917C9117972AE0B9
:101A200030E0888199810E94D004CBCF1987088744
:101A300080E0DF91CF911F910F91FF90EF90DF90A9
:101A4000CF90BF90AF909F908F907F906F900895B0
:101A5000FC0175836483685F7F4F738362831182A7
:101A600010820895CF93DF93FC0180819181A4813E
:101A7000B58112962D913C91139782179307E0F44C
:101A8000A281B3812D913D91B383A283019691836D
:101A90008083EB01B983A8838EEF9FEF821B930BAA
:101AA00083709927820F931F42815381480F591FDA
:101AB00053834283C90102C08FEF9FEFDF91CF9123
:101AC00008950F931F93CF93DF93FC01A081B18101
:101AD000C481D5818A819B81A817B90750F5C2813D
:101AE000D381299139918EEF9FEF821B930B8370E5
:101AF0009927D383C2831196B183A0838E01EB0112
:101B0000DA012417350708F4D9016A0F7B1FC617BD
:101B1000D70729F0D8014D918D014993F8CF820F55
:101B2000931F42815381480F591F53834283C90138
:101B300002C08FEF9FEFDF91CF911F910F9108951A
:101B40001F920F920FB60F9211242F933F938F93F2
:101B50009F93AF93BF938091FA029091FB02A09163
:101B6000FC02B091FD023091F90223E0230F2D37E2
:101B700020F40196A11DB11D05C026E8230F029691
:101B8000A11DB11D2093F9028093FA029093FB02EC
:101B9000A093FC02B093FD028091FE029091FF029F
:101BA000A0910003B09101030196A11DB11D809386
:101BB000FE029093FF02A0930003B0930103BF9134
:101BC000AF919F918F913F912F910F900FBE0F90EA
:101BD0001F9018952FB7F8946091FA027091FB024C
:101BE0008091FC029091FD022FBF0895789484B5F6
:101BF000826084BD84B5816084BD85B5826085BD09
:101C000085B5816085BDEEE6F0E0808181608083EE
:101C1000E1E8F0E0108280818260808380818160D1
:101C20008083E0E8F0E0808181608083E1EBF0E098
:101C3000808184608083E0EBF0E08081816080833C
:101C4000EAE7F0E080818460808380818260808325
:101C50008081816080838081806880831092C10050
:101C600008950C945B0EA1E21A2EAA1BBB1BFD016A
:101C70000DC0AA1FBB1FEE1FFF1FA217B307E4076B
:101C8000F50720F0A21BB30BE40BF50B661F771FC3
:101C9000881F991F1A9469F76095709580959095A3
:101CA0009B01AC01BD01CF010895EE0FFF1F059010
:101CB000F491E02D0994CF93DF938230910510F4D5
:101CC00082E090E0E0910403F091050320E030E031
:101CD000A0E0B0E0309739F14081518148175907B1
:101CE000B8F04817590771F482819381109729F051
:101CF00013969C938E9312972CC090930503809318
:101D0000040327C02115310531F04217530718F09D
:101D1000A901DB0101C0EF019A01BD01DF010280D1
:101D2000F381E02DD7CF21153105F9F0281B390BB0
:101D30002430310580F48A819B816115710521F081
:101D4000FB019383828304C0909305038093040373
:101D5000FE01329644C0FE01E20FF31F819391937E
:101D600022503109398328833AC0209102033091EF
:101D70000303232B41F4209102013091030130939E
:101D800003032093020320910001309101012115EA
:101D9000310541F42DB73EB7409104015091050142
:101DA000241B350BE0910203F0910303E217F307C4
:101DB000A0F42E1B3F0B2817390778F0AC014E5FBB
:101DC0005F4F2417350748F04E0F5F1F50930303F2
:101DD000409302038193919302C0E0E0F0E0CF01D1
:101DE000DF91CF910895CF93DF93009709F487C0D7
:101DF000FC01329713821282C0910403D091050333
:101E0000209781F420813181280F391F80910203AE
:101E1000909103038217930779F5F0930303E093FE
:101E200002036DC0DE0120E030E0AE17BF0750F4C2
:101E300012964D915C9113979D014115510509F141
:101E4000DA01F3CFB383A28340815181840F951FC0
:101E50008A179B0771F48D919C911197840F951FA0
:101E600002969183808312968D919C911397938310
:101E700082832115310529F4F0930503E0930403CF
:101E80003EC0D9011396FC93EE9312974D915D914C
:101E9000A40FB51FEA17FB0779F480819181840FA5
:101EA000951F0296D90111969C938E9382819381FE
:101EB00013969C938E931297E0E0F0E08A819B81C9
:101EC000009719F0FE01EC01F9CFCE0102962881AE
:101ED0003981820F931F2091020330910303281749
:101EE000390769F4309729F410920503109204031E
:101EF00002C013821282D0930303C0930203DF91C6
:101F0000CF910895A0E0B0E0E8E8FFE00C948610DF
:101F1000EC01CB01209719F40E945B0EB8C0FE01C2
:101F2000E60FF71F9E0122503109E217F30708F46C
:101F3000ACC0D9010D911C91119706171707B8F085
:101F40000530110508F49FC0A801445051094617F7
:101F5000570708F498C002501109061B170B01938C
:101F600011936D937C93CF010E94F30E8CC05B01A3
:101F7000A01AB10A4E01800E911EA0910403B091E7
:101F80000503612C712C60E070E0109709F449C0E2
:101F9000A815B905C9F5ED90FC901197670142E0CD
:101FA000C40ED11CCA14DB0478F147018A189B08BF
:101FB000640142E0C40ED11C1296BC901297139695
:101FC000AC91B5E0CB16D10440F0B282A3839182EC
:101FD0008082D9018D939C9309C00E5F1F4F0E0D17
:101FE0001F1DF90111830083EB2DFA2F6115710577
:101FF00031F0DB011396FC93EE93129744C0F093FB
:102000000503E09304033FC06D917C911197661620
:10201000770608F43B01BD0112960D90BC91A02DEE
:10202000B4CF609102037091030368157905E9F458
:1020300068167906D0F440910001509101014115D4
:10204000510541F44DB75EB76091040170910501EF
:10205000461B570BE417F507C0F4F0930303E09316
:102060000203F901918380830EC00E945B0E7C0104
:10207000009759F0A801BE010E946910CE010E948C
:10208000F30EC70104C0CE0102C080E090E0CDB7DE
:10209000DEB7EEE00C94A210FB01DC0105900D927E
:1020A0000020E1F70895FC0105900020E9F78095F4
:1020B00090958E0F9F1F0895FB01DC0104C08D9148
:1020C0000190801921F441505040C8F7881B990BAA
:1020D0000895FB01DC0102C001900D924150504077
:1020E000D8F70895FB01DC018D9101908019011052
:1020F000D9F3990B0895FB01DC0101900D920020AA
:10210000E1F708952F923F924F925F926F927F92E4
:102110008F929F92AF92BF92CF92DF92EF92FF92F7
:102120000F931F93CF93DF93CDB7DEB7CA1BDB0BA3
:102130000FB6F894DEBF0FBECDBF09942A88398848
:1021400048885F846E847D848C849B84AA84B9844F
:10215000C884DF80EE80FD800C811B81AA81B9815B
:10216000CE0FD11D0FB6F894DEBF0FBECDBFED016F
:062170000895F894FFCF72
:10217600000006038000454C2D436C69656E742093
:102186002872652D297374617274696E6721004522
:102196004C2D436C69656E742073796E632066619D
:1021A600696C65642100454C2D436C69656E74202D
:1021B60073796E63656421000D0A006E616E0069B5
:1021C6006E66006F7666002E00000000007005C582
:1021D60003F2040B05FD044E05454C433A20676F98
:1021E600742000204000454C433A20496E76616CCD
:1021F60069642043524300524553505F563A2000CB
:10220600524553505F43423A20004E4545445F5382
:10221600594E432100434D443F3F004241443A203A
:022226000000B6
:00000001FF
