:100000000C948D000C94B5000C94B5000C94B500C4
:100010000C94B5000C94B5000C94B5000C94B5008C
:100020000C94B5000C94B5000C94B5000C94B5007C
:100030000C94B5000C94B5000C94B5000C94B5006C
:100040000C94680D0C94B5000C9417030C944903A0
:100050000C94B5000C94B5000C94B5000C94B5004C
:100060000C94B5000C94B5002F53696D706C654C01
:1000700045442E68746D6C2E6A736F6E0062746EE8
:100080005F6F66660062746E5F6F6E007465787491
:10009000004C4544206973206F666600746578746F
:1000A000004C4544206973206F6E0000000008007A
:1000B000020100000304070000000000000000012E
:1000C00002040810204080010204081020010204EC
:1000D00008102004040404040404040202020202BE
:1000E000020303030303030000000023002600298A
:1000F0000000000000250028002B0048616E646CA1
:100100006572206E6F7420666F756E6420666F7204
:100110002055524C3A006301790311241FBECFEFE2
:10012000D8E0DEBFCDBF11E0A0E0B1E0E2E1F1E256
:1001300002C005900D92A23BB107D9F723E0A2EBD4
:10014000B1E001C01D92A630B207E1F710E0CDE8A2
:10015000D0E004C02197FE010E941D0ECB38D107CC
:10016000C9F70E94C0040C9487100C9400001F93E0
:10017000CF93DF93CDB7DEB72C970FB6F894DEBFE1
:100180000FBECDBFBC01CE0107960E945F0265E89D
:1001900070E0CE0101960E94CD02BE016F5F7F4FDD
:1001A000CE0107960E940603182FCE0101960E94E9
:1001B000F101112311F061E015C06DE770E0CE018F
:1001C00001960E94CD02BE016F5F7F4FCE01079660
:1001D0000E940603182FCE0101960E94F1011123FF
:1001E00021F060E08DE00E949801CE0107960E9408
:1001F000F1012C960FB6F894DEBF0FBECDBFDF9194
:10020000CF911F91089566E071E08AE592E00E9427
:10021000170440ED57E060E070E084EC91E00E944C
:10022000700C811103C06FE171E0EFCF66E371E004
:100230008AE592E00E94170482EB91E00C94E506B7
:100240008DE00E94C801892B29F041EA50E06CE959
:1002500070E004C041E950E06CE870E082EB91E0AE
:100260000C948D08CF93DF9326E040E052EC61E0E0
:1002700070E08AE592E00E94950568E670E082EB06
:1002800091E00E94C006EC0160E271E006960E94D7
:10029000000660E271E0CE010C960E94000667EB5A
:1002A00070E0CE0148960E94000683E091E09093B2
:1002B000CD018093CC01DF91CF910C94030184ECAC
:1002C00091E00C94010B6AE572E084EC91E00E94ED
:1002D000540964EC71E082EB91E00C946806833081
:1002E00081F028F4813099F08230A1F008958730B0
:1002F000A9F08830B9F08430D1F4809180008F7DEE
:1003000003C0809180008F7780938000089584B52A
:100310008F7702C084B58F7D84BD08958091B00031
:100320008F7703C08091B0008F7D8093B0000895D7
:100330001F93CF93DF93282F30E0F901E555FF4F4E
:100340008491F901E154FF4FD491F901ED52FF4F2F
:10035000C491CC23C9F0162F81110E946F01EC2F9C
:10036000F0E0EE0FFF1FEF50FF4FA591B4918FB754
:10037000F894111105C09C91ED2FE095E92302C07E
:10038000EC91ED2BEC938FBFDF91CF911F910895EE
:10039000CF93DF93282F30E0F901E555FF4F84918B
:1003A000F901E154FF4FD491F901ED52FF4FC4918F
:1003B000CC2391F081110E946F01EC2FF0E0EE0F41
:1003C000FF1FE951FF4FA591B491EC91ED2381E01E
:1003D00090E021F480E002C080E090E0DF91CF91D6
:1003E0000895FC01808191810C94B80ECF93DF9326
:1003F000EC0188819981009711F00E94B80E198252
:1004000018821D821C821B821A82DF91CF9108956F
:100410000F931F93CF93DF93EC018B016F5F7F4F9F
:10042000888199810E94500F009731F099838883C9
:100430001B830A8381E001C080E0DF91CF911F918F
:100440000F910895CF93DF93EC0188819981892BD7
:1004500029F08A819B818617970760F4CE010E945C
:100460000802882341F08C819D81892B19F4E88151
:10047000F981108281E0DF91CF910895EF92FF9290
:100480000F931F93CF93DF93EC017B018A01BA0195
:100490000E942202811104C0CE010E94F60107C011
:1004A0001D830C83B701888199810E944910CE0178
:1004B000DF91CF911F910F91FF90EF900895FC0174
:1004C00011821082138212821582148261157105C5
:1004D00051F0FB0101900020E9F73197AF01461B75
:1004E000570B0C943E020895EF92FF920F931F93C7
:1004F000CF93DF93EC017B018A01BA010E942202B3
:10050000811104C0CE010E94F60107C01D830C8337
:10051000B701888199810E941A10CE01DF91CF9195
:100520001F910F91FF90EF900895CF93DF93EC010F
:10053000FB018617970761F0608171816115710574
:1005400029F0448155810E943E0202C00E94F601BA
:10055000CE01DF91CF9108950F931F93CF93DF9337
:1005600000D0CDB7DEB78C016115710561F0CB010C
:1005700069837A830E942110AC0169817A81C80164
:100580000E94740202C00E94F601C8010F900F90F1
:10059000DF91CF911F910F910895FC01118210827C
:1005A00013821282158214820C94AC02CF93DF93D3
:1005B000DC01ED91FC91EB01A881B981309711F03C
:1005C0001097C9F4109759F0EB012C813D81232B32
:1005D00031F08C9190E091958195910914C03097FC
:1005E00081F0DC0114968D919C911597892B49F02F
:1005F000808190E008C0BD01CF01DF91CF910C94C4
:10060000401080E090E0DF91CF910895FC0144819B
:100610005581FB01248135814217530729F40E943B
:10062000D60221E0892B09F020E0822F08951F9245
:100630000F920FB60F9211242F938F939F93EF93E6
:10064000FF93E0916A02F0916B028081E091700269
:10065000F091710282FD12C09081809173028F5FD0
:100660008F7320917402821751F0E0917302F0E0D1
:10067000E65AFD4F958F8093730201C08081FF91F0
:10068000EF919F918F912F910F900FBE0F901F9020
:1006900018951F920F920FB60F9211242F933F932C
:1006A0004F935F936F937F938F939F93AF93BF937A
:1006B000EF93FF938AE592E00E940B05FF91EF9183
:1006C000BF91AF919F918F917F916F915F914F916A
:1006D0003F912F910F900FBE0F901F9018958AE5B4
:1006E00092E00E94CF0421E0892B09F420E0822FC0
:1006F0000895EAE5F2E01382128288EE93E0A0E02A
:10070000B0E084839583A683B7838DE591E09183E0
:10071000808385EC90E09587848784EC90E09787D0
:10072000868780EC90E0918B808B81EC90E0938BBE
:10073000828B82EC90E0958B848B86EC90E0978B9B
:10074000868B118E128E138E148E0895CF92DF92A7
:10075000EF92FF920F931F93CF93DF936C017A0177
:100760008B01C0E0D0E0CE15DF0589F0D8016D9196
:100770008D01D601ED91FC910190F081E02DC60133
:100780000995892B11F47E0102C02196ECCFC70197
:10079000DF91CF911F910F91FF90EF90DF90CF905D
:1007A00008956115710579F0FB0101900020E9F7CA
:1007B0003197AF01461B570BDC01ED91FC91028094
:1007C000F381E02D099480E090E00895EF92FF928C
:1007D0000F931F93CF93DF938C017B01C0E0D0E098
:1007E000F701EC0FFD1F6491662361F0D801ED91D4
:1007F000FC910190F081E02DC8010995892B11F041
:100800002196EECFCE01DF91CF911F910F91FF90F6
:10081000EF9008950C94D103DC01ED91FC910190CF
:10082000F081E02D099468E471E00C94D1030F93FA
:100830001F93CF93DF93EC010E94D1038C01CE0173
:100840000E941304800F911FDF91CF911F910F9190
:1008500008958F929F92AF92BF92CF92DF92EF92C4
:10086000FF920F931F93CF93DF93CDB7DEB7A1977E
:100870000FB6F894DEBF0FBECDBF7C01D42EC52EBF
:10088000DB0119A2223008F42AE08E010F5D1F4F10
:10089000822E912CA12CB12C6D2D7C2DCD01A5018A
:1008A00094010E94FB0DD22EC32EDA0101501109D2
:1008B0006A3071058105910510F4605D01C0695CC5
:1008C000F8016083232B242B252B31F7B801C701B6
:1008D0000E94D103A1960FB6F894DEBF0FBECDBF24
:1008E000DF91CF911F910F91FF90EF90DF90CF900C
:1008F000BF90AF909F908F9008952115310541F4DE
:10090000DC01ED91FC910190F081E02D642F0994C0
:100910000C9429049A01462F50E060E070E00C949A
:100920007D049A01AB0160E070E00C947D040F93AC
:100930001F93CF93DF93EC019A01AB0160E070E06D
:100940000E947D048C01CE010E941304800F911F30
:10095000DF91CF911F910F9108950F931F93CF9324
:10096000DF93EC010E947D048C01CE010E941304F0
:10097000800F911FDF91CF911F910F9108950895DE
:100980000E94BE0D0E94BF040E943201CDEFD4E050
:100990000E945F012097E1F30E94FD04F9CFFC0162
:1009A000918D228D892F90E0805C9F4F821B910951
:1009B0008F7399270895FC01918D828D981731F0DE
:1009C000828DE80FF11D858D90E008958FEF9FEFE8
:1009D0000895FC01918D828D981761F0828DDF0161
:1009E000A80FB11D5D968C91928D9F5F9F73928F22
:1009F00090E008958FEF9FEF08958FE693E0892BA5
:100A000049F080E090E0892B29F00E946F0381116A
:100A10000C9400000895FC01848DDF01A80FB11D26
:100A2000A35ABF4F2C91848D90E001968F73992724
:100A3000848FA689B7892C93A089B1898C91806411
:100A40008C93938D848D981306C00288F389E02DD2
:100A500080818F7D80830895CF93DF93EC01888D13
:100A60008823C9F0EA89FB89808185FD05C0A889B2
:100A7000B9898C9186FD0FC00FB607FCF5CF808138
:100A800085FFF2CFA889B9898C9185FFEDCFCE0182
:100A90000E940B05E7CFDF91CF910895EF92FF926F
:100AA0000F931F93CF93DF93EC0181E0888F9B8D91
:100AB0008C8D981305C0E889F989808185FD24C053
:100AC000F62E0B8D10E00F5F1F4F0F731127E02ED6
:100AD0008C8DE8120CC00FB607FCFACFE889F989B3
:100AE000808185FFF5CFCE010E940B05F1CF8B8D64
:100AF000FE01E80FF11DE35AFF4FF0820B8FEA89E8
:100B0000FB898081806207C0EE89FF896083E88964
:100B1000F98980818064808381E090E0DF91CF91CA
:100B20001F910F91FF90EF900895CF92DF92EF9277
:100B3000FF921F93CF93DF93EC016A017B01122F89
:100B4000E889F98982E080834115514E610571057C
:100B5000B1F060E079E08DE390E0A70196010E949A
:100B6000FB0DDA01C9010197A109B109B695A79555
:100B700097958795AC01411580E15807A8F0E88961
:100B8000F989108260E874E88EE190E0A70196018F
:100B90000E94FB0DBA01A901415051096109710977
:100BA0007695679557954795EC85FD855083EE853D
:100BB000FF854083188EEC89FD891083EA89FB89C3
:100BC000808180618083EA89FB898081886080835D
:100BD000EA89FB89808180688083EA89FB8980813A
:100BE0008F7D8083DF91CF911F91FF90EF90DF90F9
:100BF000CF900895FC011182108213821282089511
:100C0000FC01738362830895DC011296ED91FC91DF
:100C100013973097F1F02D913C91119721153105E3
:100C2000B1F014964D915C911597CA0195958795F1
:100C300040FF0AC0D901A80FB91F4D915C91E40F84
:100C4000F51F0190F081E02D820F931F0994CB01D5
:100C500009940895FC011182108213821282089572
:100C6000FC01738362830895DC011296ED91FC917F
:100C700013973097F1F02D913C9111972115310583
:100C8000B1F014964D915C911597CA019595879591
:100C900040FF0AC0D901A80FB91F4D915C91E40F24
:100CA000F51F0190F081E02D820F931F0994CB0175
:100CB00009940895FC0180819181892B39F481E0A8
:100CC00022813381232B19F480E0089581E0089577
:100CD0000F931F93CF93DF93EC0179836883198679
:100CE00018861B861A868C01045F1F4FC8010E945C
:100CF0002A06D093F802C093F70266E878E0C801AC
:100D0000DF91CF911F910F910C943006EF92FF92DB
:100D10000F931F93CF93DF938C017B0180E290E0D0
:100D20000E94F90DEC0180E2FE0111928A95E9F72B
:100D30006AE471E0CE010E945F02CE0106960E9435
:100D4000FA05CE010C960E94FA05CE0142960E9449
:100D5000FA05CE0148960E94FA05B701CE010E941D
:100D60009502F801808591859F8F8E8FD187C087EE
:100D7000CE01DF91CF911F910F91FF90EF900895D9
:100D80000F931F93CF93DF9300D000D000D0CDB747
:100D9000DEB78C01CE0101960E94CD02BE016F5FCD
:100DA0007F4FC8010E9486068C01CE0101960E94E9
:100DB000F101C80126960FB6F894DEBF0FBECDBF75
:100DC000DF91CF911F910F910895EF92FF920F93B2
:100DD0001F93CF93DF9300D000D0CDB7DEB77C0157
:100DE00001E010E020E030E0A9016EE170E0FC01DC
:100DF000808191810E94900BC7010C96092E000CF6
:100E0000AA0BBB0B89839A83AB83BC8344E050E07D
:100E1000BE016F5F7F4FF701808191810E940D0CB1
:100E2000F701808191810E943E090F900F900F90F1
:100E30000F90DF91CF911F910F91FF90EF90089548
:100E40002F923F924F925F926F927F928F929F92DA
:100E5000AF92BF92CF92DF92EF92FF920F931F93C8
:100E6000CF93DF93CDB7DEB728970FB6F894DEBFE8
:100E70000FBECDBF7C018B012DB73EB738872F83C6
:100E800042E050E0BE016B5F7F4FC8010E94230D1E
:100E90004D805E80470132E0830E911C44E050E0BB
:100EA000B401C8010E94230D370186E0680E711C51
:100EB00042E050E0B301C8010E94230DBE016D5F06
:100EC0007F4FC8010E94F40C5C01D7011896CD90A9
:100ED000DC9019972B803C80C114D10431F1F601CC
:100EE000848195818A159B0541F460817181A501FA
:100EF000C1010E942A10892B31F0D6015E96CD9057
:100F0000DC905F97E9CFC20199278230910599F172
:100F10000CF4A6C0039709F0D9C084E0882E912C68
:100F2000160122E1220E311C51C0D701ED91FC9136
:100F30008485882309F4CAC06BEF70E080819181B9
:100F40000E94E60300E010E0F701A081B1810A15DC
:100F50001B0561F0EB81FC81E00FF11F60818D9139
:100F60009C910E940C040F5F1F4FEECF8D919C91BE
:100F70000E941304ABC02DB63EB6BE016F5F7F4F1B
:100F8000C8010E94F40C8C0101962DB73EB7281BB6
:100F9000390B0FB6F8943EBF0FBE2DBF8DB79EB76D
:100FA00001965C0169817A81A8010E943710F501E0
:100FB000E00FF11F1082B501C60148960E94040699
:100FC0000FB6F8943EBE0FBE2DBE4AC0D80114968F
:100FD000ED91FC911597828193818816990608F00E
:100FE00075C0BE016F5F7F4FC8010E94F40C49803D
:100FF0005A803201AFEF6A1A7A0AF3010190002099
:10100000E9F731976F01C618D7085C01AC18BD0825
:10101000C50101970E94230EF70193878287A501DE
:1010200042505109FC01E40FF51F1082F2E0CF0E8F
:10103000D11CB2016C0D7D1D0E943710B301C1019E
:101040000E940406D7011A968D919C911B970E94CD
:10105000B80EF70113861286FFEF8F1A9F0AB6CFDC
:101060000FEF10E024E630E040E050E06FE170E088
:10107000F701808191810E94900B44E050E0B4011F
:10108000D7018D919C910E940D0C42E050E0B3017C
:10109000F701808191810E940D0CD6016D917C91A8
:1010A000C601411002C0069601C00C960E940406BB
:1010B00040E050E060E070E0F701808191810E94A3
:1010C0000D0CD7018D919C910E943E09EF81F8850E
:1010D0000FB6F894FEBF0FBEEDBF28960FB6F8947A
:1010E000DEBF0FBECDBFDF91CF911F910F91FF905B
:1010F000EF90DF90CF90BF90AF909F908F907F90B8
:101100006F905F904F903F902F900895BC01809119
:10111000F7029091F8020C9420076F927F928F92C1
:101120009F92AF92BF92CF92DF92EF92FF920F9376
:101130001F93CF93DF9300D0CDB7DEB74C016A0188
:10114000ADB6BEB6CB0169837A830E9421108C01B3
:10115000C6010E94211011279801280F311DC901D5
:10116000390132E0630E711C0396EDB7FEB7E81B40
:10117000F90B0FB6F894FEBF0FBEEDBF2DB73EB70B
:101180002F5F3F4F7901118269817A81C9010196F0
:101190000E941A10C8010296B6018E0D9F1D0E9472
:1011A0001A10A301B701F401808191810E940D0CF6
:1011B0000FB6F894BEBE0FBEADBE0F900F90DF917C
:1011C000CF911F910F91FF90EF90DF90CF90BF9044
:1011D000AF909F908F907F906F900895CF93DF9303
:1011E000EC018A859B85603CA1F06B3D21F5DC011B
:1011F000ED91FC910190F081E02D6BED09958A85D0
:101200009B85DC01ED91FC910190F081E02D6DED6D
:1012100018C0DC01ED91FC910190F081E02D6BEDA7
:1012200009958A859B85DC01ED91FC910190F08107
:10123000E02D6CED06C0DC01ED91FC910190F08198
:10124000E02DDF91CF910994EF92FF920F931F93BE
:10125000CF93DF937C01EB018B01040F151FC017A7
:10126000D10729F06991C7010E94EE08F8CFDF91FC
:10127000CF911F910F91FF90EF900895CF93DF933F
:10128000EC01BC01635F7F4F42E050E00E94240903
:101290008A859B85DC01ED91FC910190F081E02D28
:1012A00060ECDF91CF9109940F931F93CF93DF935D
:1012B000EC018B0102960E942A061B870A871C8676
:1012C000CE014696988B8F8780E890E09A8B898B29
:1012D0001C8A1B8A1D8ADF91CF911F910F9108955F
:1012E000FC012485222321F0808191810C94170434
:1012F00008954627342F252FA901442784E0440F61
:10130000551F8A95E1F742275327CA01892F99274C
:1013100082958F7048275927CA01882735E096950E
:1013200087953A95E1F7842795270895EF92FF92E4
:101330000F931F93CF93DF937C01C901EB018B01C6
:10134000040F151FC017D10731F06991AC01C70117
:101350000E947909F7CFDF91CF911F910F91FF90F4
:10136000EF900895AF92BF92CF92DF92EF92FF92EB
:101370000F931F93CF93DF9300D000D000D0CDB751
:10138000DEB78C01DC011F96ED90FC9050971C9607
:101390008C911C97882309F47DC069E671E08D91DA
:1013A0009C910E940A04F801638974894AE050E024
:1013B000808191810E94910463E771E0D8018D9151
:1013C0009C910E940A04F80147855089052E000C63
:1013D000660B770B20E130E0808191810E947D04D3
:1013E00067E971E0D8018D919C910E940A04F70190
:1013F0006081718140E150E0D8018D919C910E9403
:10140000910468E971E0F801808191810E940A04E9
:10141000D70114964D915D916D917C91179720E1C4
:1014200030E0F801808191810E947D0468E971E0DB
:10143000D8018D919C910E940A04F7016281738109
:1014400040E150E0D8018D919C910E94910488E088
:10145000C82ED12CF8012389348980819181C2164C
:10146000D306B0F468E971E00E940A04D8011F961F
:10147000ED91FC915097EC0DFD1D40E150E0608135
:101480008D919C910E948A04BFEFCB1ADB0AE2CFB8
:101490000E941304D8015396CD90DC905497B2E08B
:1014A000CB1AD108F801A784B08820E030E0A6016B
:1014B000B501C8010E949609F501EC0DFD1D2081C2
:1014C00031818217930731F066E771E0C8010E940D
:1014D000700982C0D7018D919C918230910539F0BD
:1014E00083309105F1F0019709F06CC05BC0F80101
:1014F0008485882309F473C067E871E08081918155
:101500000E940A04D70114964D915D916D917C91D2
:1015100017972AE030E0F801808191810E94AD04A4
:101520005EC0D8011C968C911C97882329F160E934
:1015300071E08D919C910E940A04F70144815581CC
:10154000668177812AE030E0D8018D919C910E94DC
:101550007D0468E971E0F801808191810E940A04AC
:10156000D70112966D917C9113974AE050E0F801F3
:10157000808191810E949704D70114960D911C914E
:101580001597C8010E945A06882331F1B701CE0190
:1015900001960E94EA0CBE016F5F7F4FC8010E9456
:1015A00034061AC06AE971E0F801808191810E94D5
:1015B0001704D8011896ED91FC911997309761F0B6
:1015C00009950AC0F8018485882331F065EA71E045
:1015D000808191810E94170480E090E001C0C701E2
:1015E00026960FB6F894DEBF0FBECDBFDF91CF9128
:1015F0001F910F91FF90EF90DF90CF90BF90AF9031
:1016000008951F93CF93DF93EC0111E08A859B85AA
:10161000DC01ED91FC910480F581E02D0995892B89
:1016200009F443C08A859B85DC01ED91FC9106801D
:10163000F781E02D09958B3D910511F41D8BE6CFC7
:101640002B893C89803C910579F42830310520F0C4
:10165000CE010E94B20902C080E090E01C8A1B8A81
:101660001D8A009799F223C04D89442361F08C3D77
:10167000910531F08D3D910529F48BED90E002C08C
:1016800080EC90E01D8A49895A892417350708F0B3
:10169000BDCF4F855889B9016F5F7F4F7C8B6B8BB6
:1016A000FA01E20FF31F8083B1CF80E090E0DF9179
:1016B000CF911F9108958F929F92AF92BF92CF9238
:1016C000DF92EF92FF920F931F93CF93DF93EC0182
:1016D0006A017B010E94B20D4B015C010E94B20DB8
:1016E0008B019C01081919092A093B090C151D05D4
:1016F0002E053F0530F4CE010E94010B009771F3D7
:1017000002C080E090E0DF91CF911F910F91FF9098
:10171000EF90DF90CF90BF90AF909F908F90089503
:10172000EF92FF920F931F93CF93DF93CDB7DEB766
:1017300028970FB6F894DEBF0FBECDBF7C017A8329
:1017400069832B833C834D835E8318870F83DC0181
:101750001E961C921E921D971A968D919C911B9716
:10176000DC01ED91FC910190F081E02D60EC099598
:1017700042E050E0BE016F5F7F4FC7010E94240925
:10178000F7012585368542E050E0BE016F5F7F4F4F
:10179000C7010E949609D7011E969C938E931D97B0
:1017A00042E050E0BE01695F7F4FC7010E942409FB
:1017B000F7012585368542E050E0BE01695F7F4F25
:1017C000C7010E949609D7011E969C938E931D9780
:1017D00044E050E0BE016D5F7F4FC7010E942409C5
:1017E000F7012585368544E050E0BE016D5F7F4FEF
:1017F000C7010E949609D7011E969C938E931D9750
:1018000028960FB6F894DEBF0FBECDBFDF91CF9103
:101810001F910F91FF90EF900895CF92DF92EF927A
:10182000FF920F931F93CF93DF9300D0CDB7DEB716
:101830008C017B015A83498342E050E0BE016F5F17
:101840007F4F0E942409F8012585368542E050E04B
:10185000BE016F5F7F4FC8010E949609F80196870D
:101860008587C980DA80CE0CDF1CEC14FD0491F072
:10187000F7016081C8010E94EE08F8014585568590
:10188000F70161917F01C8010E947909F8019687EB
:101890008587EBCFE980FA80F194E194F108F3E0D9
:1018A000EF22FF24F1E0EF1AF10878F060E0C801C0
:1018B0000E94EE08F8014585568560E0C8010E9447
:1018C0007909F80196878587EDCF0F900F90DF910A
:1018D000CF911F910F91FF90EF90DF90CF900895DF
:1018E0004F925F926F927F92AF92BF92CF92DF92B0
:1018F000EF92FF920F931F93CF93DF93EC012A0196
:101900003B018A859B85DC01ED91FC910190F08182
:10191000E02D60EC09956E01B2E0CB0ED11C0D2CD0
:10192000000CEE08FF0800E010E0A701960161E05E
:1019300070E0CE010E94900BCE010E943E09A88467
:10194000B98419861886B301A201CE010E945B0BEF
:101950008C01892B69F1F801448155816681778179
:101960008C854C155D056E057F0561F4882331F08B
:101970006FE971E0888199810E941704B986A88671
:1019800081E019C08823F9F26BEA71E088819981BE
:101990000E940A04D80114964D915D916D917C913D
:1019A00017972AE030E0888199810E94AD04CBCF5F
:1019B000B986A88680E0DF91CF911F910F91FF90AB
:1019C000EF90DF90CF90BF90AF907F906F905F903F
:1019D0004F900895FC0175836483685F7F4F738324
:1019E0006283118210820895CF93DF93FC0180817E
:1019F0009181A481B58112962D913C911397821704
:101A00009307E0F4A281B3814D915D91B383A283EA
:101A1000019691838083EB01B983A8832EEF3FEF7A
:101A2000241B350B23703327240F351F82819381AC
:101A3000280F391F33832283CA0102C08FEF9FEF23
:101A4000DF91CF910895EF92FF920F931F93CF9361
:101A5000DF93EC0188819981EC81FD8122813381C2
:101A60008217930760F5EA81FB81019111912EEFB6
:101A70003FEF201B310B7901A3E0EA22FF24FB8317
:101A8000EA83019699838883CB019A01041715078D
:101A900008F49801260F371F8217930729F0419108
:101AA000DC014D93CD01F8CF9701200F311F8A81C2
:101AB0009B81280F391F3B832A83C80102C08FEF07
:101AC0009FEFDF91CF911F910F91FF90EF900895BD
:101AD0001F920F920FB60F9211242F933F938F9363
:101AE0009F93AF93BF938091FA029091FB02A091D4
:101AF000FC02B091FD023091F90223E0230F2D3753
:101B000020F40196A11DB11D05C026E8230F029601
:101B1000A11DB11D2093F9028093FA029093FB025C
:101B2000A093FC02B093FD028091FE029091FF020F
:101B3000A0910003B09101030196A11DB11D8093F6
:101B4000FE029093FF02A0930003B0930103BF91A4
:101B5000AF919F918F913F912F910F900FBE0F905A
:101B60001F9018952FB7F8946091FA027091FB02BC
:101B70008091FC029091FD022FBF0895789484B566
:101B8000826084BD84B5816084BD85B5826085BD79
:101B900085B5816085BDEEE6F0E08081816080835F
:101BA000E1E8F0E010828081826080838081816042
:101BB0008083E0E8F0E0808181608083E1EBF0E009
:101BC000808184608083E0EBF0E0808181608083AD
:101BD000EAE7F0E080818460808380818260808396
:101BE0008081816080838081806880831092C100C1
:101BF00008950C94230EA1E21A2EAA1BBB1BFD0113
:101C00000DC0AA1FBB1FEE1FFF1FA217B307E407DB
:101C1000F50720F0A21BB30BE40BF50B661F771F33
:101C2000881F991F1A9469F7609570958095909513
:101C30009B01AC01BD01CF010895EE0FFF1F059080
:101C4000F491E02D0994CF93DF938230910510F445
:101C500082E090E0E0910403F091050320E030E0A1
:101C6000C0E0D0E0309711F1408151814817590709
:101C7000C0F04817590761F482819381209719F0C9
:101C80009B838A832BC0909305038093040326C013
:101C90002115310519F04217530718F49A01BE01B6
:101CA000DF01EF010280F381E02DDCCF211531054A
:101CB00009F1281B390B2430310590F412968D91CF
:101CC0009C9113976115710521F0FB019383828329
:101CD00004C09093050380930403FD01329644C031
:101CE000FD01E20FF31F81939193225031092D934F
:101CF0003C933AC02091020330910303232B41F41B
:101D000020910201309103013093030320930203D9
:101D100020910001309101012115310541F42DB7C9
:101D20003EB74091040150910501241B350BE09111
:101D30000203F0910303E217F307A0F42E1B3F0BFD
:101D40002817390778F0AC014E5F5F4F241735072D
:101D500048F04E0F5F1F509303034093020381939B
:101D6000919302C0E0E0F0E0CF01DF91CF910895C0
:101D70000F931F93CF93DF93009709F48CC0FC015E
:101D8000329713821282009104031091050301150A
:101D9000110581F420813181820F931F209102036C
:101DA000309103032817390779F5F0930303E09383
:101DB000020371C0D80140E050E0AE17BF0750F4F5
:101DC00012962D913C911397AD012115310509F122
:101DD000D901F3CF9D01DA013383228360817181C0
:101DE000860F971F8217930769F4EC0128813981C8
:101DF000260F371F2E5F3F4F318320838A819B81BF
:101E000093838283452B29F4F0930503E093040325
:101E100042C01396FC93EE931297ED0149915991AC
:101E20009E01240F351FE217F30771F48081918121
:101E3000840F951F029611969C938E9382819381B5
:101E400013969C938E931297E0E0F0E0D8011296DF
:101E50008D919C911397009719F0F8018C01F6CFA2
:101E60008D919C9198012E5F3F4F820F931F20917F
:101E70000203309103032817390769F4309729F4D6
:101E8000109205031092040302C013821282109371
:101E9000030300930203DF91CF911F910F910895E7
:101EA000A0E0B0E0E6E5FFE00C945410EC010097F0
:101EB00021F4CB010E94230EB8C0FC01E60FF71FEE
:101EC0009C0122503109E217F30708F4ACC0D90194
:101ED0000D911C91119706171707B0F005301105E9
:101EE00008F49FC0C80104978617970708F499C0A3
:101EF00002501109061B170B019311936D937C93EC
:101F0000CF010E94B80E8DC05B01A01AB10A4C012E
:101F1000800E911EA0910403B091050340E050E0B3
:101F2000E12CF12C109709F44AC0A815B905D1F598
:101F30006D907C901197630182E0C80ED11CCA1489
:101F4000DB0480F1A3014A195B096A0182E0C80E33
:101F5000D11C1296BC9012971396AC91B5E0CB169B
:101F6000D10440F0B282A38351834083D9016D93A1
:101F70007C930AC00E5F1F4FC301800F911FF901B0
:101F800091838083EB2DFA2FE114F10431F0D70116
:101F90001396FC93EE93129744C0F0930503E093DD
:101FA00004033FC08D919C9111974817590708F47D
:101FB000AC017D0112960D90BC91A02DB3CF809104
:101FC00002039091030388159905E1F4461757071A
:101FD000C8F48091000190910101009741F48DB700
:101FE0009EB74091040150910501841B950BE817A1
:101FF000F907C8F4F0930303E0930203F901718336
:1020000060830FC0CB010E94230E7C01009759F022
:10201000A801BE010E943710CE010E94B80EC70170
:1020200004C0CE0102C080E090E0CDB7DEB7EEE0A4
:102030000C947010FB01DC0105900D920020E1F77B
:102040000895FC0105900020E9F7809590958E0F8A
:102050009F1F0895FB01DC0104C08D910190801940
:1020600021F441505040C8F7881B990B0895FB019B
:10207000DC0102C001900D9241505040D8F7089504
:10208000FB01DC018D91019080190110D9F3990BAE
:102090000895FB01DC0101900D920020E1F7089505
:1020A0002F923F924F925F926F927F928F929F9268
:1020B000AF92BF92CF92DF92EF92FF920F931F9356
:1020C000CF93DF93CDB7DEB7CA1BDB0B0FB6F89407
:1020D000DEBF0FBECDBF09942A88398848885F8447
:1020E0006E847D848C849B84AA84B984C884DF80B8
:1020F000EE80FD800C811B81AA81B981CE0FD11D9C
:102100000FB6F894DEBF0FBECDBFED010895F89471
:02211000FFCFFF
:10211200000006038000454C2D436C69656E7420F7
:102122002872652D297374617274696E6721004586
:102132004C2D436C69656E742073796E6320666101
:10214200696C65642100454C2D436C69656E742091
:1021520073796E63656421000D0A006E616E006919
:102162006E66006F7666002E00000000004E05A627
:1021720003CF04E904DB042C05454C433A20676F86
:10218200742000204000454C433A20496E76616C31
:1021920069642043524300524553505F563A20002F
:1021A200524553505F43423A20004E4545445F53E7
:1021B200594E432100434D443F3F004241443A209F
:0221C20000001B
:00000001FF
