:100000000C9436000C945E000C945E000C945E0020
:100010000C945E000C945E000C945E000C945E00E8
:100020000C945E000C945E000C945E000C945E00D8
:100030000C945E000C945E000C945E000C945E00C8
:100040000C94CD010C945E000C945E020C94900212
:100050000C945E000C945E000C945E000C945E00A8
:100060000C945E000C945E00C001C00211241FBEFF
:10007000CFEFD8E0DEBFCDBF12E0A0E0B1E0E4E713
:10008000FDE102C005900D92A037B107D9F723E03A
:10009000A0E7B2E001C01D92AF3CB207E1F710E06B
:1000A000CCE6D0E004C02297FE010E94470CC8367F
:1000B000D107C9F70E9449040C94B80E0C940000B3
:1000C00066E071E08EE293E00E94BC04109276023A
:1000D000089568E171E08EE293E00C94BC0467E25D
:1000E00071E08EE293E00E94BC0440E067E371E0BF
:1000F00087E792E00E949E0A40E063E471E087E7B0
:1001000092E00E949E0A81E08093760208950F9308
:100110001F93CF93DF93CDB7DEB72C970FB6F8942C
:10012000DEBF0FBECDBF8C0162E571E08EE293E0D1
:100130000E94A404B801CE0107960E94A60BBE013E
:10014000695F7F4F8EE293E00E94AA0463E671E04C
:100150008EE293E00E94A404B801CE0101960E94B1
:10016000A60BBE016F5F7F4F8EE293E00E94AA0450
:10017000CE0101960E948005CE0107960E9480055F
:100180002C960FB6F894DEBF0FBECDBFDF91CF9196
:100190001F910F910895CF93DF931F92CDB7DEB7D4
:1001A000DC011496ED91FC91159722813381213069
:1001B0003105F1F441E050E0BE016F5F7F4F0E94D6
:1001C000670B8981853039F469E671E08EE293E04E
:1001D0000E94BC040DC068E771E08EE293E00E94CB
:1001E000A4044AE050E069818EE293E00E943B055E
:1001F0000F90DF91CF91089526E040E052EC61E04E
:1002000070E08EE293E00E94E60369E871E08EE21E
:1002100093E00E94BC046BEC70E083E992E00E94E2
:10022000EA0B40ED57E060E070E081E992E00E9467
:100230009C09811107C06DE971E08EE293E00E9494
:10024000BC04EFCF64EB71E08EE293E00E94BC044B
:100250006FE670E087E792E00E94EA0B60E670E0EC
:100260008DE792E00E94EA0B69E670E083E892E095
:100270000E94EA0B67E870E089E892E00E94EA0BCE
:1002800087E792E00E94120A66EC71E08EE293E04A
:100290000C94BC040F931F93CF93DF93CDB7DEB7BD
:1002A0002C970FB6F894DEBF0FBECDBF81E992E068
:1002B0000E94320880917602882309F456C00E9479
:1002C0001702009170021091710220917202309118
:1002D0007302601B710B820B930B613A7F408105A7
:1002E000910508F442C064ED71E08EE293E00E9453
:1002F000BC0480917402909175029C012F5F3F4F66
:1003000030937502209374024BE0BE016F5F7F4F04
:100310000E944C0E00E020E0AE014F5F5F4F67E3AC
:1003200071E087E792E00E944C0B809174029091FB
:1003300075024BE0BE016F5F7F4F8D599F4F0E944A
:100340004C0E20E0AE014F5F5F4F6FED71E087E72D
:1003500092E00E944C0B0E9417026093700270930F
:10036000710280937202909373022C960FB6F894E8
:10037000DEBF0FBECDBFDF91CF911F910F910895CA
:100380004EE253E0BA0181E992E00E94A90661E9D8
:1003900072E087E792E00C94F7091F920F920FB674
:1003A0000F9211242F933F938F939F93AF93BF93FB
:1003B0008091260390912703A0912803B0912903EF
:1003C0003091250323E0230F2D3720F40196A11D42
:1003D000B11D05C026E8230F0296A11DB11D209373
:1003E00025038093260390932703A0932803B093BB
:1003F000290380912A0390912B03A0912C03B091A3
:100400002D030196A11DB11D80932A0390932B0308
:10041000A0932C03B0932D03BF91AF919F918F9127
:100420003F912F910F900FBE0F901F9018952FB7EF
:10043000F89460912603709127038091280390918E
:1004400029032FBF0895789484B5826084BD84B554
:10045000816084BD85B5826085BD85B5816085BDBF
:10046000EEE6F0E0808181608083E1E8F0E01082D8
:10047000808182608083808181608083E0E8F0E019
:10048000808181608083E1EBF0E080818460808303
:10049000E0EBF0E0808181608083EAE7F0E080813A
:1004A000846080838081826080838081816080839A
:1004B0008081806880831092C10008951F920F92FE
:1004C0000FB60F9211242F938F939F93EF93FF9367
:1004D000E0913E03F0913F038081E0914403F0916D
:1004E000450382FD12C09081809147038F5F8F7317
:1004F00020914803821751F0E0914703F0E0E25D5C
:10050000FC4F958F8093470301C08081FF91EF914D
:100510009F918F912F910F900FBE0F901F90189564
:100520001F920F920FB60F9211242F933F934F9368
:100530005F936F937F938F939F93AF93BF93EF934B
:10054000FF938EE293E00E943E03FF91EF91BF91F3
:10055000AF919F918F917F916F915F914F913F915B
:100560002F910F900FBE0F901F9018958EE293E081
:100570000E94030321E0892B09F420E0822F0895D3
:10058000109231031092300388EE93E0A0E0B0E0C7
:100590008093320390933303A0933403B0933503D5
:1005A0008DEF91E090932F0380932E0385EC90E0E4
:1005B00090933B0380933A0384EC90E090933D0347
:1005C00080933C0380EC90E090933F0380933E0344
:1005D00081EC90E0909341038093400382EC90E0A3
:1005E000909343038093420386EC90E090934503FD
:1005F00080934403109247031092480310924903DA
:1006000010924A030895FC01818D228D90E0805C58
:100610009F4F821B91098F7399270895FC01918D3B
:10062000828D981731F0828DE80FF11D858D90E055
:1006300008958FEF9FEF0895FC01918D828D98179B
:1006400061F0828DDF01A80FB11D5D968C91928DB6
:100650009F5F9F73928F90E008958FEF9FEF0895B3
:1006600086EB92E0892B49F080E090E0892B29F01D
:100670000E94B60281110C9400000895FC01848D43
:10068000DF01A80FB11DA35ABF4F2C91848D90E0BC
:1006900001968F739927848FA689B7892C93A08997
:1006A000B1898C9180648C93938D848D981306C04E
:1006B0000288F389E02D80818F7D80830895CF9318
:1006C000DF93EC01888D8823C9F0EA89FB8980815A
:1006D00085FD05C0A889B9898C9186FD0FC00FB62C
:1006E00007FCF5CF808185FFF2CFA889B9898C916D
:1006F00085FFEDCFCE010E943E03E7CFDF91CF9182
:100700000895CF92DF92FF920F931F93CF93DF93C1
:100710001F92CDB7DEB76C0181E0D60158968C935D
:1007200058975B969C915B975C968C915C9798131D
:1007300007C05096ED91FC915197808185FD2EC0A8
:10074000F601038D10E00F5F1F4F0F731127F02E7E
:10075000F601848DF81211C00FB607FCF9CFD6014F
:100760005096ED91FC915197808185FFF1CFC601A4
:1007700069830E943E036981EBCF838DE80FF11DF1
:10078000E35AFF4F6083D6015B960C935B975296BA
:10079000ED91FC915397808180620CC0D6015696F2
:1007A000ED91FC91579760835096ED91FC91519794
:1007B00080818064808381E090E00F90DF91CF9111
:1007C0001F910F91FF90DF90CF900895BF92CF922D
:1007D000DF92EF92FF92CF93DF93EC016A017B01EE
:1007E000B22EE889F98982E08083411581EE5807AD
:1007F00061057105A1F060E079E08DE390E0A7016B
:1008000096010E94230C2150310941095109569546
:10081000479537952795211580E1380798F0E889A5
:10082000F989108260E874E88EE190E0A7019601F2
:100830000E94230C215031094109510956954795D1
:1008400037952795EC85FD853083EE85FF852083E0
:10085000188EEC89FD89B082EA89FB8980818061EC
:100860008083EA89FB89808188608083EA89FB89AB
:10087000808180688083EA89FB8980818F7D808385
:10088000DF91CF91FF90EF90DF90CF90BF900895D0
:1008900008950E9423020E9448040E94FC00C0E3C5
:1008A000D3E00E944A012097E1F30E943003F9CF80
:1008B000CF92DF92EF92FF920F931F93CF93DF932C
:1008C0006C017A01EB01E60EF71E00E010E0CE1598
:1008D000DF0561F06991D601ED91FC910190F08105
:1008E000E02DC6010995080F191FF1CFC801DF914E
:1008F000CF911F910F91FF90EF90DF90CF900895CF
:100900006115710581F0DB010D900020E9F7AD0163
:1009100041505109461B570BDC01ED91FC910280BF
:10092000F381E02D099480E090E00895DC01ED91E1
:10093000FC91DB0114964D915C9115976D917C9122
:100940000280F381E02D09940C94800469E072E048
:100950000C9480040F931F93CF93DF93EC010E94BC
:1009600096048C01CE010E94A604800F911FDF9196
:10097000CF911F910F9108950F931F93CF93DF9302
:10098000EC010E9480048C01CE010E94A604800F1D
:10099000911FDF91CF911F910F9108958F929F9298
:1009A000AF92BF92CF92DF92EF92FF920F931F937D
:1009B000CF93DF93CDB7DEB7A1970FB6F894DEBF24
:1009C0000FBECDBF7C01C42EE52FCB01D22E19A2C4
:1009D00021E02D1510F02AE0D22E8E010F5D1F4F61
:1009E0008D2C912CA12CB12C6C2D7E2FA501940166
:1009F0000E94230C8C2DD29E8019112401501109C4
:100A00008A3010F4805D01C0895CF8018083211573
:100A100031054105510521F0C22EE32FCA01E4CF73
:100A2000B801C7010E948004A1960FB6F894DEBFFA
:100A30000FBECDBFDF91CF911F910F91FF90EF902F
:100A4000DF90CF90BF90AF909F908F900895211529
:100A5000310541F4DC01ED91FC910190F081E02D34
:100A6000642F09940C94CE049A01462F50E060E064
:100A700070E00C9427050F931F93CF93DF93EC0145
:100A80009A01462F50E060E070E00E9427058C013B
:100A9000CE010E94A604800F911FDF91CF911F917C
:100AA0000F9108959A01AB0160E070E00C94270566
:100AB0000F931F93CF93DF93EC019A01AB0160E09A
:100AC00070E00E9427058C01CE010E94A604800FD1
:100AD000911FDF91CF911F910F9108950F931F9355
:100AE000CF93DF93EC010E9427058C01CE010E9479
:100AF000A604800F911FDF91CF911F910F91089550
:100B0000FC01808191810C94E30CCF93DF93EC0185
:100B100088819981009711F00E94E30C1982188254
:100B20001D821C821B821A82DF91CF9108950F9340
:100B30001F93CF93DF93EC018B016F5F7F4F888111
:100B400099810E94720D009731F0998388831B83ED
:100B50000A8381E001C080E0DF91CF911F910F9166
:100B60000895CF93DF93EC0188819981892B29F037
:100B70008A819B818617970760F4CE010E949705B2
:100B8000882341F08C819D81892B19F4E881F981BA
:100B9000108281E0DF91CF910895EF92FF920F9341
:100BA0001F93CF93DF93EC017B018A01BA010E946E
:100BB000B105811104C0CE010E94850507C01D83C7
:100BC0000C83B701888199810E94450ECE01DF9187
:100BD000CF911F910F91FF90EF900895FC0111822A
:100BE000108213821282158214826115710559F0E8
:100BF000FB0101900020E9F7AF0141505109461B6C
:100C0000570B0C94CD050895EF92FF920F931F930D
:100C1000CF93DF93EC017B010C811D816115710580
:100C200011F480E016C04115510591F0040F151F15
:100C3000B8010E94B1058823A1F3288139818C81F4
:100C40009D81B701820F931F0E94450E1D830C8367
:100C500081E0DF91CF911F910F91FF90EF90089568
:100C6000CF93DF9300D0CDB7DEB769831A8241E01E
:100C700050E0BE016F5F7F4F0E9404060F900F90FF
:100C8000DF91CF910895CF93DF93EC01888599850B
:100C9000603CA1F06B3D21F5DC01ED91FC910190F0
:100CA000F081E02D6BED099588859985DC01ED914A
:100CB000FC910190F081E02D6DED18C0DC01ED910B
:100CC000FC910190F081E02D6BED09958885998567
:100CD000DC01ED91FC910190F081E02D6CED06C0FE
:100CE000DC01ED91FC910190F081E02DDF91CF913D
:100CF0000994EF92FF920F931F93CF93DF937C01A0
:100D00008A01EB01060F171FC017D10729F069915F
:100D1000C7010E944306F8CFDF91CF911F910F9139
:100D2000FF90EF900895CF93DF93EC01BC01655FD6
:100D30007F4F42E050E00E94790688859985DC016A
:100D4000ED91FC910190F081E02D60ECDF91CF916D
:100D500009940F931F93CF93DF93EC018B01FC0158
:100D600041935193CF010E94E40B1987088781E0DA
:100D70008A87CE0144969E878D8780E890E0988B85
:100D80008F871A8A198A1B8ADF91CF911F910F9141
:100D90000895FC012285222321F0808191810C9409
:100DA000BC04089546275427452754279A01222733
:100DB00084E0220F331F8A95E1F724273527C901E4
:100DC000892F992782958F70822793279C0122274C
:100DD00055E0369527955A95E1F782279327089590
:100DE000EF92FF920F931F93CF93DF937C018A01C1
:100DF000C901EB01060F171FC017D10731F0699128
:100E0000AC01C7010E94D206F7CFDF91CF911F91AD
:100E10000F91FF90EF900895AF92BF92CF92DF9223
:100E2000EF92FF920F931F93CF93DF9300D000D0E8
:100E300000D0CDB7DEB78C01DC011D96ED90FC90A3
:100E40001E971A968C911A97882309F47DC06AE13F
:100E500072E08D919C910E94A404F80161897289CD
:100E60004AE050E0808191810E94520564E272E084
:100E7000D8018D919C910E94A404F8014585568566
:100E8000662757FD6095762F20E130E080819181C3
:100E90000E94270568E472E0D8018D919C910E9420
:100EA000A404F7016081718140E150E0D8018D9187
:100EB0009C910E94520569E472E0F8018081918161
:100EC0000E94A404D70114964D915D916D917C917F
:100ED000179720E130E0F801808191810E94270579
:100EE00069E472E0D8018D919C910E94A404F701FD
:100EF0006281738140E150E0D8018D919C910E9404
:100F0000520568E0C62ED12CF801218932898081F2
:100F10009181C216D306B0F469E472E00E94A40481
:100F2000D8011D96ED91FC911E97EC0DFD1D40E141
:100F300050E060818D919C910E943405BFEFCB1AE7
:100F4000DB0AE2CF0E94A604D8015196CD90DC9036
:100F50005297B2E0CB1AD108F801A584B68420E0FC
:100F600030E0A601B501C8010E94F006F501EC0DC4
:100F7000FD1D208131818217930731F067E272E015
:100F8000C8010E94C9065BC0D7012D913C91F801B0
:100F90008081918122303105A1F468E372E00E94E2
:100FA000A404D70114964D915D916D917C91179792
:100FB0002AE030E0F801808191810E946E05C7012E
:100FC00040C023303105B9F561E472E00E94A40409
:100FD000D70114964D915D916D917C9117972AE000
:100FE00030E0F801808191810E94270569E472E078
:100FF000D8018D919C910E94A404F70162817381B4
:101000004AE050E0D8018D919C910E945805F7016B
:1010100004811581C8010E94150C882381F0B70155
:10102000CE0101960E945D0BBE016F5F7F4FC8012C
:101030000E94EE0B04C06BE472E00E94BC0480E0EE
:1010400090E026960FB6F894DEBF0FBECDBFDF91BD
:10105000CF911F910F91FF90EF90DF90CF90BF90B5
:10106000AF9008951F93CF93DF93EC0111E0888533
:101070009985DC01ED91FC910480F581E02D0995C5
:10108000892B09F442C088859985DC01ED91FC919A
:101090000680F781E02D09958B3D910511F41B8B9E
:1010A000E6CF29893A89803C910579F428303105C9
:1010B00020F0CE010E940C0702C080E090E01A8A66
:1010C000198A1B8A009799F222C04B89442361F048
:1010D0008C3D910531F08D3D910529F48BED90E02B
:1010E00002C080EC90E01B8A4F8558892417350791
:1010F00008F0BDCFED85FE85A9014F5F5F4F5A8B8C
:10110000498BE20FF31F8083B2CF80E090E0DF9144
:10111000CF911F9108958F929F92AF92BF92CF92DD
:10112000DF92EF92FF92CF93DF93EC016A017B0194
:101130000E9417024B015C010E941702681979098D
:101140008A099B096C157D058E059F0530F4CE013B
:101150000E943208009781F302C080E090E0DF91A6
:10116000CF91FF90EF90DF90CF90BF90AF909F9086
:101170008F900895EF92FF920F931F93CF93DF9379
:10118000CDB7DEB728970FB6F894DEBF0FBECDBF40
:101190007C017A8369832B833C834D835E8318872C
:1011A0000F83DC011C961C921E921B9718968D9142
:1011B0009C911997DC01ED91FC910190F081E02D5B
:1011C00060EC099542E050E0BE016F5F7F4FC701C0
:1011D0000E947906F7012385348542E050E0BE0184
:1011E0006F5F7F4FC7010E94F006D7011C969C934A
:1011F0008E931B9742E050E0BE01695F7F4FC701AD
:101200000E947906F7012385348542E050E0BE0153
:10121000695F7F4FC7010E94F006D7011C969C931F
:101220008E931B9744E050E0BE016D5F7F4FC70176
:101230000E947906F7012385348544E050E0BE0121
:101240006D5F7F4FC7010E94F006D7011C969C93EB
:101250008E931B9728960FB6F894DEBF0FBECDBFB6
:10126000DF91CF911F910F91FF90EF900895CF9252
:10127000DF92EF92FF920F931F93CF93DF9300D0F3
:10128000CDB7DEB78C017B015A83498342E050E041
:10129000BE016F5F7F4F0E947906F8012385348578
:1012A00042E050E0BE016F5F7F4FC8010E94F00630
:1012B000F80194878387C980DA80CE0CDF1CEC1498
:1012C000FD0491F0F7016081C8010E944306F80116
:1012D00043855485F70161917F01C8010E94D206C0
:1012E000F80194878387EBCFE980FA80F194E19449
:1012F000F108F3E0EF22FF24E114F10491F060E043
:10130000C8010E944306F8014385548560E0C80186
:101310000E94D206F80194878387F1E0EF1AF10862
:10132000EBCF0F900F90DF91CF911F910F91FF9016
:10133000EF90DF90CF9008958F929F92AF92BF92DF
:10134000CF92DF92EF92FF920F931F93CF93DF9391
:10135000EC014A015B016C0182E0C80ED11CEE2455
:10136000D7FCE094FE2C00E010E0A701960161E0BC
:1013700070E0CE010E94BA08CE010E949306B5012A
:10138000A401CE010E948B088C01009711F1F80195
:101390004481558166817781888199814C155D05ED
:1013A0006E057F0531F461E572E00E94BC0481E0C6
:1013B00011C067E572E00E94A404F80144815581E0
:1013C000668177812AE030E0888199810E946E05EC
:1013D000D6CF80E0DF91CF911F910F91FF90EF90DA
:1013E000DF90CF90BF90AF909F908F9008950F9314
:1013F0001F93CF93DF93EC018B010E94E40BCE018E
:1014000006960E94E40BCE010C960E94E40BCE01DE
:1014100042960E94E40B198F088FDF91CF911F91A4
:101420000F910895AF92BF92CF92DF92EF92FF9209
:101430000F931F93CF93DF9300D000D0CDB7DEB7CB
:101440005C016DE572E08EE293E00E94A404650108
:10145000EE24D7FCE094FE2C20E130E0B701A60199
:101460008EE293E00E946E0504E010E020E030E0A0
:10147000A9016AE070E0F501808D918D0E94BA08A3
:10148000C982DA82EB82FC8244E050E0BE016F5FE9
:101490007F4FF501808D918D0E943709C501069619
:1014A000AA2797FDA095BA2F89839A83AB83BC8323
:1014B00044E050E0BE016F5F7F4FF501808D918D5C
:1014C0000E943709C5010C96AA2797FDA095BA2F4F
:1014D00089839A83AB83BC8344E050E0BE016F5F95
:1014E0007F4FF501808D918D0E943709C50142968D
:1014F000AA2797FDA095BA2F89839A83AB83BC83D3
:1015000044E050E0BE016F5F7F4FF501808D918D0B
:101510000E943709F501808D918D0E9493060F90EE
:101520000F900F900F90DF91CF911F910F91FF902F
:10153000EF90DF90CF90BF90AF900895CF92DF9261
:10154000EF92FF920F931F93CF93DF931F92CDB72C
:10155000DEB77C016B01498302E010E020E030E05F
:10156000A9016CE070E0FC01808D918D0E94BA08A9
:10157000F60101900020E9F7AF01415051094C19E3
:101580005D09B601F701808D918D0E94370941E018
:1015900050E0BE016F5F7F4FF701808D918D0E94FB
:1015A0003709F701808D918D0E9493060F90DF918E
:1015B000CF911F910F91FF90EF90DF90CF90089502
:1015C0008F929F92AF92BF92CF92DF92EF920F9342
:1015D0001F93CF93DF9300D000D0CDB7DEB76C015F
:1015E0005B014A013A8329830B83EC8205E010E01A
:1015F00020E030E0A9016BE070E0FC01808D918D6E
:101600000E94BA08F50101900020E9F7AF014150AE
:1016100051094A195B09B501F601808D918D0E942F
:10162000370949815A81B401F601808D918D0E945C
:10163000370942E050E0BE016F5F7F4FF601808DB9
:10164000918D0E94370941E050E0BE016D5F7F4FF0
:10165000F601808D918D0E94370941E050E0BE0176
:101660006C5F7F4FF601808D918D0E943709F601E6
:10167000808D918D0E9493060F900F900F900F9088
:10168000DF91CF911F910F91EF90DF90CF90BF909E
:10169000AF909F908F900895EF920F93FA01019071
:1016A0000020E9F73197E41BF50BE02E022F9F0194
:1016B0000E94E00A0F91EF900895FC017583648306
:1016C000685F7F4F738362831182108208950F9346
:1016D0001F93CF93DF93FC01A081B181C481D58199
:1016E0008A819B81A817B90750F5C281D3812991BE
:1016F00039918EEF9FEF821B930B83709927D383D1
:10170000C2831196B183A0838E01EB01DA01241705
:10171000350708F4D9016A0F7B1FC617D70729F0D0
:10172000D8014D918D014993F8CF820F931F4281CB
:101730005381480F591F53834283C90102C08FEF61
:101740009FEFDF91CF911F910F910895CF92DF927C
:10175000EF92FF920F931F93CF93DF937C01EB01E6
:101760006BE072E00E94EE05EA81FB81C190D190AE
:101770000EEF1FEF0C191D0903701127FB83EA837D
:1017800088819981019699838883EA81FB81C114BC
:10179000D10461F0CF0101969B838A836081C701E8
:1017A0000E94300681E0C81AD108EFCF0E0F1F1F2C
:1017B0001B830A83C701DF91CF911F910F91FF9087
:1017C000EF90DF90CF900895FC0111821082138278
:1017D00012820895FC01738362830895DC011296DE
:1017E000ED91FC9113973097F9F02D913C91119761
:1017F00021153105B9F014968D919C911597AC0186
:101800005595479580FF0AC0D901A40FB51F0D90CB
:10181000BC91A02DAE0FBF1FED91FC91C901840FAB
:10182000951F0994CB0109940895FC018081918151
:10183000892B39F481E022813381232B19F480E054
:10184000089581E00895A1E21A2EAA1BBB1BFD0199
:101850000DC0AA1FBB1FEE1FFF1FA217B307E4078F
:10186000F50720F0A21BB30BE40BF50B661F771FE7
:10187000881F991F1A9469F76095709580959095C7
:101880009B01AC01BD01CF010895EE0FFF1F059034
:10189000F491E02D0994CF93DF938230910510F4F9
:1018A00082E090E0E091CD03F091CE0320E030E0C3
:1018B000A0E0B0E0309739F14081518148175907D5
:1018C000B8F04817590771F482819381109729F075
:1018D00013969C938E9312972CC09093CE03809373
:1018E000CD0327C02115310531F04217530718F0F9
:1018F000A901DB0101C0EF019A01BD01DF010280F6
:10190000F381E02DD7CF21153105F9F0281B390BD4
:101910002430310580F48A819B816115710521F0A5
:10192000FB019383828304C09093CE038093CD0305
:10193000FE01329644C0FE01E20FF31F81939193A2
:1019400022503109398328833AC02091CB0330914A
:10195000CC03232B41F420910201309103013093F9
:10196000CC032093CB03209100013091010121157C
:10197000310541F42DB73EB7409104015091050166
:10198000241B350BE091CB03F091CC03E217F30756
:10199000A0F42E1B3F0B2817390778F0AC014E5FDF
:1019A0005F4F2417350748F04E0F5F1F5093CC034D
:1019B0004093CB038193919302C0E0E0F0E0CF012C
:1019C000DF91CF910895CF93DF93009709F487C0FB
:1019D000FC01329713821282C091CD03D091CE03C5
:1019E000209781F420813181280F391F8091CB030A
:1019F0009091CC038217930779F5F093CC03E09391
:101A0000CB036DC0DE0120E030E0AE17BF0750F41D
:101A100012964D915C9113979D014115510509F165
:101A2000DA01F3CFB383A28340815181840F951FE4
:101A30008A179B0771F48D919C911197840F951FC4
:101A400002969183808312968D919C911397938334
:101A500082832115310529F4F093CE03E093CD0361
:101A60003EC0D9011396FC93EE9312974D915D9170
:101A7000A40FB51FEA17FB0779F480819181840FC9
:101A8000951F0296D90111969C938E938281938122
:101A900013969C938E931297E0E0F0E08A819B81ED
:101AA000009719F0FE01EC01F9CFCE0102962881D2
:101AB0003981820F931F2091CB033091CC032817DB
:101AC000390769F4309729F41092CE031092CD03B0
:101AD00002C013821282D093CC03C093CB03DF9158
:101AE000CF910895A0E0B0E0E8E7FDE00C94850E0A
:101AF000EC01CB01209719F40E944B0CB8C0FE01F9
:101B0000E60FF71F9E0122503109E217F30708F490
:101B1000ACC0D9010D911C91119706171707B8F0A9
:101B20000530110508F49FC0A8014450510946171B
:101B3000570708F498C002501109061B170B0193B0
:101B400011936D937C93CF010E94E30C8CC05B01D9
:101B5000A01AB10A4E01800E911EA091CD03B09142
:101B6000CE03612C712C60E070E0109709F449C03D
:101B7000A815B905C9F5ED90FC901197670142E0F1
:101B8000C40ED11CCA14DB0478F147018A189B08E3
:101B9000640142E0C40ED11C1296BC9012971396B9
:101BA000AC91B5E0CB16D10440F0B282A383918210
:101BB0008082D9018D939C9309C00E5F1F4F0E0D3B
:101BC0001F1DF90111830083EB2DFA2F611571059B
:101BD00031F0DB011396FC93EE93129744C0F0931F
:101BE000CE03E093CD033FC06D917C9111976616B3
:101BF000770608F43B01BD0112960D90BC91A02D13
:101C0000B4CF6091CB037091CC0368157905E9F4EA
:101C100068167906D0F440910001509101014115F8
:101C2000510541F44DB75EB7609104017091050113
:101C3000461B570BE417F507C0F4F093CC03E09371
:101C4000CB03F901918380830EC00E944B0C7C0171
:101C5000009759F0A801BE010E943C0ECE010E94DF
:101C6000E30CC70104C0CE0102C080E090E0CDB714
:101C7000DEB7EEE00C94A10EFB01DC0102C0019086
:101C80000D9241505040D8F70895FB01DC010190BE
:101C90000D920020E1F70895BB274A3031F49923D3
:101CA00022F4BDE2909581959F4F0C94580EBB276E
:101CB000FB015527AA27880F991FAA1FA41710F008
:101CC000A41B83955051B9F7A05DAA3308F0A95D14
:101CD000A193009779F7B111B1931192CB010C94B4
:101CE000710EDC01FC01672F71917723E1F73297C8
:101CF00004C07C916D9370836291AE17BF07C8F3E7
:101D000008952F923F924F925F926F927F928F929F
:101D10009F92AF92BF92CF92DF92EF92FF920F937A
:101D20001F93CF93DF93CDB7DEB7CA1BDB0B0FB684
:101D3000F894DEBF0FBECDBF09942A883988488841
:101D40005F846E847D848C849B84AA84B984C884D7
:101D5000DF80EE80FD800C811B81AA81B981CE0FCE
:101D6000D11D0FB6F894DEBF0FBECDBFED010895B3
:041D7000F894FFCF15
:101D74000000CF0380004D51545420646973636F95
:101D84006E6E6563746564004D51545420707562C1
:101D94006C6973686564004D51545420636F6E6EB2
:101DA400656374656421002F6573702D6C696E6BB7
:101DB4002F31002F72756D61682F706F6D70612FF8
:101DC400230052656365697665643A20746F7069AF
:101DD400633D00646174613D005749464920434FA7
:101DE4004E4E45435445440057494649204E4F54AE
:101DF4002052454144593A2000454C2D436C6965B5
:101E04006E74207374617274696E672100454C2D81
:101E1400436C69656E742073796E63206661696CC6
:101E240065642100454C2D436C69656E742073799B
:101E34006E6365642100454C2D4D515454207265E8
:101E4400616479007075626C697368696E67002FEC
:101E540072756D61682F706F6D70612F707265732C
:101E64007375726548656164000000000081035861
:101E74000403031C030E035F030D0A006E616E006E
:101E8400696E66006F7666002E00454C433A206703
:101E94006F742000204000454C433A20496E76611F
:101EA4006C69642043524300524553505F563A20B4
:101EB40000524553505F43423A2000434D443F3F54
:101EC4000053594E4321004241443A2000436F6E6F
:101ED4006E65637465644342206973203078000042
:00000001FF
