:100000000C943F000C9467000C9467000C946700FC
:100010000C9467000C9467000C9467000C946700C4
:100020000C9467000C9467000C9467000C946700B4
:100030000C9467000C9467000C9467000C946700A4
:100040000C94F6010C9467000C9487020C94B9028E
:100050000C9467000C9467000C9467000C94670084
:100060000C9467000C946700436F6E6E6563746553
:1000700064434220697320307800E301E9021124CF
:100080001FBECFEFD8E0DEBFCDBF12E0A0E0B1E0F1
:10009000E0E7FEE102C005900D92A036B107D9F766
:1000A00023E0A0E6B2E001C01D92A13CB207E1F757
:1000B00010E0CEE7D0E004C02297FE010E94C50CFC
:1000C000CA37D107C9F70E9472040C94360F0C94FA
:1000D000000066E071E080E293E00E940A05109261
:1000E0006602089568E171E080E293E00C940A05ED
:1000F00067E271E080E293E00E940A0540E067E376
:1001000071E087E692E00E941C0B40E063E471E03E
:1001100087E692E00E941C0B81E0809366020895BE
:100120000F931F93CF93DF93CDB7DEB72C970FB606
:10013000F894DEBF0FBECDBF8C0162E571E080E2B6
:1001400093E00E94F204B801CE0107960E94240CAD
:10015000BE01695F7F4F80E293E00E94F80463E68E
:1001600071E080E293E00E94F204B801CE010196B2
:100170000E94240CBE016F5F7F4F80E293E00E94DB
:10018000F804CE0101960E94CE05CE0107960E948A
:10019000CE052C960FB6F894DEBF0FBECDBFDF9113
:1001A000CF911F910F910895CF93DF931F92CDB7F9
:1001B000DEB7DC011496ED91FC9115972281338115
:1001C00021303105F1F441E050E0BE016F5F7F4F17
:1001D0000E94E50B8981853039F469E671E080E29F
:1001E00093E00E940A050DC068E771E080E293E0A9
:1001F0000E94F2044AE050E0698180E293E00E94AC
:1002000089050F90DF91CF91089526E040E052ECF0
:1002100061E070E080E293E00E940F0469E871E021
:1002200080E293E00E940A0564ED70E085E892E0C8
:100230000E94680C40ED57E060E070E083E892E0D7
:100240000E941A0A811107C06DE971E080E293E013
:100250000E940A05EFCF64EB71E080E293E00E9418
:100260000A0568E770E087E692E00E94680C69E69C
:1002700070E08DE692E00E94680C62E770E083E730
:1002800092E00E94680C60E970E089E792E00E94C9
:10029000680C87E692E00E94900A66EC71E080E2CA
:1002A00093E00C940A05CF92DF92EF92FF920F93A6
:1002B000CF93DF93CDB7DEB72C970FB6F894DEBFA0
:1002C0000FBECDBF83E892E00E94B0088091660225
:1002D000882309F46AC00E944002C0906002D09056
:1002E0006102E0906202F09063026C197D098E0950
:1002F0009F09613A7F408105910508F456C064ED7D
:1003000071E080E293E00E940A058091640290917E
:1003100065029C012F5F3F4F30936502209364027A
:100320004AE0BE016F5F7F4F0E94CA0E00E020E0EE
:10033000AE014F5F5F4F67E371E087E692E00E9496
:10034000CA0B80916402909165024AE0BE016F5F22
:100350007F4F8D599F4F0E94CA0E20E0AE014F5F24
:100360005F4F6FED71E087E692E00E94CA0B81E873
:1003700092E00E9495066B017C0164EF71E080E2DF
:1003800093E00E94F2042AE030E0B701A60180E287
:1003900093E00E94BC050E9440026093600270934B
:1003A000610280936202909363022C960FB6F894D8
:1003B000DEBF0FBECDBFDF91CF910F91FF90EF90C9
:1003C000DF90CF90089540E253E0BA0183E892E0D5
:1003D0000E94270763E872E081E892E00E9491069C
:1003E00063E872E087E692E00C94750A1F920F9220
:1003F0000FB60F9211242F933F938F939F93AF9338
:10040000BF938091180390911903A0911A03B091A2
:100410001B033091170323E0230F2D3720F401969F
:10042000A11DB11D05C026E8230F0296A11DB11D17
:10043000209317038093180390931903A0931A0332
:10044000B0931B0380911C0390911D03A0911E0388
:10045000B0911F030196A11DB11D80931C039093C1
:100460001D03A0931E03B0931F03BF91AF919F91F3
:100470008F913F912F910F900FBE0F901F90189565
:100480002FB7F894609118037091190380911A03A3
:1004900090911B032FBF0895789484B5826084BD2A
:1004A00084B5816084BD85B5826085BD85B5816078
:1004B00085BDEEE6F0E0808181608083E1E8F0E0D8
:1004C0001082808182608083808181608083E0E807
:1004D000F0E0808181608083E1EBF0E080818460E6
:1004E0008083E0EBF0E0808181608083EAE7F0E0E8
:1004F000808184608083808182608083808181604C
:1005000080838081806880831092C10008951F924B
:100510000F920FB60F9211242F938F939F93EF9307
:10052000FF93E0913003F09131038081E091360335
:10053000F091370382FD12C09081809139038F5F63
:100540008F7320913A03821751F0E0913903F0E064
:10055000E05EFC4F958F8093390301C08081FF914D
:10056000EF919F918F912F910F900FBE0F901F9041
:1005700018951F920F920FB60F9211242F933F934D
:100580004F935F936F937F938F939F93AF93BF939B
:10059000EF93FF9380E293E00E946703FF91EF9156
:1005A000BF91AF919F918F917F916F915F914F918B
:1005B0003F912F910F900FBE0F901F90189580E2E2
:1005C00093E00E942C0321E0892B09F420E0822F84
:1005D0000895109223031092220388EE93E0A0E086
:1005E000B0E08093240390932503A0932603B09357
:1005F00027038FEF91E0909321038093200385ECF4
:1006000090E090932D0380932C0384EC90E09093E2
:100610002F0380932E0380EC90E09093310380931E
:10062000300381EC90E0909333038093320382ECAB
:1006300090E0909335038093340386EC90E09093A0
:100640003703809336031092390310923A031092C5
:100650003B0310923C030895FC01818D228D90E0B4
:10066000805C9F4F821B91098F7399270895FC012D
:10067000918D828D981731F0828DE80FF11D858D57
:1006800090E008958FEF9FEF0895FC01918D828D8A
:10069000981761F0828DDF01A80FB11D5D968C91D6
:1006A000928D9F5F9F73928F90E008958FEF9FEFE1
:1006B00008958FED92E0892B49F080E090E0892B3E
:1006C00029F00E94DF0281110C9400000895FC01C2
:1006D000848DDF01A80FB11DA35ABF4F2C91848DCB
:1006E00090E001968F739927848FA689B7892C9300
:1006F000A089B1898C9180648C93938D848D98139B
:1007000006C00288F389E02D80818F7D8083089563
:10071000CF93DF93EC01888D8823C9F0EA89FB89A8
:10072000808185FD05C0A889B9898C9186FD0FC09F
:100730000FB607FCF5CF808185FFF2CFA889B98974
:100740008C9185FFEDCFCE010E946703E7CFDF914B
:10075000CF910895CF92DF92FF920F931F93CF9383
:10076000DF931F92CDB7DEB76C0181E0D6015896BA
:100770008C9358975B969C915B975C968C915C9759
:10078000981307C05096ED91FC915197808185FD9B
:100790002EC0F601038D10E00F5F1F4F0F7311275E
:1007A000F02EF601848DF81211C00FB607FCF9CFB8
:1007B000D6015096ED91FC915197808185FFF1CF44
:1007C000C60169830E9467036981EBCF838DE80FBF
:1007D000F11DE35AFF4F6083D6015B960C935B9744
:1007E0005296ED91FC915397808180620CC0D601A6
:1007F0005696ED91FC91579760835096ED91FC9140
:10080000519780818064808381E090E00F90DF9138
:10081000CF911F910F91FF90DF90CF900895BF92DD
:10082000CF92DF92EF92FF92CF93DF93EC016A01B8
:100830007B01B22EE889F98982E08083411581EE3F
:10084000580761057105A1F060E079E08DE390E063
:10085000A70196010E94A10C2150310941095109BB
:100860005695479537952795211580E1380798F0DB
:10087000E889F989108260E874E88EE190E0A701C8
:1008800096010E94A10C2150310941095109569548
:10089000479537952795EC85FD853083EE85FF8557
:1008A0002083188EEC89FD89B082EA89FB898081DA
:1008B00080618083EA89FB89808188608083EA89FE
:1008C000FB89808180688083EA89FB8980818F7DB4
:1008D0008083DF91CF91FF90EF90DF90CF90BF901A
:1008E000089508950E944C020E9471040E9405011F
:1008F000C9E5D3E00E9453012097E1F30E94590318
:10090000F9CFCF92DF92EF92FF920F931F93CF9385
:10091000DF936C017A01EB01E60EF71E00E010E0B8
:10092000CE15DF0561F06991D601ED91FC91019042
:10093000F081E02DC6010995080F191FF1CFC801FC
:10094000DF91CF911F910F91FF90EF90DF90CF90AB
:1009500008956115710581F0DB010D900020E9F724
:10096000AD0141505109461B570BDC01ED91FC9143
:100970000280F381E02D099480E090E00895EF92E9
:10098000FF920F931F93CF93DF938C01FB01C0E085
:10099000D0E064917F018FEFE81AF80A662361F0D6
:1009A000D801ED91FC910190F081E02DC8010995ED
:1009B000C80FD91FF701EDCFCE01DF91CF911F9165
:1009C0000F91FF90EF900895DC01ED91FC91DB0118
:1009D00014964D915C9115976D917C910280F381F5
:1009E000E02D09940C94A9046BE072E00C94A90426
:1009F0000F931F93CF93DF93EC010E94E4048C01CB
:100A0000CE010E94F404800F911FDF91CF911F91BE
:100A10000F9108950F931F93CF93DF93EC010E94E2
:100A2000A9048C01CE010E94F404800F911FDF9174
:100A3000CF911F910F9108958F929F92AF92BF9285
:100A4000CF92DF92EF92FF920F931F93CF93DF939A
:100A5000CDB7DEB7A1970FB6F894DEBF0FBECDBFFE
:100A60007C01C42EE52FCB01D22E19A221E02D1539
:100A700010F02AE0D22E8E010F5D1F4F8D2C912C8D
:100A8000A12CB12C6C2D7E2FA50194010E94A10CEC
:100A90008C2DD29E80191124015011098A3010F436
:100AA000805D01C0895CF801808321153105410515
:100AB000510521F0C22EE32FCA01E4CFB801C701CE
:100AC0000E94A904A1960FB6F894DEBF0FBECDBF59
:100AD000DF91CF911F910F91FF90EF90DF90CF901A
:100AE000BF90AF909F908F9008952115310541F4EC
:100AF000DC01ED91FC910190F081E02D642F0994CF
:100B00000C941C059A01462F50E060E070E00C94B4
:100B100075050F931F93CF93DF93EC019A01462F36
:100B200050E060E070E00E9475058C01CE010E94EB
:100B3000F404800F911FDF91CF911F910F910895C1
:100B40009A01AB0160E070E00C9475050F931F9360
:100B5000CF93DF93EC019A01AB0160E070E00E945B
:100B600075058C01CE010E94F404800F911FDF9166
:100B7000CF911F910F9108950F931F93CF93DF9300
:100B8000EC010E9475058C01CE010E94F404800FD7
:100B9000911FDF91CF911F910F910895FC018081EA
:100BA00091810C94610DCF93DF93EC018881998141
:100BB000009711F00E94610D198218821D821C821B
:100BC0001B821A82DF91CF9108950F931F93CF93C9
:100BD000DF93EC018B016F5F7F4F888199810E94C9
:100BE000F00D009731F0998388831B830A8381E09D
:100BF00001C080E0DF91CF911F910F910895CF93B5
:100C0000DF93EC0188819981892B29F08A819B816E
:100C10008617970760F4CE010E94E505882341F00E
:100C20008C819D81892B19F4E881F981108281E002
:100C3000DF91CF910895EF92FF920F931F93CF937F
:100C4000DF93EC017B018A01BA010E94FF0581114B
:100C500004C0CE010E94D30507C01D830C83B701D9
:100C6000888199810E94C30ECE01DF91CF911F919F
:100C70000F91FF90EF900895FC0111821082138272
:100C80001282158214826115710559F0FB010190E1
:100C90000020E9F7AF0141505109461B570B0C9456
:100CA0001B060895EF92FF920F931F93CF93DF934C
:100CB000EC017B010C811D816115710511F480E04F
:100CC00016C04115510591F0040F151FB8010E947F
:100CD000FF058823A1F3288139818C819D81B7018B
:100CE000820F931F0E94C30E1D830C8381E0DF914E
:100CF000CF911F910F91FF90EF900895CF93DF93C5
:100D000000D0CDB7DEB769831A8241E050E0BE0162
:100D10006F5F7F4F0E9452060F900F90DF91CF912F
:100D20000895FC017183608308950F931F93CF93FF
:100D3000DF93EC0100E010E020E030E0A90167E083
:100D400070E0888199810E943809888199810E9488
:100D5000110740ED57E060E070E0888199810E94C2
:100D60000909009731F0FC016481758186819781C2
:100D700003C060E070E0CB01DF91CF911F910F9134
:100D80000895CF93DF93EC0188859985603CA1F0AD
:100D90006B3D21F5DC01ED91FC910190F081E02D9E
:100DA0006BED099588859985DC01ED91FC910190A9
:100DB000F081E02D6DED18C0DC01ED91FC9101900A
:100DC000F081E02D6BED099588859985DC01ED9129
:100DD000FC910190F081E02D6CED06C0DC01ED91FD
:100DE000FC910190F081E02DDF91CF910994EF9279
:100DF000FF920F931F93CF93DF937C018A01EB0146
:100E0000060F171FC017D10729F06991C7010E946B
:100E1000C106F8CFDF91CF911F910F91FF90EF9016
:100E20000895CF93DF93EC01BC01655F7F4F42E0F3
:100E300050E00E94F70688859985DC01ED91FC91D0
:100E40000190F081E02D60ECDF91CF9109940F9338
:100E50001F93CF93DF93EC018B01FC0141935193DE
:100E6000CF010E94620C1987088781E08A87CE0132
:100E700044969E878D8780E890E0988B8F871A8AAA
:100E8000198A1B8ADF91CF911F910F910895FC0160
:100E90002285222321F0808191810C940A050895F6
:100EA00046275427452754279A01222784E0220FFA
:100EB000331F8A95E1F724273527C901892F992700
:100EC00082958F70822793279C01222755E03695C3
:100ED00027955A95E1F7822793270895EF92FF927D
:100EE0000F931F93CF93DF937C018A01C901EB011C
:100EF000060F171FC017D10731F06991AC01C70168
:100F00000E945007F7CFDF91CF911F910F91FF9073
:100F1000EF900895AF92BF92CF92DF92EF92FF923F
:100F20000F931F93CF93DF9300D000D000D0CDB7A5
:100F3000DEB78C01DC011D96ED90FC901E971A9691
:100F40008C911A97882309F47DC06CE172E08D9131
:100F50009C910E94F204F801618972894AE050E094
:100F6000808191810E94A00566E272E0D8018D9196
:100F70009C910E94F204F80145855685662757FD2D
:100F80006095762F20E130E0808191810E94750587
:100F90006AE472E0D8018D919C910E94F204F701FD
:100FA0006081718140E150E0D8018D919C910E9457
:100FB000A0056BE472E0F801808191810E94F20447
:100FC000D70114964D915D916D917C91179720E119
:100FD00030E0F801808191810E9475056BE472E038
:100FE000D8018D919C910E94F204F7016281738176
:100FF00040E150E0D8018D919C910E94A00568E0ED
:10100000C62ED12CF8012189328980819181C216A6
:10101000D306B0F46BE472E00E94F204D8011D968E
:10102000ED91FC911E97EC0DFD1D40E150E06081BB
:101030008D919C910E948205BFEFCB1ADB0AE2CF13
:101040000E94F404D8015196CD90DC905297B2E002
:10105000CB1AD108F801A584B68420E030E0A601BF
:10106000B501C8010E946E07F501EC0DFD1D208140
:1010700031818217930731F069E272E0C8010E9462
:1010800047075BC0D7012D913C91F8018081918188
:1010900022303105A1F46AE372E00E94F204D70124
:1010A00014964D915D916D917C9117972AE030E0F7
:1010B000F801808191810E94BC05C70140C02330A6
:1010C0003105B9F563E472E00E94F204D701149689
:1010D0004D915D916D917C9117972AE030E0F80178
:1010E000808191810E9475056BE472E0D8018D9139
:1010F0009C910E94F204F701628173814AE050E002
:10110000D8018D919C910E94A605F701048115815B
:10111000C8010E94930C882381F0B701CE0101968B
:101120000E94DB0BBE016F5F7F4FC8010E946C0CF9
:1011300004C06DE472E00E940A0580E090E026960B
:101140000FB6F894DEBF0FBECDBFDF91CF911F91D8
:101150000F91FF90EF90DF90CF90BF90AF900895E8
:101160001F93CF93DF93EC0111E088859985DC0113
:10117000ED91FC910480F581E02D0995892B09F40E
:1011800042C088859985DC01ED91FC910680F7814C
:10119000E02D09958B3D910511F41B8BE6CF298934
:1011A0003A89803C910579F42830310520F0CE0150
:1011B0000E948A0702C080E090E01A8A198A1B8A7E
:1011C000009799F222C04B89442361F08C3D910530
:1011D00031F08D3D910529F48BED90E002C080EC5B
:1011E00090E01B8A4F8558892417350708F0BDCF3A
:1011F000ED85FE85A9014F5F5F4F5A8B498BE20F4A
:10120000F31F8083B2CF80E090E0DF91CF911F91F8
:1012100008958F929F92AF92BF92CF92DF92EF92FA
:10122000FF92CF93DF93EC016A017B010E944002A1
:101230004B015C010E944002681979098A099B09E7
:101240006C157D058E059F0530F4CE010E94B00817
:10125000009781F302C080E090E0DF91CF91FF9092
:10126000EF90DF90CF90BF90AF909F908F900895B8
:10127000EF92FF920F931F93CF93DF93CDB7DEB71B
:1012800028970FB6F894DEBF0FBECDBF7C017A83DE
:1012900069832B833C834D835E8318870F83DC0136
:1012A0001C961C921E921B9718968D919C911997D3
:1012B000DC01ED91FC910190F081E02D60EC09954D
:1012C00042E050E0BE016F5F7F4FC7010E94F7060A
:1012D000F7012385348542E050E0BE016F5F7F4F08
:1012E000C7010E946E07D7011C969C938E931B9793
:1012F00042E050E0BE01695F7F4FC7010E94F706E0
:10130000F7012385348542E050E0BE01695F7F4FDD
:10131000C7010E946E07D7011C969C938E931B9762
:1013200044E050E0BE016D5F7F4FC7010E94F706A9
:10133000F7012385348544E050E0BE016D5F7F4FA7
:10134000C7010E946E07D7011C969C938E931B9732
:1013500028960FB6F894DEBF0FBECDBFDF91CF91B8
:101360001F910F91FF90EF900895CF92DF92EF922F
:10137000FF920F931F93CF93DF9300D0CDB7DEB7CB
:101380008C017B015A83498342E050E0BE016F5FCC
:101390007F4F0E94F706F8012385348542E050E034
:1013A000BE016F5F7F4FC8010E946E07F8019487EE
:1013B0008387C980DA80CE0CDF1CEC14FD0491F029
:1013C000F7016081C8010E94C106F8014385548578
:1013D000F70161917F01C8010E945007F8019487CD
:1013E0008387EBCFE980FA80F194E194F108F3E090
:1013F000EF22FF24E114F10491F060E0C8010E94A3
:10140000C106F8014385548560E0C8010E94500779
:10141000F80194878387F1E0EF1AF108EBCF0F9082
:101420000F90DF91CF911F910F91FF90EF90DF9080
:10143000CF9008958F929F92AF92BF92CF92DF92FA
:10144000EF92FF920F931F93CF93DF93EC014A012A
:101450005B016C0182E0C80ED11CEE24D7FCE09445
:10146000FE2C00E010E0A701960161E070E0CE01E3
:101470000E943809CE010E941107B501A401CE01D6
:101480000E9409098C01009711F1F80144815581EE
:1014900066817781888199814C155D056E057F0590
:1014A00031F463E572E00E940A0581E011C069E54C
:1014B00072E00E94F204F8014481558166817781CF
:1014C0002AE030E0888199810E94BC05D6CF80E077
:1014D000DF91CF911F910F91FF90EF90DF90CF9010
:1014E000BF90AF909F908F9008950F931F93CF93CD
:1014F000DF93EC018B010E94620CCE0106960E94E4
:10150000620CCE010C960E94620CCE0142960E94A3
:10151000620C198F088FDF91CF911F910F91089561
:10152000AF92BF92CF92DF92EF92FF920F931F93F1
:10153000CF93DF9300D000D0CDB7DEB75C0168E673
:1015400070E080E293E00E94BF046501EE24D7FCC6
:10155000E094FE2C20E130E0B701A60180E293E0A8
:101560000E94BC0504E010E020E030E0A9016AE040
:1015700070E0F501808D918D0E943809C982DA8270
:10158000EB82FC8244E050E0BE016F5F7F4FF501CB
:10159000808D918D0E94B509C5010696AA2797FDF9
:1015A000A095BA2F89839A83AB83BC8344E050E033
:1015B000BE016F5F7F4FF501808D918D0E94B5094F
:1015C000C5010C96AA2797FDA095BA2F89839A8307
:1015D000AB83BC8344E050E0BE016F5F7F4FF501F9
:1015E000808D918D0E94B509C5014296AA2797FD6D
:1015F000A095BA2F89839A83AB83BC8344E050E0E3
:10160000BE016F5F7F4FF501808D918D0E94B509FE
:10161000F501808D918D0E9411070F900F900F9012
:101620000F90DF91CF911F910F91FF90EF90DF907E
:10163000CF90BF90AF900895CF92DF92EF92FF923C
:101640000F931F93CF93DF931F92CDB7DEB77C012B
:101650006B01498302E010E020E030E0A9016CE07A
:1016600070E0FC01808D918D0E943809F601019097
:101670000020E9F7AF01415051094C195D09B6014D
:10168000F701808D918D0E94B50941E050E0BE01C7
:101690006F5F7F4FF701808D918D0E94B509F70133
:1016A000808D918D0E9411070F90DF91CF911F9136
:1016B0000F91FF90EF90DF90CF9008958F929F92BF
:1016C000AF92BF92CF92DF92EF920F931F93CF937F
:1016D000DF9300D000D0CDB7DEB76C015B014A01CB
:1016E0003A8329830B83EC8205E010E020E030E0B0
:1016F000A9016BE070E0FC01808D918D0E9438099A
:10170000F50101900020E9F7AF01415051094A1954
:101710005B09B501F601808D918D0E94B509498163
:101720005A81B401F601808D918D0E94B50942E085
:1017300050E0BE016F5F7F4FF601808D918D0E945A
:10174000B50941E050E0BE016D5F7F4FF601808D2D
:10175000918D0E94B50941E050E0BE016C5F7F4F62
:10176000F601808D918D0E94B509F601808D918DD5
:101770000E9411070F900F900F900F90DF91CF9163
:101780001F910F91EF90DF90CF90BF90AF909F90FF
:101790008F900895EF920F93FA0101900020E9F7DE
:1017A0003197E41BF50BE02E022F9F010E945E0B88
:1017B0000F91EF900895FC0175836483685F7F4FFC
:1017C000738362831182108208950F931F93CF93C6
:1017D000DF93FC01A081B181C481D5818A819B8185
:1017E000A817B90750F5C281D381299139918EEF9D
:1017F0009FEF821B930B83709927D383C28311962B
:10180000B183A0838E01EB01DA012417350708F4B8
:10181000D9016A0F7B1FC617D70729F0D8014D9150
:101820008D014993F8CF820F931F42815381480F56
:10183000591F53834283C90102C08FEF9FEFDF918D
:10184000CF911F910F910895CF92DF92EF92FF9267
:101850000F931F93CF93DF937C01EB016DE072E058
:101860000E943C06EA81FB81C190D1900EEF1FEFF0
:101870000C191D0903701127FB83EA838881998164
:10188000019699838883EA81FB81C114D10461F0B8
:10189000CF0101969B838A836081C7010E947E06E7
:1018A00081E0C81AD108EFCF0E0F1F1F1B830A83D8
:1018B000C701DF91CF911F910F91FF90EF90DF90C3
:1018C000CF900895FC011182108213821282089534
:1018D000FC01738362830895DC011296ED91FC9103
:1018E00013973097F9F02D913C91119721153105FF
:1018F000B9F014968D919C911597AC01559547952B
:1019000080FF0AC0D901A40FB51F0D90BC91A02D76
:10191000AE0FBF1FED91FC91C901840F951F099473
:10192000CB0109940895FC0180819181892B39F4C0
:1019300081E022813381232B19F480E0089581E036
:101940000895A1E21A2EAA1BBB1BFD010DC0AA1F00
:10195000BB1FEE1FFF1FA217B307E407F50720F018
:10196000A21BB30BE40BF50B661F771F881F991F93
:101970001A9469F760957095809590959B01AC01DC
:10198000BD01CF010895EE0FFF1F0590F491E02DEA
:101990000994CF93DF938230910510F482E090E0B8
:1019A000E091BF03F091C00320E030E0A0E0B0E0A0
:1019B000309739F14081518148175907B8F04817DD
:1019C000590771F482819381109729F013969C93A3
:1019D0008E9312972CC09093C0038093BF0327C0AF
:1019E0002115310531F04217530718F0A901DB0129
:1019F00001C0EF019A01BD01DF010280F381E02DFA
:101A0000D7CF21153105F9F0281B390B24303105CA
:101A100080F48A819B816115710521F0FB0193831C
:101A2000828304C09093C0038093BF03FE0132966B
:101A300044C0FE01E20FF31F8193919322503109BC
:101A4000398328833AC02091BD033091BE03232BF4
:101A500041F420910201309103013093BE032093A1
:101A6000BD0320910001309101012115310541F4A0
:101A70002DB73EB74091040150910501241B350B51
:101A8000E091BD03F091BE03E217F307A0F42E1B13
:101A90003F0B2817390778F0AC014E5F5F4F2417D2
:101AA000350748F04E0F5F1F5093BE034093BD03B0
:101AB0008193919302C0E0E0F0E0CF01DF91CF91FC
:101AC0000895CF93DF93009709F487C0FC01329704
:101AD00013821282C091BF03D091C003209781F47A
:101AE00020813181280F391F8091BD039091BE0361
:101AF0008217930779F5F093BE03E093BD036DC0A1
:101B0000DE0120E030E0AE17BF0750F412964D9191
:101B10005C9113979D014115510509F1DA01F3CF4D
:101B2000B383A28340815181840F951F8A179B073D
:101B300071F48D919C911197840F951F029691835A
:101B4000808312968D919C911397938382832115A4
:101B5000310529F4F093C003E093BF033EC0D901DF
:101B60001396FC93EE9312974D915D91A40FB51FC0
:101B7000EA17FB0779F480819181840F951F029603
:101B8000D90111969C938E938281938113969C9395
:101B90008E931297E0E0F0E08A819B81009719F024
:101BA000FE01EC01F9CFCE01029628813981820F26
:101BB000931F2091BD033091BE032817390769F4A4
:101BC000309729F41092C0031092BF0302C0138211
:101BD0001282D093BE03C093BD03DF91CF910895CD
:101BE000A0E0B0E0E6EFFDE00C94030FEC01CB01C8
:101BF000209719F40E94C90CB8C0FE01E60FF71F28
:101C00009E0122503109E217F30708F4ACC0D90154
:101C10000D911C91119706171707B8F005301105A3
:101C200008F49FC0A801445051094617570708F40B
:101C300098C002501109061B170B019311936D9365
:101C40007C93CF010E94610D8CC05B01A01AB10A88
:101C50004E01800E911EA091BF03B091C003612C74
:101C6000712C60E070E0109709F449C0A815B9051F
:101C7000C9F5ED90FC901197670142E0C40ED11CAC
:101C8000CA14DB0478F147018A189B08640142E01A
:101C9000C40ED11C1296BC9012971396AC91B5E06D
:101CA000CB16D10440F0B282A38391828082D90105
:101CB0008D939C9309C00E5F1F4F0E0D1F1DF901E0
:101CC00011830083EB2DFA2F6115710531F0DB01D3
:101CD0001396FC93EE93129744C0F093C003E093E5
:101CE000BF033FC06D917C9111976616770608F48B
:101CF0003B01BD0112960D90BC91A02DB4CF609117
:101D0000BD037091BE0368157905E9F4681679067C
:101D1000D0F440910001509101014115510541F469
:101D20004DB75EB76091040170910501461B570BDA
:101D3000E417F507C0F4F093BE03E093BD03F90187
:101D4000918380830EC00E94C90C7C01009759F0DA
:101D5000A801BE010E94BA0ECE010E94610DC7010A
:101D600004C0CE0102C080E090E0CDB7DEB7EEE067
:101D70000C941F0FFB01DC0102C001900D92415039
:101D80005040D8F70895FB01DC0101900D9200202E
:101D9000E1F70895BB274A3031F4992322F4BDE2DC
:101DA000909581959F4F0C94D60EBB27FB0155272C
:101DB000AA27880F991FAA1FA41710F0A41B8395A8
:101DC0005051B9F7A05DAA3308F0A95DA19300971F
:101DD00079F7B111B1931192CB010C94EF0EDC01A4
:101DE000FC01672F71917723E1F7329704C07C9152
:101DF0006D9370836291AE17BF07C8F308952F9259
:101E00003F924F925F926F927F928F929F92AF928A
:101E1000BF92CF92DF92EF92FF920F931F93CF93D7
:101E2000DF93CDB7DEB7CA1BDB0B0FB6F894DEBF6E
:101E30000FBECDBF09942A88398848885F846E8494
:101E40007D848C849B84AA84B984C884DF80EE80DE
:101E5000FD800C811B81AA81B981CE0FD11D0FB6E7
:101E6000F894DEBF0FBECDBFED010895F894FFCF0B
:101E70000000C10380004D51545420646973636FA6
:101E80006E6E6563746564004D51545420707562C4
:101E90006C6973686564004D51545420636F6E6EB5
:101EA000656374656421002F6573702D6C696E6BBA
:101EB0002F31002F68656C6C6F2F776F726C642FF9
:101EC000230052656365697665643A20746F7069B2
:101ED000633D00646174613D005749464920434FAA
:101EE0004E4E45435445440057494649204E4F54B1
:101EF0002052454144593A2000454C2D436C6965B8
:101F00006E74207374617274696E672100454C2D84
:101F1000436C69656E742073796E63206661696CC9
:101F200065642100454C2D436C69656E742073799E
:101F30006E6365642100454C2D4D515454207265EB
:101F4000616479007075626C697368696E67002FEF
:101F500068656C6C6F2F776F726C642F617264753B
:101F6000696E6F0054696D653A200000000000AA98
:101F70000381042C034503370388030D0A006E61B7
:101F80006E00696E66006F7666002E00454C433A1F
:101F900020676F742000204000454C433A20496E72
:101FA00076616C69642043524300524553505F563A
:101FB0003A2000524553505F43423A2000434D447B
:101FC0003F3F0053594E4321004241443A20000014
:00000001FF
