:100000000C9436000C945E000C945E000C945E0020
:100010000C945E000C945E000C945E000C945E00E8
:100020000C945E000C945E000C945E000C945E00D8
:100030000C945E000C945E000C945E000C945E00C8
:100040000C94AF010C945E000C9440020C9472026C
:100050000C945E000C945E000C945E000C945E00A8
:100060000C945E000C945E00A201A20211241FBE3B
:10007000CFEFD8E0DEBFCDBF12E0A0E0B1E0EAE113
:10008000FDE102C005900D92A634B107D9F723E037
:10009000A6E4B2E001C01D92A53AB207E1F710E074
:1000A000CCE6D0E004C02297FE010E941A0CC836AC
:1000B000D107C9F70E942B040C948B0E0C940000FE
:1000C00066E071E084E093E00E949E0410924C028E
:1000D000089568E171E084E093E00C949E0467E287
:1000E00071E084E093E00E949E0440E067E371E0E9
:1000F0008DE492E00E94780A81E080934C0208959A
:100100000F931F93CF93DF93CDB7DEB72C970FB626
:10011000F894DEBF0FBECDBF8C0163E471E084E0D4
:1001200093E00E948604B801CE0107960E94840BDA
:10013000BE01695F7F4F84E093E00E948C0464E518
:1001400071E084E093E00E948604B801CE0101963C
:100150000E94840BBE016F5F7F4F84E093E00E949A
:100160008C04CE0101960E946205CE0107960E9482
:1001700062052C960FB6F894DEBF0FBECDBFDF919F
:10018000CF911F910F910895CF93DF931F92CDB719
:10019000DEB7DC011496ED91FC9115972281338135
:1001A00021303105F1F441E050E0BE016F5F7F4F37
:1001B0000E94410B8981853039F46AE571E084E061
:1001C00093E00E949E040DC069E671E084E093E034
:1001D0000E9486044AE050E0698184E093E00E9436
:1001E0001D050F90DF91CF91089526E040E052EC7D
:1001F00061E070E084E093E00E94C8036AE771E088
:1002000084E093E00E949E0464EC70E089E692E052
:100210000E94BD0B40ED57E060E070E087E692E0A1
:100220000E947609811107C06EE871E084E093E0D6
:100230000E949E04EFCF65EA71E084E093E00E94A3
:100240009E046FE670E08DE492E00E94BD0B60E6D4
:1002500070E083E592E00E94BD0B69E670E089E5FD
:1002600092E00E94BD0B60E870E08FE592E00E9492
:10027000BD0B8DE492E00E94EC0967EB71E084E035
:1002800093E00C949E040F931F93CF93DF93CDB70D
:10029000DEB72C970FB6F894DEBF0FBECDBF87E652
:1002A00092E00E94140880914C02882309F43FC018
:1002B0000E94F901009146021091470220914802E4
:1002C00030914902601B710B820B930B613A7F40A6
:1002D0008105910560F165EC71E084E093E00E9496
:1002E0009E0480914A0290914B029C012F5F3F4FE8
:1002F00030934B0220934A024BE0BE016F5F7F4F69
:100300000E941F0E00E020E0AE014F5F5F4F67E3E9
:1003100071E08DE492E00E94260B0E94F901609347
:1003200046027093470280934802909349022C96AC
:100330000FB6F894DEBF0FBECDBFDF91CF911F91F6
:100340000F91089544E053E0BA0187E692E00E94DD
:100350008B0667E672E08DE492E00C94D1091F925F
:100360000F920FB60F9211242F933F938F939F9369
:10037000AF93BF938091FC029091FD02A091FE0289
:10038000B091FF023091FB0223E0230F2D3720F4C0
:100390000196A11DB11D05C026E8230F0296A11DDF
:1003A000B11D2093FB028093FC029093FD02A09369
:1003B000FE02B093FF028091000390910103A0918F
:1003C0000203B09103030196A11DB11D80930003A8
:1003D00090930103A0930203B0930303BF91AF91E5
:1003E0009F918F913F912F910F900FBE0F901F9073
:1003F00018952FB7F8946091FC027091FD028091DE
:10040000FE029091FF022FBF0895789484B5826018
:1004100084BD84B5816084BD85B5826085BD85B5A8
:10042000816085BDEEE6F0E0808181608083E1E857
:10043000F0E010828081826080838081816080838F
:10044000E0E8F0E0808181608083E1EBF0E0808192
:1004500084608083E0EBF0E0808181608083EAE764
:10046000F0E08081846080838081826080838081ED
:10047000816080838081806880831092C1000895AC
:100480001F920F920FB60F9211242F938F939F9369
:10049000EF93FF93E0911403F09115038081E091B5
:1004A0001A03F0911B0382FD12C0908180911D03FD
:1004B0008F5F8F7320911E03821751F0E0911D030F
:1004C000F0E0EC5FFC4F958F80931D0301C08081AD
:1004D000FF91EF919F918F912F910F900FBE0F90F1
:1004E0001F9018951F920F920FB60F9211242F9301
:1004F0003F934F935F936F937F938F939F93AF93AC
:10050000BF93EF93FF9384E093E00E942003FF9159
:10051000EF91BF91AF919F918F917F916F915F917B
:100520004F913F912F910F900FBE0F901F901895F4
:1005300084E093E00E94E50221E0892B09F420E0A9
:10054000822F0895109207031092060388EE93E01D
:10055000A0E0B0E08093080390930903A0930A03FE
:10056000B0930B0384ED91E0909305038093040313
:1005700085EC90E0909311038093100384EC90E05D
:10058000909313038093120380EC90E090931503F3
:100590008093140381EC90E09093170380931603EB
:1005A00082EC90E0909319038093180386EC90E01E
:1005B00090931B0380931A0310921D0310921E0345
:1005C00010921F03109220030895FC01818D228D4B
:1005D00090E0805C9F4F821B91098F73992708954B
:1005E000FC01918D828D981731F0828DE80FF11DFD
:1005F000858D90E008958FEF9FEF0895FC01918D18
:10060000828D981761F0828DDF01A80FB11D5D9674
:100610008C91928D9F5F9F73928F90E008958FEFE2
:100620009FEF089588E992E0892B49F080E090E0FF
:10063000892B29F00E94980281110C9400000895E2
:10064000FC01848DDF01A80FB11DA35ABF4F2C916F
:10065000848D90E001968F739927848FA689B7893E
:100660002C93A089B1898C9180648C93938D848D17
:10067000981306C00288F389E02D80818F7D8083E6
:100680000895CF93DF93EC01888D8823C9F0EA8920
:10069000FB89808185FD05C0A889B9898C9186FD7B
:1006A0000FC00FB607FCF5CF808185FFF2CFA88978
:1006B000B9898C9185FFEDCFCE010E942003E7CF51
:1006C000DF91CF910895CF92DF92FF920F931F9306
:1006D000CF93DF931F92CDB7DEB76C0181E0D601D7
:1006E00058968C9358975B969C915B975C968C91EF
:1006F0005C97981307C05096ED91FC9151978081BB
:1007000085FD2EC0F601038D10E00F5F1F4F0F73A4
:100710001127F02EF601848DF81211C00FB607FCD8
:10072000F9CFD6015096ED91FC915197808185FFCC
:10073000F1CFC60169830E9420036981EBCF838DCD
:10074000E80FF11DE35AFF4F6083D6015B960C93CF
:100750005B975296ED91FC915397808180620CC01B
:10076000D6015696ED91FC91579760835096ED9186
:10077000FC91519780818064808381E090E00F90AC
:10078000DF91CF911F910F91FF90DF90CF9008954F
:10079000BF92CF92DF92EF92FF92CF93DF93EC0163
:1007A0006A017B01B22EE889F98982E080834115D4
:1007B00081EE580761057105A1F060E079E08DE3F5
:1007C00090E0A70196010E94F60B215031094109E2
:1007D00051095695479537952795211580E138079A
:1007E00098F0E889F989108260E874E88EE190E079
:1007F000A70196010E94F60B2150310941095109C8
:100800005695479537952795EC85FD853083EE8580
:10081000FF852083188EEC89FD89B082EA89FB89E7
:10082000808180618083EA89FB8980818860808300
:10083000EA89FB89808180688083EA89FB898081DD
:100840008F7D8083DF91CF91FF90EF90DF90CF90ED
:10085000BF90089508950E9405020E942A040E94F4
:10086000F500C2E1D3E00E9443012097E1F30E942A
:100870001203F9CFCF92DF92EF92FF920F931F9363
:10088000CF93DF936C017A01EB01E60EF71E00E0D7
:1008900010E0CE15DF0561F06991D601ED91FC9174
:1008A0000190F081E02DC6010995080F191FF1CFC5
:1008B000C801DF91CF911F910F91FF90EF90DF90D2
:1008C000CF9008956115710581F0DB010D90002036
:1008D000E9F7AD0141505109461B570BDC01ED9181
:1008E000FC910280F381E02D099480E090E008956E
:1008F000DC01ED91FC91DB0114964D915C91159713
:100900006D917C910280F381E02D09940C94620436
:1009100060EE71E00C9462040F931F93CF93DF930A
:10092000EC010E9478048C01CE010E948804800FA3
:10093000911FDF91CF911F910F9108950F931F93F6
:10094000CF93DF93EC010E9462048C01CE010E94E0
:100950008804800F911FDF91CF911F910F9108950F
:100960008F929F92AF92BF92CF92DF92EF92FF92BF
:100970000F931F93CF93DF93CDB7DEB7A1970FB639
:10098000F894DEBF0FBECDBF7C01C42EE52FCB0196
:10099000D22E19A221E02D1510F02AE0D22E8E01C0
:1009A0000F5D1F4F8D2C912CA12CB12C6C2D7E2F07
:1009B000A50194010E94F60B8C2DD29E8019112462
:1009C000015011098A3010F4805D01C0895CF80182
:1009D0008083211531054105510521F0C22EE32FF9
:1009E000CA01E4CFB801C7010E946204A1960FB604
:1009F000F894DEBF0FBECDBFDF91CF911F910F9155
:100A0000FF90EF90DF90CF90BF90AF909F908F902E
:100A100008952115310541F4DC01ED91FC9101901F
:100A2000F081E02D642F09940C94B0049A01462FB4
:100A300050E060E070E00C9409050F931F93CF9392
:100A4000DF93EC019A01462F50E060E070E00E94D5
:100A500009058C01CE010E948804800F911FDF914F
:100A6000CF911F910F9108959A01AB0160E070E062
:100A70000C9409050F931F93CF93DF93EC019A0118
:100A8000AB0160E070E00E9409058C01CE010E947C
:100A90008804800F911FDF91CF911F910F910895CE
:100AA0000F931F93CF93DF93EC010E9409058C01F4
:100AB000CE010E948804800F911FDF91CF911F917A
:100AC0000F910895FC01808191810C94B60CCF9315
:100AD000DF93EC0188819981009711F00E94B60C98
:100AE000198218821D821C821B821A82DF91CF918B
:100AF00008950F931F93CF93DF93EC018B016F5FEA
:100B00007F4F888199810E94450D009731F099832C
:100B100088831B830A8381E001C080E0DF91CF914D
:100B20001F910F910895CF93DF93EC0188819981F4
:100B3000892B29F08A819B818617970760F4CE0163
:100B40000E947905882341F08C819D81892B19F4BD
:100B5000E881F981108281E0DF91CF910895EF92D1
:100B6000FF920F931F93CF93DF93EC017B018A01D8
:100B7000BA010E949305811104C0CE010E9467054D
:100B800007C01D830C83B701888199810E94180ECC
:100B9000CE01DF91CF911F910F91FF90EF900895BB
:100BA000FC01118210821382128215821482611557
:100BB000710559F0FB0101900020E9F7AF014150A8
:100BC0005109461B570B0C94AF050895EF92FF9205
:100BD0000F931F93CF93DF93EC017B010C811D8159
:100BE0006115710511F480E016C04115510591F0B1
:100BF000040F151FB8010E9493058823A1F32881D3
:100C000039818C819D81B701820F931F0E94180E3C
:100C10001D830C8381E0DF91CF911F910F91FF9095
:100C2000EF900895CF93DF9300D0CDB7DEB76983FF
:100C30001A8241E050E0BE016F5F7F4F0E94E605DF
:100C40000F900F90DF91CF910895CF93DF93EC0138
:100C500088859985603CA1F06B3D21F5DC01ED9123
:100C6000FC910190F081E02D6BED099588859985C7
:100C7000DC01ED91FC910190F081E02D6DED18C04B
:100C8000DC01ED91FC910190F081E02D6BED099577
:100C900088859985DC01ED91FC910190F081E02D32
:100CA0006CED06C0DC01ED91FC910190F081E02D2E
:100CB000DF91CF910994EF92FF920F931F93CF93FF
:100CC000DF937C018A01EB01060F171FC017D107C4
:100CD00029F06991C7010E942506F8CFDF91CF91D5
:100CE0001F910F91FF90EF900895CF93DF93EC0148
:100CF000BC01655F7F4F42E050E00E945B06888543
:100D00009985DC01ED91FC910190F081E02D60EC82
:100D1000DF91CF9109940F931F93CF93DF93EC0151
:100D20008B01FC0141935193CF010E94B70B1987AE
:100D3000088781E08A87CE0144969E878D8780E868
:100D400090E0988B8F871A8A198A1B8ADF91CF913E
:100D50001F910F910895FC012285222321F08081AB
:100D600091810C949E0408954627542745275427C3
:100D70009A01222784E0220F331F8A95E1F7242766
:100D80003527C901892F992782958F70822793274C
:100D90009C01222755E0369527955A95E1F7822741
:100DA00093270895EF92FF920F931F93CF93DF93B2
:100DB0007C018A01C901EB01060F171FC017D1077B
:100DC00031F06991AC01C7010E94B406F7CFDF9101
:100DD000CF911F910F91FF90EF900895AF92BF9226
:100DE000CF92DF92EF92FF920F931F93CF93DF93F7
:100DF00000D000D000D0CDB7DEB78C01DC011D964D
:100E0000ED90FC901E971A968C911A97882309F4FE
:100E10007DC061EF71E08D919C910E948604F80184
:100E2000618972894AE050E0808191810E94340595
:100E30006BEF71E0D8018D919C910E948604F801BE
:100E400045855685662757FD6095762F20E130E071
:100E5000808191810E9409056FE172E0D8018D9136
:100E60009C910E948604F701608171814AE050E004
:100E7000D8018D919C910E94340560E272E0F801E6
:100E8000808191810E948604D70114964D915D91D5
:100E90006D917C9117972AE030E0F8018081918173
:100EA0000E94090560E272E0D8018D919C910E9438
:100EB0008604F701628173814AE050E0D8018D9188
:100EC0009C910E94340568E0C62ED12CF80121893E
:100ED000328980819181C216D306B0F460E272E05B
:100EE0000E948604D8011D96ED91FC911E97EC0D91
:100EF000FD1D40E150E060818D919C910E9416059E
:100F0000BFEFCB1ADB0AE2CF0E948804D8015196CA
:100F1000CD90DC905297B2E0CB1AD108F801A584AD
:100F2000B68420E030E0A601B501C8010E94D206D7
:100F3000F501EC0DFD1D208131818217930731F001
:100F40006EEF71E0C8010E94AB065BC0D7012D9126
:100F50003C91F8018081918122303105A1F46FE04C
:100F600072E00E948604D70114964D915D916D91B7
:100F70007C9117972AE030E0F801808191810E94EE
:100F80005005C70140C023303105B9F568E172E072
:100F90000E948604D70114964D915D916D917C91CC
:100FA00017972AE030E0F801808191810E940905BD
:100FB00060E272E0D8018D919C910E948604F70155
:100FC000628173814AE050E0D8018D919C910E942A
:100FD0003A05F70104811581C8010E94E80B8823B6
:100FE00081F0B701CE0101960E94370BBE016F5F01
:100FF0007F4FC8010E94C10B04C062E272E00E94F0
:101000009E0480E090E026960FB6F894DEBF0FBEF7
:10101000CDBFDF91CF911F910F91FF90EF90DF90A7
:10102000CF90BF90AF9008951F93CF93DF93EC01C3
:1010300011E088859985DC01ED91FC910480F581B2
:10104000E02D0995892BD9F188859985DC01ED91F1
:10105000FC910680F781E02D09958B3D11F41B8BE7
:10106000E8CF29893A89803C79F42830310520F08D
:10107000CE010E94EE0602C080E090E01A8A198A32
:101080001B8A0097B1F21DC09B89992341F08C3DCA
:1010900021F08D3D19F48BED01C080EC1B8A4F854A
:1010A00058892417350728F6ED85FE85A9014F5F7D
:1010B0005F4F5A8B498BE20FF31F8083BACF80E0DA
:1010C00090E0DF91CF911F9108958F929F92AF9200
:1010D000BF92CF92DF92EF92FF92CF93DF93EC011A
:1010E0006A017B010E94F9014B015C010E94F90138
:1010F000681979098A099B096C157D058E059F057C
:1011000030F4CE010E941408009781F302C080E001
:1011100090E0DF91CF91FF90EF90DF90CF90BF9064
:10112000AF909F908F900895EF92FF920F931F932F
:10113000CF93DF93CDB7DEB728970FB6F894DEBF15
:101140000FBECDBF7C017A8369832B833C834D83A3
:101150005E8318870F83DC011C961C921E921B97DE
:1011600018968D919C911997DC01ED91FC9101905D
:10117000F081E02D60EC099542E050E0BE016F5F28
:101180007F4FC7010E945B06F7012385348542E04B
:1011900050E0BE016F5F7F4FC7010E94D206D701AA
:1011A0001C969C938E931B9742E050E0BE01695FB2
:1011B0007F4FC7010E945B06F7012385348542E01B
:1011C00050E0BE01695F7F4FC7010E94D206D70180
:1011D0001C969C938E931B9744E050E0BE016D5F7C
:1011E0007F4FC7010E945B06F7012385348544E0E9
:1011F00050E0BE016D5F7F4FC7010E94D206D7014C
:101200001C969C938E931B9728960FB6F894DEBF7E
:101210000FBECDBFDF91CF911F910F91FF90EF9047
:101220000895CF92DF92EF92FF920F931F93CF9387
:10123000DF9300D0CDB7DEB78C017B015A834983A1
:1012400042E050E0BE016F5F7F4F0E945B06F801F5
:101250002385348542E050E0BE016F5F7F4FC801B7
:101260000E94D206F80194878387C980DA80CE0C69
:10127000DF1CEC14FD0491F0F7016081C8010E94AD
:101280002506F80143855485F70161917F01C80166
:101290000E94B406F80194878387EBCFE980FA8037
:1012A000F194E194F108F3E0EF22FF24E114F1045A
:1012B00091F060E0C8010E942506F801438554853D
:1012C00060E0C8010E94B406F80194878387F1E0CA
:1012D000EF1AF108EBCF0F900F90DF91CF911F9194
:1012E0000F91FF90EF90DF90CF9008958F929F9293
:1012F000AF92BF92CF92DF92EF92FF920F931F9324
:10130000CF93DF93EC014A015B016C0182E0C80ED0
:10131000D11CEE24D7FCE094FE2C00E010E0A701E5
:10132000960161E070E0CE010E949408CE010E9417
:101330007506B501A401CE010E9465088C010097D5
:1013400011F1F80144815581668177818881998105
:101350004C155D056E057F0531F468E272E00E9470
:101360009E0481E011C06EE272E00E948604F801E2
:1013700044815581668177812AE030E088819981B6
:101380000E945005D6CF80E0DF91CF911F910F9141
:10139000FF90EF90DF90CF90BF90AF909F908F9095
:1013A00008950F931F93CF93DF93EC018B010E945D
:1013B000B70BCE0106960E94B70BCE010C960E9489
:1013C000B70BCE0142960E94B70B198F088FDF91A1
:1013D000CF911F910F910895AF92BF92CF92DF925C
:1013E000EF92FF920F931F93CF93DF9300D000D023
:1013F000CDB7DEB75C0164E372E084E093E00E9465
:1014000086046501EE24D7FCE094FE2C20E130E058
:10141000B701A60184E093E00E94500504E010E0CB
:1014200020E030E0A9016AE070E0F501808D918D47
:101430000E949408C982DA82EB82FC8244E050E088
:10144000BE016F5F7F4FF501808D918D0E94110964
:10145000C5010696AA2797FDA095BA2F89839A837E
:10146000AB83BC8344E050E0BE016F5F7F4FF5016A
:10147000808D918D0E941109C5010C96AA2797FDB8
:10148000A095BA2F89839A83AB83BC8344E050E054
:10149000BE016F5F7F4FF501808D918D0E94110914
:1014A000C5014296AA2797FDA095BA2F89839A83F2
:1014B000AB83BC8344E050E0BE016F5F7F4FF5011A
:1014C000808D918D0E941109F501808D918D0E9472
:1014D00075060F900F900F900F90DF91CF911F9195
:1014E0000F91FF90EF90DF90CF90BF90AF90089555
:1014F000CF92DF92EF92FF920F931F93CF93DF93E0
:101500001F92CDB7DEB77C016B01498302E010E08A
:1015100020E030E0A9016CE070E0FC01808D918D4D
:101520000E949408F60101900020E9F7AF014150B4
:1015300051094C195D09B601F701808D918D0E940A
:10154000110941E050E0BE016F5F7F4FF701808DD0
:10155000918D0E941109F701808D918D0E94750671
:101560000F90DF91CF911F910F91FF90EF90DF903F
:10157000CF9008958F929F92AF92BF92CF92DF92B9
:10158000EF920F931F93CF93DF9300D000D0CDB78E
:10159000DEB76C015B014A013A8329830B83EC823D
:1015A00005E010E020E030E0A9016BE070E0FC0114
:1015B000808D918D0E949408F50101900020E9F73B
:1015C000AF01415051094A195B09B501F601808DFF
:1015D000918D0E94110949815A81B401F601808DD3
:1015E000918D0E94110942E050E0BE016F5F7F4F74
:1015F000F601808D918D0E94110941E050E0BE01FD
:101600006D5F7F4FF601808D918D0E94110941E041
:1016100050E0BE016C5F7F4FF601808D918D0E947E
:101620001109F601808D918D0E9475060F900F9023
:101630000F900F90DF91CF911F910F91EF90DF905E
:10164000CF90BF90AF909F908F900895EF920F939F
:10165000FA0101900020E9F73197E41BF50BE02E29
:10166000022F9F010E94BA0A0F91EF900895FC018A
:1016700075836483685F7F4F7383628311821082F6
:1016800008950F931F93CF93DF93FC018081918185
:10169000A481B58112962D913C91139782179307DF
:1016A00060F5A281B381CD91DD91B383A2830196D0
:1016B000918380839A01C417D50708F49E01CD0158
:1016C0008B01AB01420F531F0417150739F0DC01E2
:1016D0006D91CD01D8016D938D01F6CF82819381FB
:1016E0008C0F9D1FD195C195D109C370DD278C0F3B
:1016F0009D1F93838283C90102C08FEF9FEFDF910B
:10170000CF911F910F910895EF92FF920F931F9326
:10171000CF93DF938C01EB0162EE71E00E94D00564
:10172000EA81FB81E190F190FB83EA83EA81FB810E
:10173000E114F10461F0CF0101969B838A836081FB
:10174000C8010E94120681E0E81AF108EFCF8881F3
:1017500099810196998388833196FB83EA83C80136
:10176000DF91CF911F910F91FF90EF900895FC01B1
:1017700011821082138212820895FC0173836283A6
:101780000895DC011296ED91FC9113973097F9F0D2
:101790002D913C91119721153105B9F014968D9139
:1017A0009C911597AC015595479580FF0AC0D901CA
:1017B000A40FB51F0D90BC91A02DAE0FBF1FED91D2
:1017C000FC91C901840F951F0994CB0109940895D8
:1017D000FC0180819181892B39F481E02281338160
:1017E000232B19F480E0089581E00895A1E21A2ED8
:1017F000AA1BBB1BFD010DC0AA1FBB1FEE1FFF1FB5
:10180000A217B307E407F50720F0A21BB30BE40B04
:10181000F50B661F771F881F991F1A9469F760954B
:101820007095809590959B01AC01BD01CF01089505
:10183000EE0FFF1F0590F491E02D0994CF93DF93F5
:101840008230910510F482E090E0E091A303F091E2
:10185000A40320E030E0A0E0B0E0309739F140810F
:10186000518148175907B8F04817590771F4828118
:101870009381109729F013969C938E9312972CC006
:101880009093A4038093A30327C02115310531F061
:101890004217530718F0A901DB0101C0EF019A01BB
:1018A000BD01DF010280F381E02DD7CF2115310585
:1018B000F9F0281B390B2430310580F48A819B8193
:1018C0006115710521F0FB019383828304C090931D
:1018D000A4038093A303FE01329644C0FE01E20FED
:1018E000F31F8193919322503109398328833AC0A1
:1018F0002091A1033091A203232B41F420910201F6
:10190000309103013093A2032093A10320910001A1
:10191000309101012115310541F42DB73EB74091B9
:10192000040150910501241B350BE091A103F091B6
:10193000A203E217F307A0F42E1B3F0B2817390769
:1019400078F0AC014E5F5F4F2417350748F04E0F1B
:101950005F1F5093A2034093A1038193919302C010
:10196000E0E0F0E0CF01DF91CF910895CF93DF93D6
:10197000009709F487C0FC01329713821282C0914C
:10198000A303D091A403209781F420813181280FF3
:10199000391F8091A1039091A2038217930779F5D3
:1019A000F093A203E093A1036DC0DE0120E030E0DC
:1019B000AE17BF0750F412964D915C9113979D019D
:1019C0004115510509F1DA01F3CFB383A2834081B8
:1019D0005181840F951F8A179B0771F48D919C91FB
:1019E0001197840F951F02969183808312968D9193
:1019F0009C911397938382832115310529F4F093E9
:101A0000A403E093A3033EC0D9011396FC93EE9385
:101A100012974D915D91A40FB51FEA17FB0779F45A
:101A200080819181840F951F0296D90111969C9314
:101A30008E938281938113969C938E931297E0E00C
:101A4000F0E08A819B81009719F0FE01EC01F9CF4B
:101A5000CE01029628813981820F931F2091A10324
:101A60003091A2032817390769F4309729F41092AE
:101A7000A4031092A30302C013821282D093A20384
:101A8000C093A103DF91CF910895A0E0B0E0EBE413
:101A9000FDE00C94580EEC01CB01209719F40E9444
:101AA0001E0CB8C0FE01E60FF71F9E01225031093F
:101AB000E217F30708F4ACC0D9010D911C911197FE
:101AC00006171707B8F00530110508F49FC0A801E4
:101AD000445051094617570708F498C0025011099D
:101AE000061B170B019311936D937C93CF010E94FA
:101AF000B60C8CC05B01A01AB10A4E01800E911E7B
:101B0000A091A303B091A403612C712C60E070E05C
:101B1000109709F449C0A815B905C9F5ED90FC90D6
:101B20001197670142E0C40ED11CCA14DB0478F19E
:101B300047018A189B08640142E0C40ED11C12962A
:101B4000BC9012971396AC91B5E0CB16D10440F03F
:101B5000B282A38391828082D9018D939C9309C024
:101B60000E5F1F4F0E0D1F1DF90111830083EB2D1A
:101B7000FA2F6115710531F0DB011396FC93EE939A
:101B8000129744C0F093A403E093A3033FC06D9168
:101B90007C9111976616770608F43B01BD011296F9
:101BA0000D90BC91A02DB4CF6091A1037091A203C0
:101BB00068157905E9F468167906D0F440910001BA
:101BC000509101014115510541F44DB75EB7609147
:101BD000040170910501461B570BE417F507C0F48B
:101BE000F093A203E093A103F901918380830EC0D7
:101BF0000E941E0C7C01009759F0A801BE010E94B2
:101C00000F0ECE010E94B60CC70104C0CE0102C067
:101C100080E090E0CDB7DEB7EEE00C94740EFB01EF
:101C2000DC0102C001900D9241505040D8F7089558
:101C3000FB01DC0101900D920020E1F70895BB2724
:101C40004A3031F4992322F4BDE2909581959F4F5B
:101C50000C942B0EBB27FB015527AA27880F991F31
:101C6000AA1FA41710F0A41B83955051B9F7A05DCB
:101C7000AA3308F0A95DA193009779F7B111B19348
:101C80001192CB010C94440EDC01FC01672F719181
:101C90007723E1F7329704C07C916D937083629152
:101CA000AE17BF07C8F308952F923F924F925F92ED
:101CB0006F927F928F929F92AF92BF92CF92DF925C
:101CC000EF92FF920F931F93CF93DF93CDB7DEB7C1
:101CD000CA1BDB0B0FB6F894DEBF0FBECDBF099455
:101CE0002A88398848885F846E847D848C849B84AC
:101CF000AA84B984C884DF80EE80FD800C811B81BA
:101D0000AA81B981CE0FD11D0FB6F894DEBF0FBEE8
:0A1D1000CDBFED010895F894FFCF58
:101D1A000000A50380004D51545420646973636F19
:101D2A006E6E6563746564004D515454207075621B
:101D3A006C6973686564004D51545420636F6E6E0C
:101D4A00656374656421002F6573702D6C696E6B11
:101D5A002F310052656365697665643A20746F7045
:101D6A0069633D00646174613D00574946492043F7
:101D7A004F4E4E45435445440057494649204E4F1D
:101D8A00542052454144593A2000454C2D436C6930
:101D9A00656E74207374617274696E672100454CB4
:101DAA002D436C69656E742073796E632066616970
:101DBA006C65642100454C2D436C69656E74207313
:101DCA00796E6365642100454C2D4D51545420723F
:101DDA0065616479007075626C697368696E670021
:101DEA000000000063033A04E502FE02F002410328
:101DFA000D0A006E616E00696E66006F7666002ECF
:101E0A0000454C433A20676F742000204000454C3F
:101E1A00433A20496E76616C69642043524300520A
:101E2A004553505F563A2000524553505F43423A59
:101E3A002000434D443F3F0053594E432100424145
:101E4A00443A2000436F6E6E6563746564434220B2
:061E5A00697320307800DE
:00000001FF
