:100000000C943F000C9467000C9467000C946700FC
:100010000C9467000C9467000C9467000C946700C4
:100020000C9467000C9467000C9467000C946700B4
:100030000C9467000C9467000C9467000C946700A4
:100040000C94F8010C9467000C944D030C947F03FE
:100050000C9467000C9467000C9467000C94670084
:100060000C9467000C946700436F6E6E6563746553
:1000700064434220697320307800E501AF03112406
:100080001FBECFEFD8E0DEBFCDBF12E0A0E0B1E0F1
:10009000E8EBFEE102C005900D92A436B107D9F756
:1000A00023E0A4E6B2E001C01D92A73CB207E1F74D
:1000B00010E0CFE3D0E004C02197FE010E94E10CE4
:1000C000CD33D107C9F70E9426050C945A0F0C9422
:1000D000000066E071E086E293E00E946604109200
:1000E0006A02089568E171E086E293E00C94660488
:1000F00067E271E086E293E00E94660440E067E315
:1001000071E08BE692E00E94070740E063E471E053
:100110008BE692E00E94070781E080936A020895CF
:100120000F931F93CF93DF93CDB7DEB72C970FB606
:10013000F894DEBF0FBECDBF8C0162E571E086E2B0
:1001400093E00E944E04B801CE0107960E94510C24
:10015000BE01695F7F4F86E293E00E94540463E62C
:1001600071E086E293E00E944E04B801CE01019650
:100170000E94510CBE016F5F7F4F86E293E00E94A8
:100180005404CE0101960E948902CE0107960E9476
:1001900089022C960FB6F894DEBF0FBECDBFDF915B
:1001A000CF911F910F910895CF93DF931F92CDB7F9
:1001B000DEB7DC011496ED91FC9115972281338115
:1001C00021303105F1F441E050E0BE016F5F7F4F17
:1001D0000E940C0C8981853039F469E671E086E271
:1001E00093E00E9466040DC068E771E086E293E048
:1001F0000E944E044AE050E0698186E293E00E944A
:10020000E0040F90DF91CF91089526E040E052EC9A
:1002100061E070E086E293E00E94FB0569E871E02E
:1002200086E293E00E94660464ED70E089E892E063
:100230000E94CA0740ED57E060E070E087E892E076
:100240000E94880B811107C06DE971E086E293E09E
:100250000E946604EFCF64EB71E086E293E00E94B7
:10026000660468E770E08BE692E00E94CA0769E6E0
:1002700070E081E792E00E94CA0762E770E087E7DA
:1002800092E00E94CA0760E970E08DE792E00E9468
:10029000CA078BE692E00E947B0666EC71E086E27C
:1002A00093E00C946604CF92DF92EF92FF920F934B
:1002B000CF93DF93CDB7DEB72C970FB6F894DEBFA0
:1002C0000FBECDBF87E892E00E94190A80916A02B2
:1002D000882309F46CC00E944202C0906402D0904E
:1002E0006502E0906602F0906702DC01CB018C1998
:1002F0009D09AE09BF09813A9F40A105B10508F4E7
:1003000056C064ED71E086E293E00E94660480913D
:100310006802909169029C012F5F3F4F3093690200
:10032000209368024AE0BE016F5F7F4F0E94EE0E8D
:1003300000E020E0AE014F5F5F4F67E371E08BE6C6
:1003400092E00E94B30780916802909169024AE0AE
:10035000BE016F5F7F4F8D599F4F0E94EE0E20E0D0
:10036000AE014F5F5F4F6FED71E08BE692E00E9450
:10037000B30785E892E00E94930C6B017C0164EF67
:1003800071E086E293E00E944E042AE030E0B7017B
:10039000A60186E293E00E9413050E944202609348
:1003A00064027093650280936602909367022C96B4
:1003B0000FB6F894DEBF0FBECDBFDF91CF910F9186
:1003C000FF90EF90DF90CF90089546E253E0BA019E
:1003D00087E892E00E94680867E872E085E892E0AA
:1003E0000E948F0C67E872E08BE692E00C94600646
:1003F0001F920F920FB60F9211242F933F938F935A
:100400009F93AF93BF9380911E0390911F03A09180
:100410002003B091210330911D0323E0230F2D37DA
:1004200020F40196A11DB11D05C026E8230F0296F8
:10043000A11DB11D20931D0380931E0390931F03E4
:10044000A0932003B0932103809122039091230372
:10045000A0912403B09125030196A11DB11D8093A5
:10046000220390932303A0932403B0932503BF9109
:10047000AF919F918F913F912F910F900FBE0F9051
:100480001F9018952FB7F89460911E0370911F0369
:1004900080912003909121032FBF0895789484B513
:1004A000826084BD84B5816084BD85B5826085BD70
:1004B00085B5816085BDEEE6F0E080818160808356
:1004C000E1E8F0E010828081826080838081816039
:1004D0008083E0E8F0E0808181608083E1EBF0E000
:1004E000808184608083E0EBF0E0808181608083A4
:1004F000EAE7F0E08081846080838081826080838D
:100500008081816080838081806880831092C100B7
:100510000895FC01808191810C947C0DCF93DF9331
:10052000EC0188819981009711F00E947C0D19825D
:1005300018821D821C821B821A82DF91CF9108953E
:100540000F931F93CF93DF93EC018B016F5F7F4F6E
:10055000888199810E94140E009731F099838883D5
:100560001B830A8381E001C080E0DF91CF911F915E
:100570000F910895CF93DF93EC0188819981892BA6
:1005800029F08A819B818617970760F4CE010E942B
:10059000A002882341F08C819D81892B19F4E88188
:1005A000F981108281E0DF91CF910895EF92FF925F
:1005B0000F931F93CF93DF93EC017B018A01BA0164
:1005C0000E94BA02811104C0CE010E948E0207C0AF
:1005D0001D830C83B701888199810E94E70ECE01AB
:1005E000DF91CF911F910F91FF90EF900895FC0143
:1005F0001182108213821282158214826115710594
:1006000051F0FB0101900020E9F73197AF01461B43
:10061000570B0C94D6020895EF92FF920F931F93FD
:10062000CF93DF93FC01248135816115710511F4AD
:1006300080E019C041155105A9F07B01EC018A0148
:10064000020F131FB8010E94BA02882389F3288180
:1006500039818C819D81B701820F931F0E94E70E23
:100660001D830C8381E0DF91CF911F910F91FF904B
:10067000EF900895CF93DF9300D0CDB7DEB76983B5
:100680001A8241E050E0BE016F5F7F4F0E940C0371
:100690000F900F90DF91CF9108951F920F920FB698
:1006A0000F9211242F938F939F93EF93FF93E091D9
:1006B0003603F09137038081E0913C03F0913D03D4
:1006C00082FD12C0908180913F038F5F8F732091D4
:1006D0004003821751F0E0913F03F0E0EA5DFC4FE8
:1006E000958F80933F0301C08081FF91EF919F918F
:1006F0008F912F910F900FBE0F901F9018951F9202
:100700000F920FB60F9211242F933F934F935F9345
:100710006F937F938F939F93AF93BF93EF93FF93C9
:1007200086E293E00E947105FF91EF91BF91AF9136
:100730009F918F917F916F915F914F913F912F91F9
:100740000F900FBE0F901F90189586E293E00E94C5
:10075000350521E0892B09F420E0822F0895E6E297
:10076000F3E01382128288EE93E0A0E0B0E084838D
:100770009583A683B78380E192E09183808385ECA3
:1007800090E09587848784EC90E09787868780EC5B
:1007900090E0918B808B81EC90E0938B828B82EC4C
:1007A00090E0958B848B86EC90E0978B868B118EF6
:1007B000128E138E148E0895CF92DF92EF92FF92D5
:1007C0000F931F93CF93DF936C017A018B01C0E0ED
:1007D000D0E0CE15DF0589F0D8016D918D01D601ED
:1007E000ED91FC910190F081E02DC6010995892BD6
:1007F00011F47E0102C02196ECCFC701DF91CF91A9
:100800001F910F91FF90EF90DF90CF9008956115A9
:10081000710579F0FB0101900020E9F73197AF01F4
:10082000461B570BDC01ED91FC910280F381E02D1A
:10083000099480E090E00895EF92FF920F931F9348
:10084000CF93DF938C017B01C0E0D0E0F701EC0F88
:10085000FD1F6491662361F0D801ED91FC91019038
:10086000F081E02DC8010995892B11F02196EECF7A
:10087000CE01DF91CF911F910F91FF90EF900895DE
:10088000DC01ED91FC91DB0114964D915C91159783
:100890006D917C910280F381E02D09940C94070402
:1008A0006BEF71E00C9407040F931F93CF93DF93CA
:1008B000EC010E9440048C01CE010E945004800F84
:1008C000911FDF91CF911F910F9108950F931F9367
:1008D000CF93DF93EC010E9407048C01CE010E94AC
:1008E0005004800F911FDF91CF911F910F910895B8
:1008F0008F929F92AF92BF92CF92DF92EF92FF9230
:100900000F931F93CF93DF93CDB7DEB7A1970FB6A9
:10091000F894DEBF0FBECDBF7C01D42EC52EDB0107
:1009200019A2223008F42AE08E010F5D1F4F822E9B
:10093000912CA12CB12C6D2D7C2DCD01A501940104
:100940000E94BF0CD22EC32EDA01015011096A3069
:1009500071058105910510F4605D01C0695CF801C5
:100960006083232B242B252B31F7B801C7010E946C
:100970000704A1960FB6F894DEBF0FBECDBFDF917E
:10098000CF911F910F91FF90EF90DF90CF90BF908C
:10099000AF909F908F9008952115310541F4DC01AF
:1009A000ED91FC910190F081E02D642F09940C945D
:1009B00078049A01462F50E060E070E00C94CC047B
:1009C0000F931F93CF93DF93EC019A01462F50E0D2
:1009D00060E070E00E94CC048C01CE010E945004C3
:1009E000800F911FDF91CF911F910F9108959A0170
:1009F000AB0160E070E00C94CC040F931F93CF9395
:100A0000DF93EC019A01AB0160E070E00E94CC043E
:100A10008C01CE010E945004800F911FDF91CF9175
:100A20001F910F9108950F931F93CF93DF93EC01C4
:100A30000E94CC048C01CE010E945004800F911FB3
:100A4000DF91CF911F910F91089508950E944E025A
:100A50000E9425050E940501C3E6D5E00E945301CE
:100A60002097E1F30E946305F9CFFC01918D228D5F
:100A7000892F90E0805C9F4F821B91098F7399278B
:100A80000895FC01918D828D981731F0828DE80FC9
:100A9000F11D858D90E008958FEF9FEF0895FC0183
:100AA000918D828D981761F0828DDF01A80FB11DA5
:100AB0005D968C91928D9F5F9F73928F90E00895C9
:100AC0008FEF9FEF089585EA93E0892B49F080E04E
:100AD00090E0892B29F00E94A50381110C9400005D
:100AE0000895FC01848DDF01A80FB11DA35ABF4FEB
:100AF0002C91848D90E001968F739927848FA6891D
:100B0000B7892C93A089B1898C9180648C93938D43
:100B1000848D981306C00288F389E02D80818F7D33
:100B200080830895CF93DF93EC01888D8823C9F0EB
:100B3000EA89FB89808185FD05C0A889B9898C91E6
:100B400086FD0FC00FB607FCF5CF808185FFF2CF81
:100B5000A889B9898C9185FFEDCFCE010E947105DE
:100B6000E7CFDF91CF910895EF92FF920F931F93FC
:100B7000CF93DF93EC0181E0888F9B8D8C8D981350
:100B800005C0E889F989808185FD24C0F62E0B8D8A
:100B900010E00F5F1F4F0F731127E02E8C8DE812AE
:100BA0000CC00FB607FCFACFE889F989808185FF70
:100BB000F5CFCE010E947105F1CF8B8DFE01E80FBC
:100BC000F11DE35AFF4FF0820B8FEA89FB89808188
:100BD000806207C0EE89FF896083E889F989808196
:100BE0008064808381E090E0DF91CF911F910F912D
:100BF000FF90EF900895CF92DF92EF92FF921F93B4
:100C0000CF93DF93EC016A017B01122FE889F98908
:100C100082E080834115514E61057105B1F060E0BD
:100C200079E08DE390E0A70196010E94BF0CDA0104
:100C3000C9010197A109B109B695A795979587951F
:100C4000AC01411580E15807A8F0E889F9891082C4
:100C500060E874E88EE190E0A70196010E94BF0C65
:100C6000BA01A90141505109610971097695679549
:100C700057954795EC85FD855083EE85FF8540832C
:100C8000188EEC89FD891083EA89FB898081806157
:100C90008083EA89FB89808188608083EA89FB8977
:100CA000808180688083EA89FB8980818F7D808351
:100CB000DF91CF911F91FF90EF90DF90CF9008953B
:100CC0000F931F93CF93DF93EC018B010E94C40716
:100CD000CE0106960E94C407CE010C960E94C4075E
:100CE000CE0142960E94C407198F088FDF91CF91E1
:100CF0001F910F9108958F929F92AF92BF92EF92A2
:100D0000FF920F931F93CF93DF9300D000D0CDB706
:100D1000DEB77C0168E670E086E293E00E941C0486
:100D200047010F2C000CAA08BB0820E130E0B501F8
:100D3000A40186E293E00E94130504E010E020E0A5
:100D400030E0A9016AE070E0F701808D918D0E948A
:100D5000A80A89829A82AB82BC8244E050E0BE013C
:100D60006F5F7F4FF701808D918D0E94250BC7012A
:100D70000696092E000CAA0BBB0B89839A83AB83C2
:100D8000BC8344E050E0BE016F5F7F4FF701808D70
:100D9000918D0E94250BC7010C96092E000CAA0B01
:100DA000BB0B89839A83AB83BC8344E050E0BE01D4
:100DB0006F5F7F4FF701808D918D0E94250BC701DA
:100DC0004296092E000CAA0BBB0B89839A83AB8336
:100DD000BC8344E050E0BE016F5F7F4FF701808D20
:100DE000918D0E94250BF701808D918D0E945208F4
:100DF0000F900F900F900F90DF91CF911F910F9157
:100E0000FF90EF90BF90AF909F908F900895CF92FA
:100E1000DF92EF92FF920F931F93CF93DF931F9276
:100E2000CDB7DEB77C016B01498302E010E020E022
:100E300030E0A9016CE070E0FC01808D918D0E9492
:100E4000A80AF60101900020E9F73197AF014C198B
:100E50005D09B601F701808D918D0E94250B41E05F
:100E600050E0BE016F5F7F4FF701808D918D0E9432
:100E7000250BF701808D918D0E9452080F90DF9114
:100E8000CF911F910F91FF90EF90DF90CF90089539
:100E90008F929F92AF92BF92CF92DF92EF920F9379
:100EA0001F93CF93DF9300D000D0CDB7DEB76C0196
:100EB0005B014A013A8329830B83EC8205E010E051
:100EC00020E030E0A9016BE070E0FC01808D918DA5
:100ED0000E94A80AF50101900020E9F73197AF01BF
:100EE0004A195B09B501F601808D918D0E94250B91
:100EF00049815A81B401F601808D918D0E94250BA4
:100F000042E050E0BE016F5F7F4FF601808D918D12
:100F10000E94250B41E050E0BE016D5F7F4FF6015E
:100F2000808D918D0E94250B41E050E0BE016C5FE9
:100F30007F4FF601808D918D0E94250BF601808DEB
:100F4000918D0E9452080F900F900F900F90DF919B
:100F5000CF911F910F91EF90DF90CF90BF90AF9006
:100F60009F908F900895EF920F93FA0101900020C7
:100F7000E9F73197E41BF50BE02E022F9F010E9449
:100F800048070F91EF900895FC011182108213829F
:100F900012820895FC01738362830895DC01129626
:100FA000ED91FC9113973097F1F02D913C911197B1
:100FB00021153105B1F014964D915C911597CA0138
:100FC0009595879540FF0AC0D901A80FB91F4D918B
:100FD0005C91E40FF51F0190F081E02D820F931FCB
:100FE0000994CB0109940895FC0180819181892B9A
:100FF00039F481E022813381232B19F480E00895B4
:1010000081E00895CF93DF93EC018A859B85603C56
:10101000A1F06B3D21F5DC01ED91FC910190F08197
:10102000E02D6BED09958A859B85DC01ED91FC91A6
:101030000190F081E02D6DED18C0DC01ED91FC9187
:101040000190F081E02D6BED09958A859B85DC018F
:10105000ED91FC910190F081E02D6CED06C0DC017A
:10106000ED91FC910190F081E02DDF91CF910994F9
:10107000EF92FF920F931F93CF93DF937C01EB01CD
:101080008B01040F151FC017D10729F06991C70103
:101090000E940208F8CFDF91CF911F910F91FF902E
:1010A000EF900895CF93DF93EC01BC01635F7F4F16
:1010B00042E050E00E9438088A859B85DC01ED9172
:1010C000FC910190F081E02D60ECDF91CF910994CB
:1010D0000F931F93CF93DF93EC018B01FC0141939E
:1010E0005193CF010E94C4071B870A8781E08C8738
:1010F000CE014696988B8F8780E890E09A8B898BFB
:101100001C8A1B8A1D8ADF91CF911F910F91089530
:10111000FC012485222321F0808191810C946604B6
:1011200008954627342F252FA901442784E0440F32
:10113000551F8A95E1F742275327CA01892F99271E
:1011400082958F7048275927CA01882735E09695E0
:1011500087953A95E1F7842795270895EF92FF92B6
:101160000F931F93CF93DF937C01C901EB018B0198
:10117000040F151FC017D10731F06991AC01C701E9
:101180000E949108F7CFDF91CF911F910F91FF90AF
:10119000EF900895AF92BF92CF92DF92EF92FF92BD
:1011A0000F931F93CF93DF9300D000D000D0CDB723
:1011B000DEB78C01DC011F96ED90FC9050971C96D9
:1011C0008C911C97882309F47DC06CE172E08D91AD
:1011D0009C910E944E04F801638974894AE050E0B2
:1011E000808191810E94F70466E272E0D8018D91BE
:1011F0009C910E944E04F80147855089052E000CF1
:10120000660B770B20E130E0808191810E94CC0455
:101210006AE472E0D8018D919C910E944E04F7011E
:101220006081718140E150E0D8018D919C910E94D4
:10123000F7046BE472E0F801808191810E944E0412
:10124000D70114964D915D916D917C91179720E196
:1012500030E0F801808191810E94CC046BE472E05F
:10126000D8018D919C910E944E04F7016281738197
:1012700040E150E0D8018D919C910E94F70488E0F4
:10128000C82ED12CF8012389348980819181C2161E
:10129000D306B0F46BE472E00E944E04D8011F96AE
:1012A000ED91FC915097EC0DFD1D40E150E0608107
:1012B0008D919C910E94D904BFEFCB1ADB0AE2CF3B
:1012C0000E945004D8015396CD90DC905497B2E020
:1012D000CB1AD108F801A784B08820E030E0A6013D
:1012E000B501C8010E94AE08F501EC0DFD1D20817D
:1012F00031818217930731F069E272E0C8010E94E0
:10130000880882C0D7018D919C918230910539F077
:1013100083309105F1F0019709F06CC05BC0F801D2
:101320008485882309F473C06AE372E08081918127
:101330000E944E04D70114964D915D916D917C9160
:1013400017972AE030E0F801808191810E9413050F
:101350005EC0D8011C968C911C97882329F163E408
:1013600072E08D919C910E944E04F7014481558159
:10137000668177812AE030E0D8018D919C910E94AE
:10138000CC046BE472E0F801808191810E944E04EC
:10139000D70112966D917C9113974AE050E0F801C5
:1013A000808191810E94FD04D70114960D911C91BA
:1013B0001597C8010E94F407882331F1B701CE01C7
:1013C00001960E94020CBE016F5F7F4FC8010E9410
:1013D000CE071AC06DE472E0F801808191810E940D
:1013E0006604D8011896ED91FC911997309761F039
:1013F00009950AC0F8018485882331F068E572E018
:10140000808191810E94660480E090E001C0C70164
:1014100026960FB6F894DEBF0FBECDBFDF91CF91F9
:101420001F910F91FF90EF90DF90CF90BF90AF9002
:1014300008951F93CF93DF93EC0111E08A859B857C
:10144000DC01ED91FC910480F581E02D0995892B5B
:1014500009F443C08A859B85DC01ED91FC910680EF
:10146000F781E02D09958B3D910511F41D8BE6CF99
:101470002B893C89803C910579F42830310520F096
:10148000CE010E94CA0802C080E090E01C8A1B8A3C
:101490001D8A009799F223C04D89442361F08C3D49
:1014A000910531F08D3D910529F48BED90E002C05E
:1014B00080EC90E01D8A49895A892417350708F085
:1014C000BDCF4F855889B9016F5F7F4F7C8B6B8B88
:1014D000FA01E20FF31F8083B1CF80E090E0DF914B
:1014E000CF911F9108958F929F92AF92BF92CF920A
:1014F000DF92EF92FF920F931F93CF93DF93EC0154
:101500006A017B010E9442024B015C010E9442027F
:101510008B019C01081919092A093B090C151D05A5
:101520002E053F0530F4CE010E94190A009771F391
:1015300002C080E090E0DF91CF911F910F91FF906A
:10154000EF90DF90CF90BF90AF909F908F900895D5
:10155000EF92FF920F931F93CF93DF93CDB7DEB738
:1015600028970FB6F894DEBF0FBECDBF7C017A83FB
:1015700069832B833C834D835E8318870F83DC0153
:101580001E961C921E921D971A968D919C911B97E8
:10159000DC01ED91FC910190F081E02D60EC09956A
:1015A00042E050E0BE016F5F7F4FC7010E943808E4
:1015B000F7012585368542E050E0BE016F5F7F4F21
:1015C000C7010E94AE08D7011E969C938E931D976B
:1015D00042E050E0BE01695F7F4FC7010E943808BA
:1015E000F7012585368542E050E0BE01695F7F4FF7
:1015F000C7010E94AE08D7011E969C938E931D973B
:1016000044E050E0BE016D5F7F4FC7010E94380883
:10161000F7012585368544E050E0BE016D5F7F4FC0
:10162000C7010E94AE08D7011E969C938E931D970A
:1016300028960FB6F894DEBF0FBECDBFDF91CF91D5
:101640001F910F91FF90EF900895CF92DF92EF924C
:10165000FF920F931F93CF93DF9300D0CDB7DEB7E8
:101660008C017B015A83498342E050E0BE016F5FE9
:101670007F4F0E943808F8012585368542E050E00A
:10168000BE016F5F7F4FC8010E94AE08F8019687C8
:101690008587C980DA80CE0CDF1CEC14FD0491F044
:1016A000F7016081C8010E940208F801458556854E
:1016B000F70161917F01C8010E949108F8019687A6
:1016C0008587EBCFE980FA80F194E194F108F3E0AB
:1016D000EF22FF24F1E0EF1AF10878F060E0C80192
:1016E0000E940208F8014585568560E0C8010E9405
:1016F0009108F80196878587EDCF0F900F90DF91C5
:10170000CF911F910F91FF90EF90DF90CF900895B0
:101710004F925F926F927F92AF92BF92CF92DF9281
:10172000EF92FF920F931F93CF93DF93EC012A0167
:101730003B018A859B85DC01ED91FC910190F08154
:10174000E02D60EC09956E01B2E0CB0ED11C0D2CA2
:10175000000CEE08FF0800E010E0A701960161E030
:1017600070E0CE010E94A80ACE010E945208A8840F
:10177000B98419861886B301A201CE010E94730AAA
:101780008C01892B69F1F80144815581668177814B
:101790008C854C155D056E057F0561F4882331F05D
:1017A00062E572E0888199810E946604B986A88604
:1017B00081E019C08823F9F26EE572E08881998191
:1017C0000E944E04D80114964D915D916D917C91CB
:1017D00017972AE030E0888199810E941305CBCFCA
:1017E000B986A88680E0DF91CF911F910F91FF907D
:1017F000EF90DF90CF90BF90AF907F906F905F9011
:101800004F900895FC0175836483685F7F4F7383F5
:101810006283118210820895EF92FF920F931F93BB
:10182000CF93DF93EC0188819981EC81FD81228146
:1018300033818217930760F5EA81FB810191119151
:101840002EEF3FEF201B310B7901A3E0EA22FF24AA
:10185000FB83EA83019699838883CB019A0104175D
:10186000150708F49801260F371F8217930729F0F0
:101870004191DC014D93CD01F8CF9701200F311F2D
:101880008A819B81280F391F3B832A83C80102C0AC
:101890008FEF9FEFDF91CF911F910F91FF90EF900E
:1018A0000895CF92DF92EF92FF920F931F93CF9301
:1018B000DF936C01EB016DEF71E00E94F702EA81AA
:1018C000FB81E190F1900EEF1FEF0E191F090370DD
:1018D0001127FB83EA838881998101969983888304
:1018E000EA81FB81E114F10461F0CF0101969B8351
:1018F0008A836081C6010E943A0381E0E81AF108F8
:10190000EFCF0E0F1F1F1B830A83C601DF91CF91FC
:101910001F910F91FF90EF90DF90CF900895FC0101
:101920007183608308950F931F93CF93DF93EC012E
:1019300000E010E020E030E0A90167E070E088817D
:1019400099810E94A80A888199810E94520840EDDD
:1019500057E060E070E0888199810E94730A0097E7
:1019600031F0FC01648175818681978103C060E05C
:1019700070E0CB01DF91CF911F910F910895A1E20B
:101980001A2EAA1BBB1BFD010DC0AA1FBB1FEE1FF9
:10199000FF1FA217B307E407F50720F0A21BB30B44
:1019A000E40BF50B661F771F881F991F1A9469F7C0
:1019B00060957095809590959B01AC01BD01CF011C
:1019C0000895EE0FFF1F0590F491E02D0994CF9339
:1019D000DF938230910510F482E090E0E091C5033E
:1019E000F091C60320E030E0C0E0D0E0309711F184
:1019F0004081518148175907C0F04817590761F4D1
:101A000082819381209719F09B838A832BC09093C6
:101A1000C6038093C50326C02115310519F042176E
:101A2000530718F49A01BE01DF01EF010280F38130
:101A3000E02DDCCF2115310509F1281B390B2430AD
:101A4000310590F412968D919C9113976115710553
:101A500021F0FB019383828304C09093C60380939B
:101A6000C503FD01329644C0FD01E20FF31F8193CF
:101A70009193225031092D933C933AC02091C30396
:101A80003091C403232B41F42091020130910301D2
:101A90003093C4032093C3032091000130910101CE
:101AA0002115310541F42DB73EB740910401509105
:101AB0000501241B350BE091C303F091C403E21729
:101AC000F307A0F42E1B3F0B2817390778F0AC0161
:101AD0004E5F5F4F2417350748F04E0F5F1F50933E
:101AE000C4034093C3038193919302C0E0E0F0E00C
:101AF000CF01DF91CF9108950F931F93CF93DF9381
:101B0000009709F48CC0FC01329713821282009175
:101B1000C5031091C6030115110581F4208131819F
:101B2000820F931F2091C3033091C40328173907F4
:101B300079F5F093C403E093C30371C0D80140E08A
:101B400050E0AE17BF0750F412962D913C911397B9
:101B5000AD012115310509F1D901F3CF9D01DA015C
:101B60003383228360817181860F971F82179307C9
:101B700069F4EC0128813981260F371F2E5F3F4F12
:101B8000318320838A819B8193838283452B29F42F
:101B9000F093C603E093C50342C01396FC93EE9303
:101BA0001297ED01499159919E01240F351FE217BB
:101BB000F30771F480819181840F951F029611962D
:101BC0009C938E938281938113969C938E9312970C
:101BD000E0E0F0E0D80112968D919C911397009768
:101BE00019F0F8018C01F6CF8D919C9198012E5F30
:101BF0003F4F820F931F2091C3033091C4032817D6
:101C0000390769F4309729F41092C6031092C5037E
:101C100002C0138212821093C4030093C303DF91A6
:101C2000CF911F910F910895A0E0B0E0EAE1FEE0AE
:101C30000C94270FEC01009721F4CB010E94E70CD4
:101C4000B8C0FC01E60FF71F9C0122503109E217D2
:101C5000F30708F4ACC0D9010D911C911197061738
:101C60001707B0F00530110508F49FC0C8010497AC
:101C70008617970708F499C002501109061B170B25
:101C8000019311936D937C93CF010E947C0D8DC0C5
:101C90005B01A01AB10A4C01800E911EA091C503F0
:101CA000B091C60340E050E0E12CF12C109709F40C
:101CB0004AC0A815B905D1F56D907C9011976301C4
:101CC00082E0C80ED11CCA14DB0480F1A3014A19BA
:101CD0005B096A0182E0C80ED11C1296BC90129773
:101CE0001396AC91B5E0CB16D10440F0B282A38339
:101CF00051834083D9016D937C930AC00E5F1F4FBF
:101D0000C301800F911FF90191838083EB2DFA2F7E
:101D1000E114F10431F0D7011396FC93EE9312977E
:101D200044C0F093C603E093C5033FC08D919C91DE
:101D300011974817590708F4AC017D0112960D90D0
:101D4000BC91A02DB3CF8091C3039091C40388159B
:101D50009905E1F446175707C8F480910001909166
:101D60000101009741F48DB79EB740910401509155
:101D70000501841B950BE817F907C8F4F093C40319
:101D8000E093C303F901718360830FC0CB010E940C
:101D9000E70C7C01009759F0A801BE010E94DE0EFD
:101DA000CE010E947C0DC70104C0CE0102C080E0BC
:101DB00090E0CDB7DEB7EEE00C94430FFB01DC0101
:101DC00002C001900D9241505040D8F70895FB0198
:101DD000DC0101900D920020E1F70895BB274A3005
:101DE00031F4992322F4BDE2909581959F4F0C9494
:101DF000FA0EBB27FB015527AA27880F991FAA1F98
:101E0000A41710F0A41B83955051B9F7A05DAA3315
:101E100008F0A95DA193009779F7B111B1931192E0
:101E2000CB010C94130FDC01FC01672F7191772318
:101E3000E1F7329704C07C916D9370836291AE1785
:101E4000BF07C8F308952F923F924F925F926F920F
:101E50007F928F929F92AF92BF92CF92DF92EF923A
:101E6000FF920F931F93CF93DF93CDB7DEB7CA1BBB
:101E7000DB0B0FB6F894DEBF0FBECDBF09942A88E6
:101E8000398848885F846E847D848C849B84AA848E
:101E9000B984C884DF80EE80FD800C811B81AA811B
:101EA000B981CE0FD11D0FB6F894DEBF0FBECDBFE6
:081EB000ED010895F894FFCF45
:101EB8000000C70380004D51545420646973636F58
:101EC8006E6E6563746564004D515454207075627C
:101ED8006C6973686564004D51545420636F6E6E6D
:101EE800656374656421002F6573702D6C696E6B72
:101EF8002F31002F68656C6C6F2F776F726C642FB1
:101F0800230052656365697665643A20746F706969
:101F1800633D00646174613D005749464920434F61
:101F28004E4E45435445440057494649204E4F5468
:101F38002052454144593A2000454C2D436C69656F
:101F48006E74207374617274696E672100454C2D3C
:101F5800436C69656E742073796E63206661696C81
:101F680065642100454C2D436C69656E7420737956
:101F78006E6365642100454C2D4D515454207265A3
:101F8800616479007075626C697368696E67002FA7
:101F980068656C6C6F2F776F726C642F61726475F3
:101FA800696E6F0054696D653A20000D0A006E6114
:101FB8006E00696E66006F7666002E0000000000F5
:101FC800B405DC0335054F0541059205454C433AF8
:101FD80020676F742000204000454C433A20496E2A
:101FE80076616C69642043524300524553505F56F2
:101FF8003A2000524553505F43423A20004E45452F
:10200800445F53594E432100434D443F3F004241F2
:04201800443A200026
:00000001FF
