:100000000C9436000C945E000C945E000C945E0020
:100010000C945E000C945E000C945E000C945E00E8
:100020000C945E000C945E000C945E000C945E00D8
:100030000C945E000C945E000C945E000C945E00C8
:100040000C946D010C945E000C9449020C947B029C
:100050000C945E000C945E000C945E000C945E00A8
:100060000C945E000C945E006001AB0211241FBE74
:10007000CFEFD8E0DEBFCDBF12E0A0E0B1E0E6E117
:10008000F8E102C005900D92AE35B107D9F723E033
:10009000AEE5B2E001C01D92AB3AB207E1F710E065
:1000A000CCE6D0E004C02297FE010E94FC0BC836CB
:1000B000D107C9F70E9434040C94090C0C94000079
:1000C000CF93DF931F92CDB7DEB7DC011496ED918D
:1000D000FC911597228133812130310519F541E0DA
:1000E00050E0BE016F5F7F4F0E94AE09898185306D
:1000F00051F466E071E08EE093E00E948E0481E0AE
:1001000080935E020FC065E171E08EE093E00E9493
:1001100081044AE050E069818EE093E00E946F051F
:1001200010925E020F90DF91CF910895CF93DF93ED
:1001300026E040E052EC61E070E08EE093E00E9447
:10014000D10366E271E08EE093E00E948E0460E6E7
:1001500070E083E792E00E949E0B40ED57E060E084
:1001600070E081E792E00E940509811107C06AE30F
:1001700071E08EE093E00E948E04EFCF61E971E0C0
:100180008EE093E00E948E0481E792E00E94600975
:1001900040ED57E060E070E081E792E00E94F407F4
:1001A000EC01009781F061E571E08EE093E00E9440
:1001B00081044C815D816E817F812AE030E08EE098
:1001C00093E00E945B0520E040E550E06FE571E0C0
:1001D0008FE592E00E94380AEC01009771F06FE61B
:1001E00071E08EE093E00E9481044AE050E0BE019D
:1001F0008EE093E00E944305FFCF63E871E08EE05C
:1002000093E0DF91CF910C948E040F931F93CF93C3
:10021000DF93CDB7DEB7CA50D1400FB6F894DEBF3A
:100220000FBECDBF81E792E00E94A30780915E02DE
:100230008823D1F140E050E063EA71E08FE592E07D
:100240000E94330B08E813E120E030E04AE051E07F
:10025000BE016F5F7F4F8FE592E00E94560B8C01CD
:10026000883C910571F46CEA71E08EE093E00E94A5
:100270008E04BE016F5F7F4F8EE093E00E948E047C
:100280000DC065EC71E08EE093E00E9481044AE0CD
:1002900050E0B8018EE093E00E948C0568EE73E0B8
:1002A00080E090E00E94E601C65FDE4F0FB6F89452
:1002B000DEBF0FBECDBFDF91CF911F910F9108958B
:1002C0004EE053E0BA0181E792E00E941A0661E72E
:1002D00072E08FE592E00C94210A1F920F920FB604
:1002E0000F9211242F933F938F939F93AF93BF93BC
:1002F0008091060390910703A0910803B091090330
:100300003091050323E0230F2D3720F40196A11D22
:10031000B11D05C026E8230F0296A11DB11D209333
:1003200005038093060390930703A0930803B093FB
:10033000090380910A0390910B03A0910C03B091E3
:100340000D030196A11DB11D80930A0390930B0329
:10035000A0930C03B0930D03BF91AF919F918F9128
:100360003F912F910F900FBE0F901F9018952FB7B0
:10037000F8946091060370910703809108039091AF
:1003800009032FBF08953FB7F89480910A03909115
:100390000B03A0910C03B0910D0326B5A89B05C0DB
:1003A0002F3F19F00196A11DB11D3FBF6627782F81
:1003B000892F9A2F620F711D811D911D42E0660FDA
:1003C000771F881F991F4A95D1F70895CF92DF9222
:1003D000EF92FF92CF93DF936B017C010E94C301E8
:1003E000EB01C114D104E104F10489F00E94D70BA0
:1003F0000E94C3016C1B7D0B683E734090F381E04B
:10040000C81AD108E108F108C851DC4FEACFDF91E2
:10041000CF91FF90EF90DF90CF900895789484B5BE
:10042000826084BD84B5816084BD85B5826085BDF0
:1004300085B5816085BDEEE6F0E0808181608083D6
:10044000E1E8F0E0108280818260808380818160B9
:100450008083E0E8F0E0808181608083E1EBF0E080
:10046000808184608083E0EBF0E080818160808324
:10047000EAE7F0E08081846080838081826080830D
:100480008081816080838081806880831092C10038
:1004900008951F920F920FB60F9211242F938F93EE
:1004A0009F93EF93FF93E0911E03F0911F038081D0
:1004B000E0912403F091250382FD12C09081809188
:1004C00027038F5F8F7320912803821751F0E091EB
:1004D0002703F0E0E25FFC4F958F8093270301C074
:1004E0008081FF91EF919F918F912F910F900FBE7F
:1004F0000F901F9018951F920F920FB60F92112414
:100500002F933F934F935F936F937F938F939F931B
:10051000AF93BF93EF93FF938EE093E00E94290384
:10052000FF91EF91BF91AF919F918F917F916F91CB
:100530005F914F913F912F910F900FBE0F901F90A1
:1005400018958EE093E00E94EE0221E0892B09F4D9
:1005500020E0822F0895109211031092100388EE6C
:1005600093E0A0E0B0E08093120390931303A09374
:100570001403B09315038FED91E090930F038093D4
:100580000E0385EC90E090931B0380931A0384EC98
:1005900090E090931D0380931C0380EC90E0909377
:1005A0001F0380931E0381EC90E0909321038093BE
:1005B000200382EC90E0909323038093220386EC47
:1005C00090E09093250380932403109227031092C8
:1005D00028031092290310922A030895FC01818DAB
:1005E000228D90E0805C9F4F821B91098F73992729
:1005F0000895FC01918D828D981731F0828DE80F5E
:10060000F11D858D90E008958FEF9FEF0895FC0117
:10061000918D828D981761F0828DDF01A80FB11D39
:100620005D968C91928D9F5F9F73928F90E008955D
:100630008FEF9FEF089581EA92E0892B49F080E0E7
:1006400090E0892B29F00E94A10281110C940000F6
:100650000895FC01848DDF01A80FB11DA35ABF4F7F
:100660002C91848D90E001968F739927848FA689B1
:10067000B7892C93A089B1898C9180648C93938DD8
:10068000848D981306C00288F389E02D80818F7DC8
:1006900080830895CF93DF93EC01888D8823C9F080
:1006A000EA89FB89808185FD05C0A889B9898C917B
:1006B00086FD0FC00FB607FCF5CF808185FFF2CF16
:1006C000A889B9898C9185FFEDCFCE010E942903BD
:1006D000E7CFDF91CF910895CF92DF92FF920F93F2
:1006E0001F93CF93DF931F92CDB7DEB76C0181E0EC
:1006F000D60158968C9358975B969C915B975C9625
:100700008C915C97981307C05096ED91FC9151978E
:10071000808185FD2EC0F601038D10E00F5F1F4F15
:100720000F731127F02EF601848DF81211C00FB649
:1007300007FCF9CFD6015096ED91FC91519780813D
:1007400085FFF1CFC60169830E9429036981EBCF40
:10075000838DE80FF11DE35AFF4F6083D6015B964E
:100760000C935B975296ED91FC9153978081806238
:100770000CC0D6015696ED91FC9157976083509628
:10078000ED91FC91519780818064808381E090E0BD
:100790000F90DF91CF911F910F91FF90DF90CF903D
:1007A0000895BF92CF92DF92EF92FF92CF93DF93A3
:1007B000EC016A017B01B22EE889F98982E080832D
:1007C000411581EE580761057105A1F060E079E0FF
:1007D0008DE390E0A70196010E94D80B21503109CA
:1007E000410951095695479537952795211580E17F
:1007F000380798F0E889F989108260E874E88EE19A
:1008000090E0A70196010E94D80B215031094109BF
:1008100051095695479537952795EC85FD85308389
:10082000EE85FF852083188EEC89FD89B082EA89E8
:10083000FB89808180618083EA89FB89808188606F
:100840008083EA89FB89808180688083EA89FB89CB
:1008500080818F7D8083DF91CF91FF90EF90DF903B
:10086000CF90BF90089508950E940E020E94330415
:100870000E949600CBE1D3E00E9405012097E1F3AE
:100880000E941B03F9CFCF92DF92EF92FF920F935A
:100890001F93CF93DF936C017A01EB01E60EF71EF5
:1008A00000E010E0CE15DF0561F06991D601ED9111
:1008B000FC910190F081E02DC6010995080F191FE8
:1008C000F1CFC801DF91CF911F910F91FF90EF9071
:1008D000DF90CF9008956115710581F0DB010D90D7
:1008E0000020E9F7AD0141505109461B570BDC01CF
:1008F000ED91FC910280F381E02D099480E090E07D
:1009000008950C946B04DC01ED91FC910190F08151
:10091000E02D09946BEE71E00C946B040F931F9320
:10092000CF93DF93EC010E946B048C01CE010E94F7
:100930008A04800F911FDF91CF911F910F9108952D
:100940008F929F92AF92BF92CF92DF92EF92FF92DF
:100950000F931F93CF93DF93CDB7DEB7A1970FB659
:10096000F894DEBF0FBECDBF7C01C42EE52FCB01B6
:10097000D22E19A221E02D1510F02AE0D22E8E01E0
:100980000F5D1F4F8D2C912CA12CB12C6C2D7E2F27
:10099000A50194010E94D80B8C2DD29E80191124A0
:1009A000015011098A3010F4805D01C0895CF801A2
:1009B0008083211531054105510521F0C22EE32F19
:1009C000CA01E4CFB801C7010E946B04A1960FB61B
:1009D000F894DEBF0FBECDBFDF91CF911F910F9175
:1009E000FF90EF90DF90CF90BF90AF909F908F904F
:1009F0000895CF92DF92EF92FF920F931F93CF93C0
:100A0000DF93EC016A017B012115310579F4E8815E
:100A1000F9810190F081E02D642FDF91CF911F913A
:100A20000F91FF90EF90DF90CF9009942A3031051D
:100A3000E9F477FF1AC06DE20E9483048C01442719
:100A40005527BA014C195D096E097F092AE0CE01CC
:100A50000E94A004800F911FDF91CF911F910F91F1
:100A6000FF90EF90DF90CF9008952AE0B701A601A4
:100A7000CE01DF91CF911F910F91FF90EF90DF900A
:100A8000CF900C94A0040F931F93CF93DF93EC01AE
:100A90009A01AB01662757FD6095762F0E94F904F5
:100AA0008C01CE010E948A04800F911FDF91CF91AB
:100AB0001F910F9108952115310541F4DC01ED914D
:100AC000FC910190F081E02D642F09940C94A00416
:100AD0009A01462F50E060E070E00C945B050F93A4
:100AE0001F93CF93DF93EC019A01462F50E060E013
:100AF00070E00E945B058C01CE010E948A04800F89
:100B0000911FDF91CF911F910F9108959A01AB0131
:100B100060E070E00C945B050F931F93CF93DF931D
:100B2000EC019A01AB0160E070E00E945B058C0172
:100B3000CE010E948A04800F911FDF91CF911F91F7
:100B40000F9108950F931F93CF93DF93EC010E94B1
:100B50005B058C01CE010E948A04800F911FDF91FA
:100B6000CF911F910F910895CF93DF93EC0188856A
:100B70009985603CA1F06B3D21F5DC01ED91FC9184
:100B80000190F081E02D6BED099588859985DC0158
:100B9000ED91FC910190F081E02D6DED18C0DC012C
:100BA000ED91FC910190F081E02D6BED0995888528
:100BB0009985DC01ED91FC910190F081E02D6CEDC7
:100BC00006C0DC01ED91FC910190F081E02DDF91F8
:100BD000CF910994EF92FF920F931F93CF93DF93DE
:100BE0007C018A01EB01060F171FC017D10729F0FE
:100BF0006991C7010E94B405F8CFDF91CF911F9191
:100C00000F91FF90EF900895CF93DF93EC01BC011B
:100C1000655F7F4F42E050E00E94EA058885998534
:100C2000DC01ED91FC910190F081E02D60ECDF9111
:100C3000CF9109940F931F93CF93DF93EC018B0116
:100C4000FC0141935193CF010E94980B19870887AB
:100C500081E08A87CE0144969E878D8780E890E068
:100C6000988B8F871A8A198A1B8ADF91CF911F91DF
:100C70000F910895FC012285222321F0808191812A
:100C80000C948E04089546275427452754279A012B
:100C9000222784E0220F331F8A95E1F72427352786
:100CA000C901892F992782958F70822793279C01EC
:100CB000222755E0369527955A95E1F78227932705
:100CC0000895EF92FF920F931F93CF93DF937C01D0
:100CD0008A01C901EB01060F171FC017D10731F0B8
:100CE0006991AC01C7010E944306F7CFDF91CF9114
:100CF0001F910F91FF90EF900895AF92BF92CF9206
:100D0000DF92EF92FF920F931F93CF93DF9300D068
:100D100000D000D0CDB7DEB78C01DC011D96ED9080
:100D2000FC901E971A968C911A97882309F47DC01F
:100D30006CEF71E08D919C910E948104F8016189B2
:100D400072894AE050E0808191810E94860566E0C8
:100D500072E0D8018D919C910E948104F801458533
:100D60005685662757FD6095762F20E130E080811B
:100D700091810E945B056AE272E0D8018D919C919D
:100D80000E948104F701608171814AE050E0D8013E
:100D90008D919C910E9486056BE272E0F801808142
:100DA00091810E948104D70114964D915D916D91BE
:100DB0007C9117972AE030E0F801808191810E94B0
:100DC0005B056BE272E0D8018D919C910E948104D9
:100DD000F701628173814AE050E0D8018D919C91C6
:100DE0000E94860568E0C62ED12CF801218932893F
:100DF00080819181C216D306B0F46BE272E00E944A
:100E00008104D8011D96ED91FC911E97EC0DFD1DFE
:100E100040E150E060818D919C910E946805BFEF98
:100E2000CB1ADB0AE2CF0E948A04D8015196CD90FA
:100E3000DC905297B2E0CB1AD108F801A584B684B1
:100E400020E030E0A601B501C8010E946106F5016D
:100E5000EC0DFD1D208131818217930731F069E08F
:100E600072E0C8010E943A065BC0D7012D913C9107
:100E7000F8018081918122303105A1F46AE172E0AC
:100E80000E948104D70114964D915D916D917C91E2
:100E900017972AE030E0F801808191810E94A20535
:100EA000C70140C023303105B9F563E272E00E940A
:100EB0008104D70114964D915D916D917C911797A6
:100EC0002AE030E0F801808191810E945B056BE2AD
:100ED00072E0D8018D919C910E948104F70162819A
:100EE00073814AE050E0D8018D919C910E948C055D
:100EF000F70104811581C8010E94C90B882381F084
:100F0000B701CE0101960E947509BE016F5F7F4F48
:100F1000C8010E94A20B04C06DE272E00E948E0420
:100F200080E090E026960FB6F894DEBF0FBECDBFEE
:100F3000DF91CF911F910F91FF90EF90DF90CF90B5
:100F4000BF90AF9008951F93CF93DF93EC0111E012
:100F500088859985DC01ED91FC910480F581E02D77
:100F60000995892BD9F188859985DC01ED91FC9152
:100F70000680F781E02D09958B3D11F41B8BE8CF9E
:100F800029893A89803C79F42830310520F0CE0156
:100F90000E947D0602C080E090E01A8A198A1B8AAE
:100FA0000097B1F21DC09B89992341F08C3D21F03F
:100FB0008D3D19F48BED01C080EC1B8A4F8558895B
:100FC0002417350728F6ED85FE85A9014F5F5F4F91
:100FD0005A8B498BE20FF31F8083BACF80E090E0F9
:100FE000DF91CF911F9108958F929F92AF92BF9200
:100FF000CF92DF92EF92FF92CF93DF93EC016A01E1
:101000007B010E94B7014B015C010E94B701681986
:1010100079098A099B096C157D058E059F0530F4B9
:10102000CE010E94A307009781F302C080E090E008
:10103000DF91CF91FF90EF90DF90CF90BF90AF9076
:101040009F908F900895EF92FF920F931F93CF93ED
:10105000DF93CDB7DEB728970FB6F894DEBF0FBE8B
:10106000CDBF7C017A8369832B833C834D835E8370
:1010700018870F83DC011C961C921E921B971896F2
:101080008D919C911997DC01ED91FC910190F0817B
:10109000E02D60EC099542E050E0BE016F5F7F4FAC
:1010A000C7010E94EA05F7012385348542E050E03C
:1010B000BE016F5F7F4FC7010E946106D7011C967A
:1010C0009C938E931B9742E050E0BE01695F7F4F77
:1010D000C7010E94EA05F7012385348542E050E00C
:1010E000BE01695F7F4FC7010E946106D7011C9650
:1010F0009C938E931B9744E050E0BE016D5F7F4F41
:10110000C7010E94EA05F7012385348544E050E0D9
:10111000BE016D5F7F4FC7010E946106D7011C961B
:101120009C938E931B9728960FB6F894DEBF0FBE44
:10113000CDBFDF91CF911F910F91FF90EF90089558
:10114000CF92DF92EF92FF920F931F93CF93DF9393
:1011500000D0CDB7DEB78C017B015A83498342E0D2
:1011600050E0BE016F5F7F4F0E94EA05F8012385C2
:10117000348542E050E0BE016F5F7F4FC8010E949E
:101180006106F80194878387C980DA80CE0CDF1C62
:10119000EC14FD0491F0F7016081C8010E94B405D0
:1011A000F80143855485F70161917F01C8010E94D0
:1011B0004306F80194878387EBCFE980FA80F194A6
:1011C000E194F108F3E0EF22FF24E114F10491F03F
:1011D00060E0C8010E94B405F8014385548560E0D1
:1011E000C8010E944306F80194878387F1E0EF1A53
:1011F000F108EBCF0F900F90DF91CF911F910F91DE
:10120000FF90EF90DF90CF9008958F929F92AF92D2
:10121000BF92CF92DF92EF92FF920F931F93CF93E3
:10122000DF93EC014A015B016C0182E0C80ED11C26
:10123000EE24D7FCE094FE2C00E010E0A70196011C
:1012400061E070E0CE010E942308CE010E940406F6
:10125000B501A401CE010E94F4078C01009711F1A1
:10126000F8014481558166817781888199814C1587
:101270005D056E057F0531F463E372E00E948E0424
:1012800081E011C069E372E00E948104F8014481A9
:101290005581668177812AE030E0888199810E94BA
:1012A000A205D6CF80E0DF91CF911F910F91FF90E3
:1012B000EF90DF90CF90BF90AF909F908F90089568
:1012C0000F931F93CF93DF93EC0100E010E020E039
:1012D00030E0A90164E070E00E942308CE01DF91B4
:1012E000CF911F910F910C940406FC0175836483C8
:1012F000685F7F4F73836283118210820895CF935A
:10130000DF93FC0180819181A481B58112962D919A
:101310003C91139782179307E0F4A281B3812D913A
:101320003D91B383A283019691838083EB01B983BE
:10133000A88382819381820F931F44275527421BE4
:10134000530B43705527840F951F93838283C901E4
:1013500002C08FEF9FEFDF91CF9108950F931F93FE
:10136000CF93DF93FC0180819181A481B581129696
:101370002D913C9113978217930760F5A281B38159
:10138000CD91DD91B383A2830196918380839A01ED
:10139000C417D50708F49E01CD018B01AB01420FA4
:1013A000531F0417150739F0DC016D91CD01D801E9
:1013B0006D938D01F6CF828193818C0F9D1FD19506
:1013C000C195D109C370DD278C0F9D1F9383828344
:1013D000C90102C08FEF9FEFDF91CF911F910F9155
:1013E00008950F931F93CF93DF93EC018B01611549
:1013F000710511F1BC01645F7F4F42E050E0C8010C
:101400000E94AE09EC81FD816FE372E080819181E1
:101410000E9481046C857D85EC81FD814AE050E06D
:10142000808191810E944305BE01605F7F4FC801AA
:101430000E947F099F878E87DF91CF911F910F9127
:1014400008950F931F93CF93DF93EC018B010696C2
:101450000E94980B1D830C834FEF5FEFBA01488306
:1014600059836A837B83DF91CF911F910F910895F8
:10147000CF92DF92EF92FF920F931F93CF93DF9360
:1014800000D01F92CDB7DEB77C016B015B834A832E
:101490002983FC019783868341EF59E060E070E087
:1014A00040875187628773879C012A5F3F4F44279B
:1014B00037FD4095542F03E010E064E170E0848133
:1014C00095810E942308F60101900020E9F7AF0101
:1014D000415051094C195D09B601F701848195818C
:1014E0000E94A00842E050E0BE016E5F7F4FF7010E
:1014F000848195810E94A00841E050E0BE016F5FA9
:101500007F4FF701848195810E94A008F7018481B3
:1015100095810E94040640ED57E060E070E0F7011D
:10152000848195810E94F407009779F0FC01448141
:1015300055816681778177FD08C0F701408351832B
:101540006283738380E090E003C0FC018481958115
:101550000F900F900F90DF91CF911F910F91FF90FF
:10156000EF90DF90CF9008958F929F92AF92BF92AD
:10157000CF92DF92EF92FF920F931F93CF93DF935F
:10158000EC015B014A01790168011D861C862881F6
:1015900039814A815B8157FD49C08C819D81E1146D
:1015A000F10431F0101611061CF403E010E002C043
:1015B00002E010E065E170E00E942308F401019070
:1015C0000020E9F7AF014150510948195909B40108
:1015D0008C819D810E94A008F50101900020E9F70F
:1015E000AF01415051094A195B09B5018C819D81B8
:1015F0000E94A008E114F10449F01C141D0434F405
:10160000A601B7018C819D810E94A0088C819D81DB
:10161000DF91CF911F910F91FF90EF90DF90CF90CE
:10162000BF90AF909F908F900C940406DF91CF9164
:101630001F910F91FF90EF90DF90CF90BF90AF90F0
:101640009F908F9008950F931F93F90101900020B0
:10165000E9F78F0101501109021B130B0E94B40A14
:101660001F910F9108959A014AE452E00C94230BC4
:10167000CF93DF93EC01CB012C853D85232B89F0A3
:10168000EE85FF859A01E417F50708F49F01688944
:101690007989A9010E94000C8C859D851D861C8678
:1016A00002C080E090E0DF91CF9108954F925F9269
:1016B0006F927F928F929F92AF92BF92CF92DF9262
:1016C000EF92FF920F931F93CF93DF93EC015B0197
:1016D0004A01280139010E94B7016B017C018C8508
:1016E0009D85892BA9F0A401B501CE01DF91CF9191
:1016F0001F910F91FF90EF90DF90CF90BF90AF9030
:101700009F908F907F906F905F904F900C94380BCC
:101710000E94B7016C197D098E099F096415750532
:101720008605970500F78C819D810E94A307D7CF7E
:10173000FC0111821082138212820895FC017383CE
:1017400062830895DC011296ED91FC911397309716
:10175000F9F02D913C91119721153105B9F01496AE
:101760008D919C911597AC015595479580FF0AC0C6
:10177000D901A40FB51F0D90BC91A02DAE0FBF1FB6
:10178000ED91FC91C901840F951F0994CB01099437
:101790000895FC0180819181892B39F481E02281B7
:1017A0003381232B19F480E0089581E00895089592
:1017B000A1E21A2EAA1BBB1BFD010DC0AA1FBB1F55
:1017C000EE1FFF1FA217B307E407F50720F0A21BC7
:1017D000B30BE40BF50B661F771F881F991F1A9434
:1017E00069F760957095809590959B01AC01BD015E
:1017F000CF010895EE0FFF1F0590F491E02D09949D
:10180000FB01DC0102C001900D9241505040D8F71D
:061810000895F894FFCFDB
:101816000000AB0380005749464920434F4E4E45D2
:10182600435445440057494649204E4F542052459B
:101836004144593A2000454C2D436C69656E74202D
:101846007374617274696E672100454C2D436C692F
:10185600656E742073796E63206661696C656421B8
:101866000057696669207374617475733A2000774E
:1018760077772E74696D656170692E6F7267005295
:1018860045535420626567696E206661696C6564BC
:101896003A2000454C2D52455354207265616479B7
:1018A60000454C2D436C69656E742073796E6365D3
:1018B6006421002F7574632F6E6F77004152445573
:1018C600494E4F3A204745542073756363657373D9
:1018D60066756C3A0041524455494E4F3A20474589
:1018E60054206661696C65643A2000000000006C53
:1018F600034304EE020703F9024A030D0A006E6170
:101906006E00696E66006F7666002E00454C433A9F
:1019160020676F742000204000454C433A20496EF2
:1019260076616C69642043524300524553505F56BA
:101936003A2000524553505F43423A2000434D44FB
:101946003F3F0053594E4321004241443A20005242
:1019560045535420636F6465200047455400504F3B
:0E1966005354005055540044454C4554450020
:00000001FF
