:100000000C9436000C945E000C945E000C945E0020
:100010000C945E000C945E000C945E000C945E00E8
:100020000C945E000C945E000C945E000C945E00D8
:100030000C945E000C945E000C945E000C945E00C8
:100040000C947A010C945E000C9456020C94880275
:100050000C945E000C945E000C945E000C945E00A8
:100060000C945E000C945E006D01B80211241FBE5A
:10007000CFEFD8E0DEBFCDBF12E0A0E0B1E0E8E313
:10008000F8E102C005900D92AE35B107D9F723E033
:10009000AEE5B2E001C01D92AB3AB207E1F710E065
:1000A000CCE6D0E004C02297FE010E940D0CC836B9
:1000B000D107C9F70E9441040C941A0C0C9400005B
:1000C000CF93DF931F92CDB7DEB7DC011496ED918D
:1000D000FC911597228133812130310519F541E0DA
:1000E00050E0BE016F5F7F4F0E94C3098981853058
:1000F00051F466E071E08EE093E00E949B0481E0A1
:1001000080935E020FC065E171E08EE093E00E9493
:100110008E044AE050E069818EE093E00E947C0505
:1001200010925E020F90DF91CF910895CF93DF93ED
:1001300026E040E052EC61E070E08EE093E00E9447
:10014000DE0366E271E08EE093E00E949B0460E6CD
:1001500070E083E792E00E94AF0B40ED57E060E073
:1001600070E081E792E00E941A09811107C06AE3FA
:1001700071E08EE093E00E949B04EFCF61E971E0B3
:100180008EE093E00E949B0481E792E00E94750953
:1001900040ED57E060E070E081E792E00E940908DE
:1001A000EC01009781F061E571E08EE093E00E9440
:1001B0008E044C815D816E817F812AE030E08EE08B
:1001C00093E00E94AF0520E040E550E06FE571E06C
:1001D0008FE592E00E94490AEC01009771F06FE60A
:1001E00071E08EE093E00E948E044AE050E0BE0190
:1001F0008EE093E00E945005FFCF63E871E08EE04F
:1002000093E0DF91CF910C949B04EF92FF920F93B8
:100210001F93CF93DF93CDB7DEB7CA50D1400FB64F
:10022000F894DEBF0FBECDBF81E792E00E94B00719
:1002300080915E02882309F442C040E050E063EA06
:1002400071E08FE592E00E94440B9E012F5F3F4FCB
:1002500079018AE091E0F9019C011192215030402E
:10026000E1F708E813E120E030E04AE051E0B701AF
:100270008FE592E00E94670B8C01883C910561F448
:100280006CEA71E08EE093E00E949B04B7018EE07F
:1002900093E00E949B040DC065EC71E08EE093E05A
:1002A0000E948E044AE050E0B8018EE093E00E9484
:1002B000990568EE73E080E090E00E94F301C65F6C
:1002C000DE4F0FB6F894DEBF0FBECDBFDF91CF91EA
:1002D0001F910F91FF90EF9008954EE053E0BA0107
:1002E00081E792E00E94270661E772E08FE592E0E5
:1002F0000C94320A1F920F920FB60F9211242F9373
:100300003F938F939F93AF93BF93809106039091F8
:100310000703A0910803B09109033091050323E07E
:10032000230F2D3720F40196A11DB11D05C026E82D
:10033000230F0296A11DB11D209305038093060390
:1003400090930703A0930803B093090380910A03D5
:1003500090910B03A0910C03B0910D030196A11D88
:10036000B11D80930A0390930B03A0930C03B093E9
:100370000D03BF91AF919F918F913F912F910F905E
:100380000FBE0F901F9018952FB7F8946091060339
:100390007091070380910803909109032FBF08957E
:1003A0003FB7F89480910A0390910B03A0910C033E
:1003B000B0910D0326B5A89B05C02F3F19F00196FB
:1003C000A11DB11D3FBF6627782F892F9A2F620F7D
:1003D000711D811D911D42E0660F771F881F991FB7
:1003E0004A95D1F70895CF92DF92EF92FF92CF9383
:1003F000DF936B017C010E94D001EB01C114D10499
:10040000E104F10489F00E94E80B0E94D0016C1B0A
:100410007D0B683E734090F381E0C81AD108E10873
:10042000F108C851DC4FEACFDF91CF91FF90EF90F8
:10043000DF90CF900895789484B5826084BD84B5B0
:10044000816084BD85B5826085BD85B5816085BDCF
:10045000EEE6F0E0808181608083E1E8F0E01082E8
:10046000808182608083808181608083E0E8F0E029
:10047000808181608083E1EBF0E080818460808313
:10048000E0EBF0E0808181608083EAE7F0E080814A
:1004900084608083808182608083808181608083AA
:1004A0008081806880831092C10008951F920F920E
:1004B0000FB60F9211242F938F939F93EF93FF9377
:1004C000E0911E03F0911F038081E0912403F091DD
:1004D000250382FD12C09081809127038F5F8F7367
:1004E00020912803821751F0E0912703F0E0E25FAA
:1004F000FC4F958F8093270301C08081FF91EF917E
:100500009F918F912F910F900FBE0F901F90189574
:100510001F920F920FB60F9211242F933F934F9378
:100520005F936F937F938F939F93AF93BF93EF935B
:10053000FF938EE093E00E943603FF91EF91BF910D
:10054000AF919F918F917F916F915F914F913F916B
:100550002F910F900FBE0F901F9018958EE093E093
:100560000E94FB0221E0892B09F420E0822F0895EC
:10057000109211031092100388EE93E0A0E0B0E017
:100580008093120390931303A0931403B093150365
:100590008FED91E090930F0380930E0385EC90E034
:1005A00090931B0380931A0384EC90E090931D03B7
:1005B00080931C0380EC90E090931F0380931E03B4
:1005C00081EC90E0909321038093200382EC90E0F3
:1005D000909323038093220386EC90E0909325036D
:1005E000809324031092270310922803109229036A
:1005F00010922A030895FC01818D228D90E0805C89
:100600009F4F821B91098F7399270895FC01918D4B
:10061000828D981731F0828DE80FF11D858D90E065
:1006200008958FEF9FEF0895FC01918D828D9817AB
:1006300061F0828DDF01A80FB11D5D968C91928DC6
:100640009F5F9F73928F90E008958FEF9FEF0895C3
:100650008EEA92E0892B49F080E090E0892B29F026
:100660000E94AE0281110C9400000895FC01848D5B
:10067000DF01A80FB11DA35ABF4F2C91848D90E0CC
:1006800001968F739927848FA689B7892C93A089A7
:10069000B1898C9180648C93938D848D981306C05E
:1006A0000288F389E02D80818F7D80830895CF9328
:1006B000DF93EC01888D8823C9F0EA89FB8980816A
:1006C00085FD05C0A889B9898C9186FD0FC00FB63C
:1006D00007FCF5CF808185FFF2CFA889B9898C917D
:1006E00085FFEDCFCE010E943603E7CFDF91CF919A
:1006F0000895CF92DF92FF920F931F93CF93DF93D2
:100700001F92CDB7DEB76C0181E0D60158968C936D
:1007100058975B969C915B975C968C915C9798132D
:1007200007C05096ED91FC915197808185FD2EC0B8
:10073000F601038D10E00F5F1F4F0F731127F02E8E
:10074000F601848DF81211C00FB607FCF9CFD6015F
:100750005096ED91FC915197808185FFF1CFC601B4
:1007600069830E9436036981EBCF838DE80FF11D09
:10077000E35AFF4F6083D6015B960C935B975296CA
:10078000ED91FC915397808180620CC0D601569602
:10079000ED91FC91579760835096ED91FC915197A4
:1007A00080818064808381E090E00F90DF91CF9121
:1007B0001F910F91FF90DF90CF900895BF92CF923D
:1007C000DF92EF92FF92CF93DF93EC016A017B01FE
:1007D000B22EE889F98982E08083411581EE5807BD
:1007E00061057105A1F060E079E08DE390E0A7017B
:1007F00096010E94E90B2150310941095109569592
:10080000479537952795211580E1380798F0E889B5
:10081000F989108260E874E88EE190E0A701960102
:100820000E94E90B2150310941095109569547951C
:1008300037952795EC85FD853083EE85FF852083F0
:10084000188EEC89FD89B082EA89FB8980818061FC
:100850008083EA89FB89808188608083EA89FB89BB
:10086000808180688083EA89FB8980818F7D808395
:10087000DF91CF91FF90EF90DF90CF90BF900895E0
:1008800008950E941B020E9440040E949600C8E244
:10089000D3E00E9405012097E1F30E942803F9CFDD
:1008A000CF92DF92EF92FF920F931F93CF93DF933C
:1008B0006C017A01EB01E60EF71E00E010E0CE15A8
:1008C000DF0561F06991D601ED91FC910190F08115
:1008D000E02DC6010995080F191FF1CFC801DF915E
:1008E000CF911F910F91FF90EF90DF90CF900895DF
:1008F0006115710581F0DB010D900020E9F7AD0174
:1009000041505109461B570BDC01ED91FC910280CF
:10091000F381E02D099480E090E008950C94780430
:10092000DC01ED91FC910190F081E02D09946BEEDA
:1009300071E00C9478040F931F93CF93DF93EC0135
:100940000E9478048C01CE010E949704800F911FB1
:10095000DF91CF911F910F9108958F929F92AF9247
:10096000BF92CF92DF92EF92FF920F931F93CF939C
:10097000DF93CDB7DEB7A1970FB6F894DEBF0FBEF9
:10098000CDBF7C01C42EE52FCB01D22E19A221E0D0
:100990002D1510F02AE0D22E8E010F5D1F4F8D2CE9
:1009A000912CA12CB12C6C2D7E2FA50194010E94BD
:1009B000E90B8C2DD29E80191124015011098A3027
:1009C00010F4805D01C0895CF80180832115310538
:1009D0004105510521F0C22EE32FCA01E4CFB80131
:1009E000C7010E947804A1960FB6F894DEBF0FBE2F
:1009F000CDBFDF91CF911F910F91FF90EF90DF90CE
:100A0000CF90BF90AF909F908F900895CF92DF923C
:100A1000EF92FF920F931F93CF93DF93EC016A0144
:100A20007B012115310579F4E881F9810190F0818C
:100A3000E02D642FDF91CF911F910F91FF90EF90E8
:100A4000DF90CF9009942A303105E9F477FF1AC07E
:100A50006DE20E9490048C0144275527BA014C197D
:100A60005D096E097F092AE0CE010E94AD04800F66
:100A7000911FDF91CF911F910F91FF90EF90DF9029
:100A8000CF9008952AE0B701A601CE01DF91CF9162
:100A90001F910F91FF90EF90DF90CF900C94AD04D9
:100AA0000F931F93CF93DF93EC019A01AB0166275D
:100AB00057FD6095762F0E9406058C01CE010E949D
:100AC0009704800F911FDF91CF911F910F9108958F
:100AD0002115310541F4DC01ED91FC910190F0818B
:100AE000E02D642F09940C94AD049A01462F50E038
:100AF00060E070E00C9468050F931F93CF93DF9331
:100B0000EC019A01462F50E060E070E00E94680519
:100B10008C01CE010E949704800F911FDF91CF912D
:100B20001F910F9108959A01AB0160E070E00C9461
:100B300068050F931F93CF93DF93EC019A01AB01EC
:100B400060E070E00E9468058C01CE010E9497046D
:100B5000800F911FDF91CF911F910F9108950F93F7
:100B60001F93CF93DF93EC010E9468058C01CE01A7
:100B70000E949704800F911FDF91CF911F910F91D9
:100B80000895CF93DF93EC0188859985603CA1F0AF
:100B90006B3D21F5DC01ED91FC910190F081E02DA0
:100BA0006BED099588859985DC01ED91FC910190AB
:100BB000F081E02D6DED18C0DC01ED91FC9101900C
:100BC000F081E02D6BED099588859985DC01ED912B
:100BD000FC910190F081E02D6CED06C0DC01ED91FF
:100BE000FC910190F081E02DDF91CF910994EF927B
:100BF000FF920F931F93CF93DF937C018A01EB0148
:100C0000060F171FC017D10729F06991C7010E946D
:100C1000C105F8CFDF91CF911F910F91FF90EF9019
:100C20000895CF93DF93EC01BC01655F7F4F42E0F5
:100C300050E00E94F70588859985DC01ED91FC91D3
:100C40000190F081E02D60ECDF91CF9109940F933A
:100C50001F93CF93DF93EC018B01FC0141935193E0
:100C6000CF010E94A90B1987088781E08A87CE01EE
:100C700044969E878D8780E890E0988B8F871A8AAC
:100C8000198A1B8ADF91CF911F910F910895FC0162
:100C90002285222321F0808191810C949B04089568
:100CA00046275427452754279A01222784E0220FFC
:100CB000331F8A95E1F724273527C901892F992702
:100CC00082958F70822793279C01222755E03695C5
:100CD00027955A95E1F7822793270895EF92FF927F
:100CE0000F931F93CF93DF937C018A01C901EB011E
:100CF000060F171FC017D10731F06991AC01C7016A
:100D00000E945006F7CFDF91CF911F910F91FF9076
:100D1000EF900895AF92BF92CF92DF92EF92FF9241
:100D20000F931F93CF93DF9300D000D000D0CDB7A7
:100D3000DEB78C01DC011D96ED90FC901E971A9693
:100D40008C911A97882309F47DC06CEF71E08D9126
:100D50009C910E948E04F801618972894AE050E0FA
:100D6000808191810E94930566E072E0D8018D91A7
:100D70009C910E948E04F80145855685662757FD93
:100D80006095762F20E130E0808191810E94680596
:100D90006AE272E0D8018D919C910E948E04F70165
:100DA0006081718140E150E0D8018D919C910E9459
:100DB00093056BE272E0F801808191810E948E04BC
:100DC000D70114964D915D916D917C91179720E11B
:100DD00030E0F801808191810E9468056BE272E049
:100DE000D8018D919C910E948E04F70162817381DC
:100DF00040E150E0D8018D919C910E94930568E0FC
:100E0000C62ED12CF8012189328980819181C216A8
:100E1000D306B0F46BE272E00E948E04D8011D96F6
:100E2000ED91FC911E97EC0DFD1D40E150E06081BD
:100E30008D919C910E947505BFEFCB1ADB0AE2CF22
:100E40000E949704D8015196CD90DC905297B2E061
:100E5000CB1AD108F801A584B68420E030E0A601C1
:100E6000B501C8010E946E06F501EC0DFD1D208143
:100E700031818217930731F069E072E0C8010E9466
:100E800047065BC0D7012D913C91F801808191818B
:100E900022303105A1F46AE172E00E948E04D7018C
:100EA00014964D915D916D917C9117972AE030E0F9
:100EB000F801808191810E94AF05C70140C02330B5
:100EC0003105B9F563E272E00E948E04D7011496F1
:100ED0004D915D916D917C9117972AE030E0F8017A
:100EE000808191810E9468056BE272E0D8018D914A
:100EF0009C910E948E04F701628173814AE050E068
:100F0000D8018D919C910E949905F701048115816A
:100F1000C8010E94DA0B882381F0B701CE01019647
:100F20000E948A09BE016F5F7F4FC8010E94B30B08
:100F300004C06DE272E00E949B0480E090E026967F
:100F40000FB6F894DEBF0FBECDBFDF91CF911F91DA
:100F50000F91FF90EF90DF90CF90BF90AF900895EA
:100F60001F93CF93DF93EC0111E088859985DC0115
:100F7000ED91FC910480F581E02D0995892B09F410
:100F800042C088859985DC01ED91FC910680F7814E
:100F9000E02D09958B3D910511F41B8BE6CF298936
:100FA0003A89803C910579F42830310520F0CE0152
:100FB0000E948A0602C080E090E01A8A198A1B8A81
:100FC000009799F222C04B89442361F08C3D910532
:100FD00031F08D3D910529F48BED90E002C080EC5D
:100FE00090E01B8A4F8558892417350708F0BDCF3C
:100FF000ED85FE85A9014F5F5F4F5A8B498BE20F4C
:10100000F31F8083B2CF80E090E0DF91CF911F91FA
:1010100008958F929F92AF92BF92CF92DF92EF92FC
:10102000FF92CF93DF93EC016A017B010E94C40120
:101030004B015C010E94C401681979098A099B0966
:101040006C157D058E059F0530F4CE010E94B0071A
:10105000009781F302C080E090E0DF91CF91FF9094
:10106000EF90DF90CF90BF90AF909F908F900895BA
:10107000EF92FF920F931F93CF93DF93CDB7DEB71D
:1010800028970FB6F894DEBF0FBECDBF7C017A83E0
:1010900069832B833C834D835E8318870F83DC0138
:1010A0001C961C921E921B9718968D919C911997D5
:1010B000DC01ED91FC910190F081E02D60EC09954F
:1010C00042E050E0BE016F5F7F4FC7010E94F7050D
:1010D000F7012385348542E050E0BE016F5F7F4F0A
:1010E000C7010E946E06D7011C969C938E931B9796
:1010F00042E050E0BE01695F7F4FC7010E94F705E3
:10110000F7012385348542E050E0BE01695F7F4FDF
:10111000C7010E946E06D7011C969C938E931B9765
:1011200044E050E0BE016D5F7F4FC7010E94F705AC
:10113000F7012385348544E050E0BE016D5F7F4FA9
:10114000C7010E946E06D7011C969C938E931B9735
:1011500028960FB6F894DEBF0FBECDBFDF91CF91BA
:101160001F910F91FF90EF900895CF92DF92EF9231
:10117000FF920F931F93CF93DF9300D0CDB7DEB7CD
:101180008C017B015A83498342E050E0BE016F5FCE
:101190007F4F0E94F705F8012385348542E050E037
:1011A000BE016F5F7F4FC8010E946E06F8019487F1
:1011B0008387C980DA80CE0CDF1CEC14FD0491F02B
:1011C000F7016081C8010E94C105F801438554857B
:1011D000F70161917F01C8010E945006F8019487D0
:1011E0008387EBCFE980FA80F194E194F108F3E092
:1011F000EF22FF24E114F10491F060E0C8010E94A5
:10120000C105F8014385548560E0C8010E9450067D
:10121000F80194878387F1E0EF1AF108EBCF0F9084
:101220000F90DF91CF911F910F91FF90EF90DF9082
:10123000CF9008958F929F92AF92BF92CF92DF92FC
:10124000EF92FF920F931F93CF93DF93EC014A012C
:101250005B016C0182E0C80ED11CEE24D7FCE09447
:10126000FE2C00E010E0A701960161E070E0CE01E5
:101270000E943808CE010E941106B501A401CE01DA
:101280000E9409088C01009711F1F80144815581F1
:1012900066817781888199814C155D056E057F0592
:1012A00031F463E372E00E949B0481E011C069E3C2
:1012B00072E00E948E04F801448155816681778135
:1012C0002AE030E0888199810E94AF05D6CF80E086
:1012D000DF91CF911F910F91FF90EF90DF90CF9012
:1012E000BF90AF909F908F9008950F931F93CF93CF
:1012F000DF93EC0100E010E020E030E0A90164E0C1
:1013000070E00E943808CE01DF91CF911F910F91BC
:101310000C941106FC0175836483685F7F4F7383AF
:101320006283118210820895CF93DF93FC01808144
:101330009181A481B58112962D913C9113978217CA
:101340009307E0F4A281B3812D913D91B383A283F1
:10135000019691838083EB01B983A8838EEF9FEF81
:10136000821B930B83709927820F931F42815381B5
:10137000480F591F53834283C90102C08FEF9FEF6B
:10138000DF91CF9108950F931F93CF93DF93FC01CB
:10139000A081B181C481D5818A819B81A817B907B9
:1013A00050F5C281D381299139918EEF9FEF821B35
:1013B000930B83709927D383C2831196B183A08343
:1013C0008E01EB01DA012417350708F4D9016A0F01
:1013D0007B1FC617D70729F0D8014D918D0149937E
:1013E000F8CF820F931F42815381480F591F5383B7
:1013F0004283C90102C08FEF9FEFDF91CF911F9110
:101400000F9108950F931F93CF93DF93EC018B01FE
:101410006115710511F1BC01645F7F4F42E050E03E
:10142000C8010E94C309EC81FD816FE372E08081F5
:1014300091810E948E046C857D85EC81FD814AE05E
:1014400050E0808191810E945005BE01605F7F4F16
:10145000C8010E9494099F878E87DF91CF911F91C9
:101460000F9108950F931F93CF93DF93EC018B019E
:1014700006960E94A90B1D830C834FEF5FEFBA0104
:10148000488359836A837B83DF91CF911F910F91AA
:101490000895CF92DF92EF92FF920F931F93CF9315
:1014A000DF9300D01F92CDB7DEB77C016B015B8369
:1014B0004A832983FC019783868342E05AE060E0F7
:1014C00070E040875187628773879C012A5F3F4F96
:1014D000442737FD4095542F03E010E064E170E0AD
:1014E000848195810E943808F60101900020E9F777
:1014F000AF01415051094C195D09B601F7018481D2
:1015000095810E94B50842E050E0BE016E5F7F4FBA
:10151000F701848195810E94B50841E050E0BE0149
:101520006F5F7F4FF701848195810E94B508F701B5
:10153000848195810E94110640ED57E060E070E0E3
:10154000F701848195810E940908009779F0FC01D8
:10155000448155816681778177FD08C0F70140831A
:1015600051836283738380E090E003C0FC01848137
:1015700095810F900F900F90DF91CF911F910F9158
:10158000FF90EF90DF90CF9008958F929F92AF924F
:10159000BF92CF92DF92EF92FF920F931F93CF9360
:1015A000DF93EC015B014A01790168011D861C860D
:1015B000288139814A815B8157FD49C08C819D8199
:1015C000E114F10431F0101611061CF403E010E0F0
:1015D00002C002E010E065E170E00E943808F4010A
:1015E00001900020E9F7AF0141505109481959090C
:1015F000B4018C819D810E94B508F5010190002005
:10160000E9F7AF01415051094A195B09B5018C81D5
:101610009D810E94B508E114F10449F01C141D04D9
:1016200034F4A601B7018C819D810E94B5088C819C
:101630009D81DF91CF911F910F91FF90EF90DF90EF
:10164000CF90BF90AF909F908F900C941106DF9138
:10165000CF911F910F91FF90EF90DF90CF90BF90AF
:10166000AF909F908F9008950F931F93F901019071
:101670000020E9F78F0101501109021B130B0E9492
:10168000C50A1F910F9108959A014AE452E00C9403
:10169000340BCF93DF93EC01CB012C853D85232BBD
:1016A00089F0EE85FF859A01E417F50708F49F019C
:1016B00068897989A9010E94110C8C859D851D86F8
:1016C0001C8602C080E090E0DF91CF9108954F9298
:1016D0005F926F927F928F929F92AF92BF92CF92C2
:1016E000DF92EF92FF920F931F93CF93DF93EC0162
:1016F0005B014A01280139010E94C4016B017C0190
:101700008C859D85892BA9F0A401B501CE01DF91BF
:10171000CF911F910F91FF90EF90DF90CF90BF90EE
:10172000AF909F908F907F906F905F904F900C94B0
:10173000490B0E94C4016C197D098E099F0964152B
:1017400075058605970500F78C819D810E94B0077D
:10175000D7CFFC0111821082138212820895FC01FE
:10176000738362830895DC011296ED91FC911397C7
:101770003097F9F02D913C91119721153105B9F071
:1017800014968D919C911597AC015595479580FFC6
:101790000AC0D901A40FB51F0D90BC91A02DAE0FAA
:1017A000BF1FED91FC91C901840F951F0994CB01D6
:1017B00009940895FC0180819181892B39F481E09D
:1017C00022813381232B19F480E0089581E008956C
:1017D0000895A1E21A2EAA1BBB1BFD010DC0AA1F72
:1017E000BB1FEE1FFF1FA217B307E407F50720F08A
:1017F000A21BB30BE40BF50B661F771F881F991F05
:101800001A9469F760957095809590959B01AC014D
:10181000BD01CF010895EE0FFF1F0590F491E02D5B
:101820000994FB01DC0102C001900D92415050402F
:08183000D8F70895F894FFCFEA
:101838000000AB0380005749464920434F4E4E45B0
:10184800435445440057494649204E4F5420524579
:101858004144593A2000454C2D436C69656E74200B
:101868007374617274696E672100454C2D436C690D
:10187800656E742073796E63206661696C65642196
:101888000057696669207374617475733A2000772C
:1018980077772E74696D656170692E6F7267005273
:1018A80045535420626567696E206661696C65649A
:1018B8003A2000454C2D5245535420726561647995
:1018C80000454C2D436C69656E742073796E6365B1
:1018D8006421002F7574632F6E6F77004152445551
:1018E800494E4F3A204745542073756363657373B7
:1018F80066756C3A0041524455494E4F3A20474567
:1019080054206661696C65643A2000000000007923
:10191800035004FB021403060357030D0A006E610B
:101928006E00696E66006F7666002E00454C433A7D
:1019380020676F742000204000454C433A20496ED0
:1019480076616C69642043524300524553505F5698
:101958003A2000524553505F43423A2000434D44D9
:101968003F3F0053594E4321004241443A20005220
:1019780045535420636F6465200047455400504F19
:0E1988005354005055540044454C45544500FE
:00000001FF
